:020000040800F2
:1000000000280020E5250008052A00082D26000804
:10001000092A00080D2A0008112A00080000000023
:10002000000000000000000000000000152A000889
:10003000192A0008000000001D2A0008212A0008D3
:100040003F260008412600084326000845260008F0
:1000500047260008492600084B2600084D260008C0
:100060004F26000851260008532600085526000890
:1000700057260008592600085B2600085D26000860
:100080005F26000861260008632600086526000830
:100090003D300008692600086B2600086D26000820
:1000A0006F260008712600087326000875260008D0
:1000B00077260008792600087B2600087D260008A0
:1000C0007F26000881260008832600088526000870
:1000D00087260008892600088B2600088D26000840
:1000E0008F26000891260008413000089526000858
:1000F0009726000800000000992600089B260008AB
:1001000000000000000000009D2600089F26000857
:10011000A1260008A3260008A5260008A726000897
:10012000A926000810B5054C237833B9044B13B148
:100130000448AFF300800123237010BDA801002004
:1001400000000000B83F000808B5064B1BB1064888
:100150000649AFF300800648036813B1054B03B1AD
:10016000984708BD00000000B83F0008AC0100201F
:10017000A801002000000000154B002B08BF134B06
:100180009D46A3F5803A00218B460F461348144A3A
:10019000121A03F02EFE0F4B002B00D098470E4B87
:1001A000002B00D098470020002104000D000D48CE
:1001B000002802D00C48AFF3008003F0EBFD2000D4
:1001C000290001F051F903F0D1FD00BF0000080043
:1001D000002800200000000000000000A80100200E
:1001E000C0050020000000000000000040F0BF60DB
:1001F0004FF46D4340F40030CEF20003D8607047F6
:10020000C37810B47BB90378012103F01F0201FA0F
:1002100002F15A094FF46143CEF20003203243F851
:10022000221010BC70474FF46D43CEF20003DB6820
:100230004178DB43C3F30223C3F10402D2B201FAD3
:1002400002F20F2141FA03F3847801782340D2B2FD
:100250001A43120101F16043D2B203F5614383F8FE
:1002600000230278012102F01F0301FA03F14FF489
:100270006143CEF20003520943F82210D1E700BFD8
:10028000837910B4002B2CD04FF48063C4F20103A7
:100290001968026821EA02021A605968026821EAB4
:1002A00002025A600279016802F1804202F582324C
:1002B0001468214311609968026821EA02029A6079
:1002C000D968026821EA0202DA604279102A14D061
:1002D00002F1804202F58232116803680B43136019
:1002E00009E00379016803F1804303F582331A685A
:1002F00022EA01021A6010BC7047996802680A433A
:100300009A60D96802680A43DA60F4E74FF48063C0
:10031000C4F201035861704700222DE9F001134631
:100320000126032703E001330232102B2CD006FAFA
:1003300003F40D682540A542F5D107FA02F4D0F880
:1003400000C0E44304EA0C0CC0F800C091F804C0FB
:10035000D0F800800CFA02FC4CEA080CC0F800C08F
:1003600091F804C00CF1FF3CBCF1010F0FD9C56836
:1003700001332C40C460CC79C56804FA02F402321F
:100380002C43102BC460D2D1BDE8F0017047D0F8E7
:1003900008C004EA0C0CC0F808C091F805C0D0F8F9
:1003A00008800CFA02FC4CEA080CC0F808C0B0F84F
:1003B00004C01FFA8CFC2CEA050585808D79B0F805
:1003C00004C005FA03F545EA0C05ADB28580CEE719
:1003D00000234FF6FF720260037143718371C37192
:1003E000704700BF038A19420CBF002001207047EC
:1003F0000AB9418370470183704700BF01F00703CA
:100400009B0010B40F2404FA03F402FA03F3C908A2
:10041000083150F8212022EA040440F8214050F825
:100420002120134340F8213010BC70474FF4605333
:10043000C4F20203DA6919B922EA0000D8617047F0
:100440001043D861704700BF4FF46053C4F20203F9
:100450001A6A19B922EA000018627047104318623C
:10046000704700BF4FF46053C4F202035A6A19B9CF
:1004700022EA00005862704710435862704700BF7C
:100480000A88F0B44C888B88CD8814431C430A89B1
:100490004B892C438F8922430588CE8913433B43E4
:1004A00005F4415533432B439BB20380838B23F4E4
:1004B00000631B041B0C83830B8A0382F0BC704710
:1004C000038829B923F040031B041B0C03807047E9
:1004D0009BB243F040030380704700BF808980B225
:1004E000704700BF81817047038919420CBF00200B
:1004F000012070470023C4F201035A6818B922F0A2
:1005000001025A60704742F001025A60704700BF12
:1005100008B538B1064B1B681B689847054B18682F
:100520000A3008BD034B01221B681A8208BD00BFB8
:10053000A4040020A804002008B538B1064B1B68AD
:100540009B689847054B18680C3008BD034B012287
:100550001B681A8208BD00BFA4040020A804002064
:1005600008B500283BD0234B234800211A6801809E
:10057000137813F07F0312D1537A03F02002D2B222
:100580005ABB027803F04003DBB213B342F001021E
:1005900002701A4B1B681B699847174808BD012B4E
:1005A00016D0022B13D1537903F00F02920002F1FF
:1005B000804202F5B84213F0800F136814D103F49F
:1005C0004053B3F5805FE4D101230370E1E70846AF
:1005D00008BD22F001020270DBE70222D2E7054BE0
:1005E00002221B681A8208BD03F03003102BD0D101
:1005F000EAE700BFA804002078040020A40400203B
:100600002DE9F8432C4E3468238A207A002B08BF4A
:10061000042814BF4FF000084FF001080AD1274BFF
:100620001A78012A30D0264B102207271A80277209
:10063000BDE8F883A78AA2699F4234BF3D461D46A4
:100640002846BB428CBF022704279047814640467C
:1006500000F002FE2A460146484600F0FDFC29460D
:10066000404600F019FE238A628A5B1B2382144BEA
:10067000AD1830221A806582124B34684FF4405214
:100680001A802772BDE8F88345F65042C4F2000292
:10069000116843F2020289B2C2F200028A185200C3
:1006A000002111603468064A302004271080197038
:1006B0002772BDE8F88300BFA8040020C401002011
:1006C000B0040020AE04002010B50B4B0B4A1B6891
:1006D0005178DA78914201D2022010BD9978002930
:1006E000FAD19C88002CF7D19A72054B1B685B6885
:1006F0009847204610BD00BFA80400203801002004
:10070000A404002038B5104A104C1268236892697E
:100710005879D978904723689A7A0AB9022038BD67
:100720000028FBD11A79002AF8D19D78002DF5D147
:10073000074B1B68DB689847236828465979DA78A5
:10074000D9721A7338BD00BF80040020A8040020AD
:10075000A404002038B5354B1B68187810F07F00D2
:1007600003D0022806D0022038BD5A7A22F0200297
:100770005A7238BD5A88002AF6D11A79002AF3D164
:100780005A7922F08000810001F18044150604F5B9
:10079000B84456BF2468256804F44055244C48BF2B
:1007A00005F030052478A042DDD2002DDBD09B7A05
:1007B000002BD8D002F08003DBB273B101F180438B
:1007C00003F5B8431B6803F03003102B21D0194BFD
:1007D0001B685B699847002038BD01F1804101F535
:1007E000B844236803F44053B3F5805FEFD1C8B930
:1007F000114B93F82C1000F05FFD22684BF68F73BD
:10080000134083F4405343F4004343F080032360D8
:10081000DDE7C4B2204600F0E7FC2046302100F0BE
:100820005DFCD4E700F0CEFCE7E700BFA8040020A1
:1008300038010020A4040020B400002038B5224B69
:1008400019684B7923F08002900000F180441D0666
:1008500004F5B84456BF2468256804F440551B4C81
:1008600048BF05F030052478A24201D3022038BDEC
:100870004A88002AFAD1002DF8D08A7A002AF5D0C9
:1008800003F0800300F1804202F5B842DBB2116848
:100890007BB148F6BF730B4083F0100343F4004371
:1008A00043F0800313600A4B1B689B699847002044
:1008B00038BD4BF68F730B4083F4805343F40043F1
:1008C00043F080031360EEE7A80400203801002005
:1008D000A4040020054B1B685A8A10B108688018D0
:1008E000704789888A1A1A82704700BFA8040020BE
:1008F00008B50C4B002093F82C1000F0DDFC0A4BDF
:100900001B68187A082806D1084B4FF480521A80C9
:10091000074B10221A80B0F1090CDCF1000050EBFB
:100920000C0008BDB4000020A8040020AE04002084
:10093000B00400202DE9F041354D2C68237A022BBC
:1009400018BF042B14BF0026012605D0032B18BFA7
:10095000052B07D0072B0ED008232372BDE8F041EA
:10096000FFF7C6BFA169238A11B35BB9A38A002B25
:100970004AD0284A2EE0284B1B68DB6898472C6831
:100980000823EAE7A78A9F4228BF1F4638468847C0
:10099000228A638AD21BFB186382804622823046F9
:1009A00000F06AFC3A460146404600F06FFB238A9D
:1009B000002BDBD00020194B01464FF440521A8027
:1009C00000F06AFC238AA18A124A302099421080E2
:1009D0001AD9ABB9296845F6504306200872C4F20B
:1009E0000003196843F2020389B2C2F20003CB1874
:1009F0005B00002119602C6830231380237AACE758
:100A00002C6805232372A8E72C6803232372A4E72C
:100A1000A8040020B004002080040020AE040020C0
:100A200070B545F65043C4F20003A34C196843F275
:100A30000402236889B2C2F200028A18197A5200AD
:100A4000092982B0156847D0ADB26D0005F1804527
:100A500005F5C0452A781A7023686A785A70A88804
:100A6000266800F05DFC70802889266800F058FC3C
:100A7000B0802368AA890121DA801972002A30D057
:100A80005978062900F08980002943D15A88002A24
:100A900000F09680894D2B6808461B69984703280B
:100AA000236847D01A8A4FF6FF718A4242D0022843
:100AB0000CD05AB193F900100029C0F2B78003227C
:100AC0001A727F4B4FF440521A8001E008221A72CA
:100AD000FFF70EFF02B070BDDA8801211972002AFB
:100AE000CED11A785D7812F07F0226D0012A00F06C
:100AF000B580022A00F0D380704B28461B685B69E2
:100B00009847032800F00581002831D02368082287
:100B10001A72DDE7082965D11A785206BAD1694AF6
:100B200000209A615882904723684FF6FF711A8A15
:100B30008A42BED109221A72CAE7092D00F0DD806F
:100B4000052D00F09D80032D00F0C680012DD3D12E
:100B5000DA78012AD0D19A88002ACDD15B7A03F0C5
:100B60002003DBB2002BC7D0FFF7F4FD0028C3D170
:100B700045F65043C4F200031A6843F2020392B2EE
:100B8000C2F20003D3185B0000221A604E4B3022E1
:100B90001A80236806221A729AE71A7852067FF49E
:100BA00079AF9A78454D012A00F0AD80022A61D0D4
:100BB000032A7FF470AF2A68526A002AB0D16AE72C
:100BC0005A6822F47F42B2F5003F7FF463AF1A788F
:100BD00012F07F0240F0A1809A88002A7FF45AAF79
:100BE0003A4A9DE70A297FF455AF1A7802F07F024E
:100BF000012A7FF44FAF9A7A002A3FF44BAF5A880C
:100C0000002A7FF447AF58682C4D20F47F40B0F5A0
:100C1000803F7FF440AF58792B6811469B69984715
:100C20002368002840F0B880294A79E7D9880191E3
:100C3000019882421AD88A42204D08D2296891F838
:100C40002C108A4280F09280224A002111702A687A
:100C500092F82C209A82FFF7D3FC39E70B2D7FF412
:100C60004BAFFFF74FFD002882D045E7019A134DA7
:100C70001A82ECE72A68126A002A7FF451AF0AE769
:100C800093F90320002A07DB9A782AB99A881AB9BF
:100C90009A7A002A3FF46CAF08221A7218E7012DE5
:100CA0003FF462AF032D7FF427AFFFF7C7FD0028A5
:100CB0003FF45EAF20E700BFA804002080040020BE
:100CC000AE04002011050008B004002061050008F2
:100CD00039050008C4010020DA78012A7FF40CAF3E
:100CE0009A88002A7FF408AF597A2C4A41F02001F3
:100CF00012685972D36998473AE7FFF7E5FC002874
:100D00003FF436AFF8E62A68D269002A7FF408AFCC
:100D1000C1E6236809221A72DAE6012A31D0022AD2
:100D20007FF4B8AE5A7902F00F00850005F18045D6
:100D3000160605F5B84556BF2D682E6805F44056D1
:100D4000174D48BF06F030062D78A842BFF4A2AE7A
:100D500012F0700F14BF00220122002E0CBF0026DB
:100D600002F00106002E7FF43BAF93E692FBF1F018
:100D700001FB1022002A7FF46AAF0A4A0121117098
:100D800065E7094D58792B689B699847236818B91E
:100D90009A7A002A7FF424AF59787CE6A4040020D4
:100DA00038010020C40100208004002070B40F4BE3
:100DB0001E7896B14FF4B844C4F2000400232568AD
:100DC00043F4004140F60F7241F080012A400133A4
:100DD0000A439E4244F8042BF1D845F64C4340F0B8
:100DE0008000C4F20003186070BC70473801002016
:100DF00010B5144C23681A7A022A18BF042A11D09D
:100E0000062A05D008221A72BDE81040FFF770BD0F
:100E10005A78052A0BD00C4B1B689B6898472368AF
:100E20000822F0E7FFF7ECFB23681A7AEBE71A7861
:100E30005106F0D1D878FFF7B9FF044B1B681B6A45
:100E40009847E8E7A804002080040020A4040020BC
:100E5000704700BF10B540F2884240F2A844C2F289
:100E60000002C2F2000422600224147240F28040A8
:100E700040F2B40340F2A44140F2E402C2F20003A3
:100E8000C2F20000C2F20001C2F2000203600A6076
:100E90001B68984710BD00BF2DE9F04FDFF8B4A1E3
:100EA00085B045F6444B0023DFF8A491654E664DAE
:100EB000ADF80E30C4F2000BD046DBF800304FF432
:100EC000B8449AB21B04AAF8002040F1AE80B8F8EA
:100ED0000020C4F2000402F00F02900000F18040F4
:100EE0005A4F4BF6BF7100F5B84089F80020002A30
:100EF00036D12268544B92B22A802A8802F03002FE
:100F00003A802A8802F440522A802268114081F4F3
:100F1000005181F0200141F4004141F08001216045
:100F2000B8F8002002F0100292B2002A4BD02268DA
:100F300092B2ADF80E20BDF80E2002F4006292B21B
:100F4000002A75D1BDF80E2012B2002AB5DA216848
:100F500040F68F720A4022600193FFF7EBFC3AE003
:100F600003689BB2ADF80E30BDF80E301BB2002BFB
:100F700019DBBDF80E3003F080039BB2002B9CD030
:100F800099F8002048F60F73920002F1804202F5B2
:100F9000B84211680B40136099F80030013B56F8D5
:100FA0002330984789E7026840F68F731340036047
:100FB000274B40F290021B78C2F20002013B52F82C
:100FC00023309847D5E7216848F60F720A4022601F
:100FD0000193FFF70DFF019B206819884BF6BF7244
:100FE00001F4805189B2024009B182F480521B8819
:100FF00003F400539BB20BB182F400523B8803F020
:1010000010039BB20BB182F010023B8803F0200367
:101010009BB20BB182F0200242F400424FF4B8437D
:1010200042F08002C4F200031A6005B0BDE8F08F00
:10103000216840F68F720A4022600193FFF7F0FCAE
:10104000C9E700BF74000020AE040020B0040020F7
:10105000840400209805002001F1005101F5405161
:1010600001324900531010B40DD00A1D023010F89F
:10107000014C10F8021C023041EA042122F8041C41
:101080000432013BF3D110BC704700BF01F10051A5
:1010900001F5405101324900531008D002300A1FB7
:1010A00052F8041F20F8021C0230013BF8D17047AF
:1010B0004FF6F87345F650420340C4F20002136045
:1010C000704700BF800000F1804202F5B84210680E
:1010D00048F68F13034019431160704710B4800025
:1010E00000F1804202F5B842146801F0100048F6A1
:1010F000BF7380B2234068B99BB201F0200189B26E
:1011000009B183F0200343F4004343F080031360EC
:1011100010BC704783F01003EFE700BF10B48000ED
:1011200000F1804202F5B842146801F480504BF699
:101130008F7380B2234068B99BB201F4005189B229
:1011400009B183F4005343F4004343F08003136078
:1011500010BC704783F48053EFE700BF800000F1BC
:10116000804202F5B842116848F6BF730B4083F025
:10117000300343F4004343F080031360704700BF23
:10118000800000F1804202F5B84211684BF68F737F
:101190000B4083F4405343F4004343F08003136057
:1011A000704700BF800000F1804202F5B84211682C
:1011B00040F60F630B4043F4004343F08003136099
:1011C000704700BF800000F1804303F5B8431A6800
:1011D000510408D5196840F60F720A4042F44042A3
:1011E00042F080021A607047800000F1804303F5EE
:1011F000B8431A68500608D5196840F60F720A40BD
:1012000042F4004242F0C0021A60704745F6504373
:10121000C4F200031A684FF6FE7392B202EBC000EC
:1012200000F1005202F5405252000B40136070472B
:1012300045F65043C4F200031A6843F2040392B225
:1012400002EBC000C2F20003C3184FF6FE725B004F
:101250000A401A60704700BF45F65043C4F20003CD
:101260001B689BB203EBC00000F1005303F5405331
:101270005B001888704700BF45F65043C4F2000376
:101280001A6843F2040392B202EBC000C2F20003F8
:10129000C3185B001888704745F65043C4F200033A
:1012A0001A6843F2020392B202EBC000C2F20003DA
:1012B000C3185B001960704745F65043C4F2000341
:1012C0001A6843F2060392B202EBC000C2F20003B6
:1012D000C3185B003E2909D94A09C90601D1013A60
:1012E00092B2920242F400421A6070474A08C8075C
:1012F00048BF013292021A60704700BF45F6504362
:10130000C4F200031A6843F2060392B202EBC00073
:10131000C2F20003C3185B0018688005800D704797
:10132000C3B2000A40EA0320704700BF10B440F285
:10133000AC4345F6444445F640424FF43F4100205B
:10134000C4F20004C2F20003C4F20002206019805B
:10135000116010BC704700BF08B5012001F0B0FA61
:101360004FF4967001F098FC0120BDE8084001F0B0
:10137000B7BA00BF08B5002001F0A2FA4FF496708A
:1013800001F08AFC0020BDE8084001F0A9BA00BFC6
:101390002DE9F84F01F02CFAFFF7DEFFFFF7EAFF27
:1013A00000F06EF8294CDFF8B89020600368984789
:1013B0002368DFF8A4809B689847254EDFF8A4B027
:1013C00000272546CA4623685B69984702281BD038
:1013D00004282AD03368052BF5D1002FF3D1D9F892
:1013E0000030002BEFD0DAF800102B6889B21B69AF
:1013F0001848984701F008FD2368CAF800705B6937
:10140000984701270228E3D12B6813491348DB686A
:101410009847B8F8001011B13368052B0CD0FFF7CE
:101420009BFF23689B689847CDE7FFF7A3FF2B68D6
:1014300000279B689847C6E7DBF80030012BEED108
:10144000C9B2064801F0C8FCE9E700BFC8010020A6
:10145000700400204805002024000020CC0100205A
:10146000940500200000002008B501F03DFC01F0CB
:1014700055FC01F069FCFFF7EDFCFFF789FF00BFA9
:1014800040F2B44042F25553C2F20000C0F60003ED
:10149000036042F29943C0F60003436042F2955361
:1014A000C0F60003836042F2A953C0F60003C36094
:1014B00042F2BD53C0F60003036142F2D153C0F6BD
:1014C00000034361704700BFF8B5114D04462B6817
:1014D00010485A7802F00701A142017017D00E4956
:1014E000E01E46420F784641B742304604D00E70A7
:1014F00001F0C4FB2B685A7822F0070214435C7099
:101500002B6801205978BDE8F84001F04BBBF8BDCD
:10151000CC0400204500002027000020000000002F
:1015200010B540F2CC44C2F2000421681B20022214
:10153000091801F043FB2368D87E1B7F43EA002093
:1015400002F054F902F0CAFB02F050F904A3D3E907
:10155000002302F0B1F902F0C1FB10BDAFF300802F
:101560000000000080844E4010B540F2CC44C2F22E
:10157000000421680C20091801F048FB2368187B3F
:10158000400910BD10B540F2CC44C2F200042168FD
:101590001120091801F03AFB2368587C02F016F973
:1015A00000230022C3F6E07302F086F901F1004344
:1015B000194610BD10B440F21833C2F200031C8863
:1015C0000A460C8000211980128840F20C21C2F2D8
:1015D000000110BC02F004BC10B540F220330C46F0
:1015E000014640F20C20C2F200032246C2F2000083
:1015F0001C8002F0F5FB40F23433C2F200030722F4
:101600001A7010BD0E4B1A6892F8271092F832002B
:1016100092F8303001F00701421C891813F0060FD0
:1016200003F010000CBF0022012201EBD313C0B263
:10163000002814BF02200020D318C01880B27047C1
:10164000CC04002040F23433C2F20003187070471B
:10165000F8B5A24E3378013B0A2B3DD8DFE813F0F2
:101660004200AB00EC00F600FD000E011F015C0122
:101670008201A7013E0001F0E1FA0128014600F0D5
:10168000D98101F0D3FA0128014640F0C280944B81
:10169000944A186823881060934F944D002B40F0B3
:1016A000E3812A78002A40F0DF81914B1B6893F98F
:1016B00030000028C0F2F38193F832303B808D482F
:1016C000991A8018C9B201F0ABFA238801222B7055
:1016D000894B1A70042333700120F8BD0023337046
:1016E0000520F8BD824F3B6893F8302002F01002CD
:1016F000D2B2002A40F05F810C2283F84020E1241E
:1017000003F1400183F841400222402001F022FA17
:101710000520FFF7D9FE4FF480720021754802F0D2
:1017200068FBFFF76FFF02F051F800230022C4F2BC
:10173000200302F0C1F8714B044658680D4602F0D0
:1017400045F802460B462046294602F0DFF94FF4E1
:1017500080430022C4F28F0302F0AEF801F0A6FE2F
:1017600000230022C3F6F07301F0F4FE02F0DEFA6B
:101770003C68A02184F8351080B2614C00EB500227
:101780002260574B5F4C1B682260564A352013601D
:101790005D4A136001F006FA5C4A002313705C4A4C
:1017A00001201370544A1370504A13704E4A13802C
:1017B00002233370F8BD01F059FA012800F02081AE
:1017C00001F044FA012800F0FA80514C2378002BF4
:1017D00082D14E4C2378E3B1414B19684A4B1A68C9
:1017E000484B8A1A1B689A427FF676AF404B0D2011
:1017F0001B68597B012341F02001337001F0D2F9BD
:10180000434B1B78002B7FF467AF2378002B7FF4CA
:1018100063AF394B1B78002B7FF45EAF304B1968F8
:10182000304B1A68364B8A1A1B689A427FF654AFBF
:10183000052333700120F8BD2B4C2388B3F5807F3E
:101840007FF619AF062333700120F8BD274B002225
:101850001A70012333700220F8BD254B234A1B6800
:101860000D20597B002313701F4A41F02001138083
:1018700001F098F9012333700320F8BD1C4B1B4A7B
:101880001B680D20597B00231370174A41F020017B
:10189000138001F087F9012333700620F8BD144D41
:1018A00040202B68012420271918022283F8404089
:1018B00083F8417001F04EF92A689823194682F89E
:1018C0003530352001F06EF90320FFF7FDFD0823C8
:1018D0003370104B00221A702046F8BD34030020EC
:1018E0005C04002038030020180300203C03002083
:1018F000CC0400200C0200203E0300202800002021
:101900000C0300201C030020100300203D030020D6
:101910003F0300201A03002001F0A0F9012801462E
:101920007FF4DAAE644B1B6893F93030002BC0F2C1
:10193000B280624B624C1B8862485A1E3F2A94BF99
:10194000D9B22021217001F065F95F4B2078197818
:101950005E4A4118197012685D4B01201A60092314
:101960003370F8BD01F06AF980B9544D564C544FAC
:101970002A8823783978D21A8A424CDD5148C01817
:1019800001F048F923783A78D318237001F04EF922
:1019900001284E4D4E4C46D02A682368D31AB3F521
:1019A0007A7F7FF699AE0B2333700120F8BD0023B8
:1019B00033700420F8BD4C2283F840209FE6454B4D
:1019C000454C1B78002B3FF401AF2378002B7FF4AC
:1019D00083AE2070FFF7D6FD404BC3E90001FFF74F
:1019E0009FFD3F4B1860FFF7BFFD3E4A374B10701D
:1019F0001B683D4A13603D4A136003233370E5E6DC
:101A0000344B1A78002A7FF4DBAE304A1870126823
:101A1000364B1A60D4E62B48D1B2C01801F0FAF860
:101A20002B882370B2E72B6823600A233370FFF7FB
:101A30004BFDB1E723882E4D03B31F4F2A7838683A
:101A400090F835109B1A01F03F018B420EDD1D48C6
:101A5000801801F0E5F83A682B7892F8352002F00A
:101A60003F02D3182B700CE62A7828E61548D9B225
:101A7000801801F0D5F823882B7002E60E4F2A78E3
:101A80003868002ADCD190F93030002B0DDB90F85B
:101A900032302380D4E7094801F0BCF849E73846E2
:101AA00001F0BEF82A783B8809E6204601F0B8F834
:101AB00023882A783868C3E7CC040020200300205C
:101AC000440000200C0200201A0300205C040020C7
:101AD000300300203D0300203F03002028030020A6
:101AE00014030020260000203803002010030020EB
:101AF0003C03002010B540F2D044C2F2000422683A
:101B000043233120194682F82F3001F04BF8216829
:101B100042203E31BDE8104001F078B8F8B5114DD3
:101B200004462B6810485A7802F00701A142017060
:101B300017D00E49E01E46420F784641B742304664
:101B400004D00E7001F09AF82B685A7822F0070240
:101B500014435C702B6801205978BDE8F84001F00F
:101B600021B8F8BDD0040020480000204700002024
:101B700038B5244D40F24A43C2F2000300221A70E5
:101B8000FFF7B8FF012029466F2201F017F840F255
:101B9000D043C2F200031B68294680255D7240F2E3
:101BA000080423256F221D73C2F20004012000F0F7
:101BB000D1FF206800F0E8FA012000F0DBFB94F987
:101BC000040000F005FBA07900F03AFCE07900F099
:101BD00069FB207A00F082FB607900F047FB607AB5
:101BE00000F098FB40F2FF3000F0E0FB207E00F0B8
:101BF000ADFB012000F0F6FB0120BDE83840FFF707
:101C00008DBF00BFD504002010B540F2D044C2F211
:101C1000000421680C20091800F0F8FF2368187BE5
:101C2000400910BD10B440F24643C2F200031A88C6
:101C300000240A8040F24031C2F200011C8010BC36
:101C400002F0CEB810B540F248430C46014640F2CF
:101C50004030C2F200032246C2F200001C8002F0B3
:101C6000BFF840F24A43C2F2000305221A7010BDC9
:101C700040F24A43C2F200031870704700000000AF
:101C80002DE9F041934E82B03378013B092B10D8F7
:101C9000DFE813F013004C00670081008500CD00E1
:101CA000EF000F00F6000A0000F0D8FF012800F056
:101CB0007081012002B0BDE8F081874F0120FFF75D
:101CC0002DFF3B689D21854C5974112000F06AFF5F
:101CD000E37A002B40F089813B68FF2183F82410D0
:101CE000242000F05FFF3968002381F83C3081F840
:101CF0003D3040203C31022200F02CFFA37A002B23
:101D000000F0DC800620FFF709FF00214FF480720D
:101D1000734802F06EF8734B61691A68724B0120C8
:101D20001960724B1A6002233370C3E700F07EFF24
:101D300001286A4C00F07E8100F088FF012800F045
:101D40006981A37A002BB4D0664B1968674B1A6877
:101D5000654B8A1A1B689A42ABD904233370012061
:101D6000A8E75D4F12203968091800F04FFF3B6863
:101D70009B7C03F02003DBB2002B00F0BD8012201F
:101D8000202100F00FFF554B9B7A002B00F0FD80C7
:101D9000012030708EE70123337003208AE7012091
:101DA000FFF7BCFE4D4A4C4FD37A002B40F0068122
:101DB0003A68F7201946507482F82430242000F045
:101DC000F1FE3B681120597C00F0ECFE484B3A686C
:101DD0001B782220194682F8223000F0E3FE3A6890
:101DE0000023194693730E2000F0DCFE3B680D20A3
:101DF0009A7B402411465A7300F0D4FE3B68384861
:101E000093F8221000F006FF3B68412503F13C01E6
:101E100083F83C5083F83D402046022200F09AFEB1
:101E20000320FFF77BFE06233370012042E700F01A
:101E3000FDFE012800F02A8100F008FF01287FF450
:101E400038AF264BDB7A73B1234C1C20216809186C
:101E500000F0DCFE23681A7F264B02F03F0253F8A5
:101E6000220000F091F91220022100F09BFE0120D7
:101E700020E70120FFF752FE00233370042019E70A
:101E8000154C0120FFF74AFE2268FA2319465374C5
:101E9000112000F087FE2368002403F13C0183F841
:101EA0003C4083F83D404020022200F053FE0720D2
:101EB000FFF734FE0A2333700120FBE6064B0D20AA
:101EC0001B68D97B597300F06DFE0520FFF726FED5
:101ED0001BE700BF4A040020D004002008000020B7
:101EE000400300205C040020400400204C0400203B
:101EF00048040020203E000819200DF1070100F0E1
:101F000085FE9DF807301C0651D4954C9B08237024
:101F100039681A20091800F079FE924B94F9008074
:101F20001B68B8F1000F987EC0F2B78001F04EFC3C
:101F300087A3D3E9002301F0BFFC87A3D3E90023E3
:101F400001F006FB884BC3E90001884CA37A002B03
:101F500000F081803B680D20D97B824D597300F0E1
:101F600021FE637A002B00F0C3802B6893F82230A7
:101F70007F4A80481946138000F052FEA37A002B56
:101F800066D001233370022094E6022333700120CF
:101F900090E61220042100F005FE00F067FE012803
:101FA000044600F0CD8000233370072082E65B42B8
:101FB0006B4CC3F385035B422370A9E73B68127B3C
:101FC0001C20F524191883F824205C7400F01EFEF0
:101FD0003B681A7F684B02F03F0253F8220000F082
:101FE000D3F83B6893F82410E8E63B68227B1C207A
:101FF000191883F8242000F009FE3B681A7F5E4B15
:1020000002F03F0253F8220000F0BEF83B6893F85C
:10201000241065E6594B5A4A1968E37A1160002B7F
:102020007ED11220022100F0BDFDFFF7EDFD554BE2
:10203000187086E6514B524A1968E37A1160002BFA
:102040005ED11220402100F0ADFD0323337073E612
:10205000022030702EE639681020091800F0D6FDF5
:10206000637A404D002B2ED02B680D201A7C93F8FC
:1020700022705A733E4B11461F8000F093FD2B686F
:102080003C4893F8221000F0CBFD77E7122008219E
:1020900000F088FD07233370CEE601F097FB2EA3F6
:1020A000D3E9002301F054FA044640460D4601F0FE
:1020B0009DFB0B4602462946204601F04BFA2A4B6F
:1020C000C3E9000141E729681320091800F09EFDCB
:1020D0002B680D201A7CDF7C5A73254B11461F801C
:1020E00000F060FD2B682348D97C00F099FD45E79E
:1020F00029681320091800F089FD2B68DB7C37E77D
:10210000184D1C202968091800F080FD2B681A7FE3
:10211000194B02F03F0253F8220000F035F890E727
:10212000104D1C202968091800F070FD2B681A7FDB
:10213000114B02F03F0253F8220000F025F870E73F
:102140001220214600F02EFD34700820B2E500BFB9
:102150001B9E5E29CB10F13F000000000060614033
:1021600044040020D0040020500400200800002077
:102170004604002040030020203E00085C040020AC
:102180004C0400204600002008B540F20803C2F2CB
:102190000003186001F01AFB0BA3D3E9002301F040
:1021A000B5FC01F0C3FD40F2D043C2F20003196850
:1021B000020C030A087206208A71CB7103220918E7
:1021C000BDE8084000F0C6BC0000000080844E401E
:1021D00038B5244D044629680920091800F016FD79
:1021E00029685A20563100F011FD2B685A7A1006E2
:1021F00012D4611C27DB611C0E2C01F00F0101DDE4
:102200000F210E2422F00F0211435972092000F011
:10221000C9FC154B1C7138BD93F8561001F007012D
:10222000072909D0012C12DDA11E112C01F0FF019C
:10223000E8DD0F211124E5E7042C0BDD142C0CDD67
:102240000F211424DEE700214FF0FF34DAE70021EC
:102250000224D7E700210524D4E7611F01F0FF0124
:10226000D0E700BFD00400200800002038B540F2BD
:10227000D044C2F20004216805461D311D2000F043
:10228000C5FC23681D20597F01F03F0141EA8511FB
:10229000C9B2597700F086FC40F20803C2F200038D
:1022A0005D7138BD38B540F2D044C2F200042168F7
:1022B00005461D311D2000F0A9FC23681D20597F13
:1022C00021F0380141EAC501C9B2597700F06AFC32
:1022D00040F20803C2F20003DD7138BD38B540F2A8
:1022E000D044C2F20004216805461D311D2000F0D3
:1022F0008DFC23681D20597F21F0020141EA450130
:10230000C9B2597700F04EFC40F20803C2F2000354
:102310001D7238BD38B540F2D044C2F200042168C5
:1023200005461D311D2000F071FC23681D20597FDA
:1023300021F0040141EA8501C9B2597700F032FC6D
:1023400040F20803C2F200035D7238BD10B540F2DE
:10235000D043C2F200031B68044683F822002146E2
:10236000222000F01FFC40F20803C2F200031C769A
:1023700010BD00BF38B50C4C054621685A205631B7
:1023800000F044FC236855B9842283F85620236862
:102390005A2093F85610BDE8384000F003BC87225D
:1023A00083F85620F3E700BFD004002038B540F290
:1023B000D044C2F20004216805461E311E200222CC
:1023C00000F0FCFB2168C5F301228B7F1E2023F067
:1023D00003031343CD778B7702220918BDE83840F9
:1023E00000F0B8BB38B540F2D044C2F20004216816
:1023F00005461D311D2000F009FC23681D20597F72
:1024000021F0010129435977BDE8384000F0CABBEB
:1024100038B540F2D044C2F20004216805462F319D
:10242000312000F0F3FB2368312093F82F1021F0C6
:102430000701294383F82F10BDE8384000F0B2BBF4
:102440000C2870B5044606D805281BD9062819D0D3
:102450000601F6B201E0C0260C240320FFF7D8FFE6
:102460000B4D1E202968091800F0D0FB2B681E2098
:10247000997F01F00F013143997700F093FB054BF1
:102480009C7170BD0520FFF7C3FF60260624E7E7B7
:10249000D00400200800002010B5094C012000F0F5
:1024A00027FB226823689342FCD0002000F020FB29
:1024B000034B1A6823689B1A052BFBD910BD00BF7C
:1024C0005C04002010B51F4A1178814238D010708A
:1024D0001D4A1070B0B9FFF721FB1C4B01201A6890
:1024E000517801F07F0151701B68597800F05AFB58
:1024F0000120FFF713FB164901206F22BDE81040B1
:1025000000F05CBB114C0020FFF708FB23680120A2
:102510005A7862F07F025A702368597800F042FBC3
:102520000120FFF7FBFA23680024402003F13C015F
:10253000022283F83C4083F83D4000F00BFBDAE7D1
:1025400010BD00BF5904002058040020D004002012
:10255000D504002008B540F2CC4140F2D44340F20B
:10256000D042C2F20003C2F20001C2F200020B60CC
:10257000136000F05DFAFFF78FFF012240F258432D
:10258000C2F2000310461A70FFF79CFFBDE8084036
:10259000FFF7EEBA034B01201B780BB1FFF768BBC6
:1025A000FFF750B858040020034B1B780BB1FFF71E
:1025B00039BBFEF7FFBF00BF58040020034B1B7858
:1025C0000BB1FFF73FBBFFF707B800BF580400206F
:1025D000034B1B780BB1FFF753BBFFF739B800BFB4
:1025E000580400200649074A074B9A42BEBF51F8DB
:1025F000040B42F8040BF8E70448804704480047FE
:10260000C43F000800000020A8010020B5260008F3
:10261000790100082549264A002301E041F8043BDE
:102620009142FBD3FEF720FFFEE7FEE7FEE7FEE761
:10263000FEE7FEE7FEE7FEE7FEE7FEE7FEE7FEE772
:10264000FEE7FEE7FEE7FEE7FEE7FEE7FEE7FEE762
:10265000FEE7FEE7FEE7FEE7FEE7FEE7FEE7FEE752
:10266000FEE7FEE7FEE7FEE7FEE7FEE7FEE7FEE742
:10267000FEE7FEE7FEE7FEE7FEE7FEE7FEE7FEE732
:10268000FEE7FEE7FEE7FEE7FEE7FEE7FEE7FEE722
:10269000FEE7FEE7FEE7FEE7FEE7FEE7FEE7FEE712
:1026A000FEE7FEE7FEE7FEE7FEE70000A8010020E8
:1026B000C00500204FF46053C4F2020319684CF2C5
:1026C0000C0241F4807119609968C8F6FF020A4053
:1026D0009A601A68002122F0885222F001121A60D2
:1026E000186882B020F48020186098681A4620F498
:1026F0007D009860D96000910191196841F48031A2
:10270000196003E0009BB3F5A06F09D0136803F4D0
:1027100000330193009B01330093019B002BF1D008
:102720004FF46053C4F202031B6813F4003308BF74
:10273000019301D001230193019B012B08D04FF499
:102740006D43CEF200034FF000629A6002B0704712
:102750004FF47053C4F2020319684FF4605241F011
:10276000040119601968C4F2020241F00201196003
:1027700018684FF4E04140F001001860536AC4F259
:10278000000143F0805353624FF400630A460B602C
:102790005368D906FCD44FF46053C4F202039A681C
:1027A00019469A609A689A609A689A609A6822F4C0
:1027B0007D029A609A6842F409029A601A6842F0AF
:1027C00080721A600A684FF460539201C4F20203E7
:1027D000F8D599681A4621F003019960996841F08B
:1027E00003019960936803F00C030C2BFAD1A6E760
:1027F00010B540F24C03C2F20003196844F6D353FB
:10280000C1F26203A3FB01214EF210038909CEF24B
:10281000000301394FF46D425960CEF20002F021FD
:1028200082F82310002407229C601A6000F068F8E8
:10283000204600F019F8012000F016F8204600F0BC
:102840003FF8012000F03CF84FF4FA7000F024FA51
:10285000204600F045F8012000F042F84FF4FA70ED
:10286000BDE8104000F018BA70B543F6EC63C0F64E
:10287000000382B00546012153F82000FDF7D6FD84
:1028800043F6F463C0F6000333F8156040F25004D9
:1028900002A9C2F20004012341F8086D54F8250092
:1028A00069468DF8043002238DF80530FDF734FDBC
:1028B00054F8250031460022FDF79AFD02B070BDA4
:1028C00040F2500243F6F4630146C2F20002C0F641
:1028D000000352F8200033F811100122FDF788BDE3
:1028E00040F2500243F6F4630146C2F20002C0F621
:1028F000000352F8200033F811100022FDF778BDD4
:10290000F0B5022089B00121FDF790FD4FF48064FD
:1029100001214FF48040C4F20204FDF7A3FD01A899
:10292000FDF756FD002502234FF4005201272046F3
:1029300001A901924FF480468DF808308DF80930D6
:102940008DF80A508DF80B70FDF7E6FC204601A9C2
:102950000196FDF7E1FC4FF4004301A920460193E5
:10296000FDF7DAFC20460D210522FDF747FD204644
:102970000E210522FDF742FD20460F210522FDF71D
:102980003DFD4FF48273ADF80E304FF40073ADF897
:1029900016303004102303A9ADF8183040F460500D
:1029A0000723ADF80C50ADF81050ADF81250ADF84B
:1029B0001450ADF81A50ADF81C30FDF761FD30042D
:1029C00040F460503946FDF77BFD09B0F0BD00BF13
:1029D00001464FF4605008B5C4F20000FDF782FDD7
:1029E0004FF46050C4F200000121FDF77DFD002886
:1029F000F6D04FF46050C4F20000FDF76FFDC0B296
:102A000008BD00BF704700BFFEE700BFFEE700BF84
:102A1000FEE700BF704700BF704700BF704700BFB0
:102A200040F25C43C2F200031A6801321A60704738
:102A30002DE9F04101264FF4806582B0C4F2020511
:102A400007203146FDF7F2FC3246022328464FF4B8
:102A500080518DF8053002AC8DF80460FDF7C8FC9C
:102A60004FF480536946284644F8083DFDF754FC6E
:102A70000022174628464FF40061FDF7B9FCC4F266
:102A80000207284669464FF400634FF480680093BC
:102A9000FDF742FC0023384669468DF80430CDF836
:102AA0000080FDF739FC384669464FF40073009307
:102AB000FDF732FC4FF400604FF400536946C4F256
:102AC00002000093FDF728FC284669460096FDF7B2
:102AD00023FC2846694610230093FDF71DFC284679
:102AE0006946CDF80080FDF717FC02B0BDE8F08123
:102AF00010B5012882B0044612D002A9042341F87F
:102B0000083D4FF4806000238DF80430C4F20200C9
:102B1000022369468DF80530FDF7FEFB02B010BDBB
:102B20004FF480600421C4F202002246FDF760FCED
:102B300002A904234FF4806041F8083DC4F202006A
:102B4000022369468DF804408DF80530FDF7E4FB5B
:102B5000E4E700BF70B505464FF480601446C4F248
:102B600002000E4600224FF48051FDF741FC45F073
:102B70008000FFF72DFF4CB1651EEDB2741E751974
:102B800014F8010FFFF724FFAC42F9D14FF4806035
:102B9000C4F202004FF480510122BDE87040FDF7FD
:102BA00027BC00BF00B583B002AB03F8011D194676
:102BB0000122FFF7CFFF03B000BD00BF70B505468F
:102BC0004FF480601446C4F202000E4600224FF417
:102BD0008051FDF70DFC05F07F00FFF7F9FE54B1C1
:102BE000651EEDB2741E75190020FFF7F1FE04F8A2
:102BF000010FAC42F8D14FF48060C4F202004FF4F0
:102C000080510122BDE87040FDF7F2BB0122FFF7C1
:102C1000D5BF00BF03460A4600201946FFF79ABFFA
:102C200003460A4600201946FFF7C8BF0020C4F239
:102C300002004FF48061FDF7D5BB00BF0020C4F255
:102C400002004FF40071FDF7CDBB00BF4FF40060F0
:102C5000C4F202004FF40051FDF7C4BB4FF4806092
:102C6000C4F202000121FDF7BDBB00BF4FF480603C
:102C7000C4F202001021FDF7B5BB00BF02464FF4BD
:102C80008060C4F202004FF400610AB9FDF7B0BBE6
:102C90000122FDF7ADBB00BF034A116813685B1A40
:102CA0008342FBD3704700BF5C04002030B4CAB13C
:102CB000551EEDB2013500236D001C4607E0303291
:102CC000CA54CA1802330001AB4254700AD0020F32
:102CD000092AF4D93732CA54CA1802330001AB4268
:102CE0005470F4D130BC7047012008B50146FDF79F
:102CF000ABFB4FF48020FDF709FB40F28853C2F292
:102D000000034FF480221A6008225A7118460122EB
:102D10009A71BDE80840FDF7B3BA00BF4FF4000058
:102D20000121FDF79FBB00BF054B9B7A23B9054BE3
:102D300001221A60FFF7BEBC024B05221A60F9E7B8
:102D4000880400207004002010B54FF4A06082B009
:102D5000FDF74CFA14238DF804300223012401A856
:102D60008DF8053000238DF806308DF80740FDF70B
:102D700047FA2A2301A88DF804308DF805408DF814
:102D80000740FDF73DFA02B010BD00BF08B9FDF7DE
:102D9000B1BB0120FDF7AEBB10B550226423C1F6D4
:102DA000F872C1F6F87312681B685421C1F6F87105
:102DB000D0180C6800D110BD08220549FFF776FF36
:102DC000044920460422BDE81040FFF76FBF00BF52
:102DD0005A0000206A0000203F2938B50C4601D96E
:102DE000002038BD074B0A460025C0211D60FEF7B4
:102DF00033F901202146FEF74FFA0120FEF7AEF924
:102E0000012038BD0000002008B540F20403C2F2E2
:102E10000003032000221A60FEF7B2F9012008BD6A
:102E200040F20003C2F2000301221A60704700BFA3
:102E300040F2040310B50122C2F2000303201A601D
:102E4000FEF75CFA40F29453044640F24850C2F256
:102E50000003C2F200004FF4887122461C60BDE8F6
:102E60001040FEF713B900BF70B545F64441C4F2F7
:102E700000010B686A4C9BB26A4D23802A88208827
:102E800088B0104000F4007080B2134640B166482C
:102E90004FF6FF530B60017813460131C9B2017040
:102EA000218801F400410A4261D1228802F4806243
:102EB000134250D1228802F4005213421FBF45F63C
:102EC0004443C4F200034DF6FF721A60228818BF13
:102ED0002B8802F48052134231D1228802F400621E
:102EE00013420ED0514B1B78002B25D1022000F04D
:102EF00081FA45F64443C4F200034FF2FF721A60B0
:102F00002B88228802F48072134213D045F6444283
:102F10004FF6FF61C4F2000245F648431160C4F267
:102F200000031B68190426D4414B00221A600720B5
:102F300000F060FA08B070BD00F0C8F9D9E745F6B6
:102F40004443C4F200034EF6FF721A60002000F002
:102F500051FA2B88C1E745F64443C4F200034FF60B
:102F6000FF321A60334B5B6898472B88A2E7FDF766
:102F700093FF2B8899E72E490B6801330B600B6890
:102F8000032BD4D945F64042C4F20002136813F073
:102F90000803CCD11068284D80B24FF4B8422860A5
:102FA000C4F2000252F8044B08AE06EB8300013372
:102FB000A4B2082B40F8204CF4D12A6845F64043CF
:102FC00042F001022A602A68C4F2000392B21A6039
:102FD0002A6845F6444022F001022A602A68C4F2B9
:102FE000000092B21A60026845F644435205C4F2EA
:102FF0000003F8D54FF4B8424FF6FF301860C4F222
:103000000002002308AC04EB830050F8200C0133CD
:1030100080B2082B42F8040BF4D100230B6086E742
:1030200098050020AC040020640400203C0100202E
:1030300068040020B400002060040020FFF714BFE3
:103040004FF48020FDF762B9034B9B7A13B1034B19
:1030500005221A60704700BF880400207004002019
:1030600040F27043C2F2000304221A60704700BFAE
:10307000034B1A78202A01D100221A70704700BF32
:103080006C040020704700BF212810B5034603D010
:10309000202811D0022010BD0F4A13681B7803F0BE
:1030A0007F03212BF6D10D49136800242046996136
:1030B0005C828847204610BD074A1168097801F0F4
:1030C0007F01212903D0064A0220137010BD044855
:1030D00004490370E8E700BFA80400201D31000880
:1030E0006C04002035310008074B1B681B7803F087
:1030F0007F03212B01D002207047022801D0222813
:10310000F9D10020704700BFA804002009B10220B7
:1031100070470128FBD80846704700BF08B1034834
:103120007047034B08221B681A8270473001002049
:10313000A804002008B103487047034B08221B680D
:103140001A82704730010020A8040020054B1B683C
:10315000DB78042B04D8044901EBC301FDF7BABBAB
:1031600000207047A80400201001002040F2AC01AC
:10317000C2F20001FDF7AEBB40F20811C2F200013D
:10318000FDF7A8BB10B540F2A84343F66C72C2F23B
:103190000003C0F60002D2791B6800245A729C72A8
:1031A000DC722046FDF784FF20464FF40071FDF7E6
:1031B00089FF10212046FDF791FF40212046FEF7B0
:1031C00037F880212046FEF721F82046FDF7EAFF78
:1031D00040F2B403C2F2000393F82C102046FEF72D
:1031E0006BF82046FDF7CCFF01202146FDF76AFF72
:1031F0000120C021FEF70AF801202021FDF76EFF13
:1032000001202146FDF78AFF02204FF4C061FDF73F
:1032100059FF02204FF48071FDF7F8FF022021468C
:10322000FDF77CFF02202021FDF758FF03202146F7
:10323000FDF748FF03204FF48871FDF7F9FF0320E5
:103240004021FEF739F803204FF44051FDF766FFA7
:1032500021460320FDF742FF2046FDF7A7FD40F27F
:103260007043C2F2000301221A6010BD10B5FFF7CF
:1032700093FD40F2A843C2F200031B6800249C7235
:1032800000F008F8FEF752F840F27043C2F2000373
:103290001C6010BD38B50120FFF778FD45F64445A8
:1032A00045F6404340F2AC42C4F2000300214FF423
:1032B000E0540120C2F20002C4F200051860196057
:1032C0000846296014801C6038BD00BF70B400231C
:1032D00083B045F64041C4F2000101934FF4B84277
:1032E0000D683B49C4F2000252F8040B80B241F869
:1032F00023000133082BF7D1AAB24FF6FE7442F433
:10330000806245F640432C40C4F2000342F00106BF
:1033100044F4806545F644401A60C4F200001E6023
:103320001D60026845F644435205C4F20003F8D517
:103330004FF4B8424FF6FF301860C4F20002002389
:1033400051F82300013380B2082B42F8040BF7D167
:1033500045F64043C4F2000344F481641C601A68DB
:103360004FF4E04192B242F004021A60C4F200014C
:1033700008684FF46D4201900868CEF2000220F018
:10338000030040F001000860146945F6444044F031
:1033900004041461C4F20000046814F4805F10D0C7
:1033A0004EF6FF7404601C684FF6F77020401860FA
:1033B000019B0B60136923F00403136103B070BC1D
:1033C000704730BF136923F004031361F6E700BFB1
:1033D000A005002010B545F64044C4F20004226860
:1033E0004FF6FB7313402360FFF79EFC4FF43F43FF
:1033F000236010BD10B52B4C072818BF2070237810
:10340000052B19D8DFE803F01B222A2F3A03637833
:10341000013BDBB26370637883B945F64042C4F286
:10342000000210684FF6EF71014011601D4A06213D
:1034300011701D4A136010BD0623237010BD1A4B76
:103440001B68002B28D00523237010BDFFF7C2FF97
:1034500004232370144B01221A6010BD02236370F1
:103460000323237010BD6378013BDBB26370637884
:10347000002BE3D10B4B04221A7010BD45F64043DC
:10348000C4F200031A6892B242F010021A600523D7
:1034900023700A23637010BDFFF79CFF062323707F
:1034A00010BD00BF9C05002074040020F8B5C1F3D6
:1034B0000A57A7F2FF35132D02460B4604460E4667
:1034C00018DC002D34DB4FF6FF71C0F20F0141FA1A
:1034D00005F101EA0300104309D04FF4002343FA39
:1034E00005F5AE1926EA01060024334622461046A9
:1034F0001946F8BD332D07DDB5F5806FF7D100F023
:1035000029F802460B46F2E7A7F213414FF0FF30CD
:1035100020FA01F11142EAD0C7F58667012302378C
:1035200003FA07F7BC1828BFF61824EA0104DCE701
:1035300000246B1C01F00046D7D146F07F5646F4BC
:1035400040160024D1E700BF81F0004102E000BF37
:1035500083F0004330B54FEA41044FEA430594EA53
:10356000050F08BF90EA020F1FBF54EA000C55EA8E
:10357000020C7FEA645C7FEA655C00F0E2804FEA5F
:103580005454D4EB5555B8BF6D420CDD2C4480EA41
:10359000020281EA030382EA000083EA010180EA71
:1035A000020281EA0303362D88BF30BD11F0004FBF
:1035B0004FEA01314FF4801C4CEA113102D04042F5
:1035C00061EB410113F0004F4FEA03334CEA133330
:1035D00002D0524263EB430394EA050F00F0A78048
:1035E000A4F10104D5F1200E0DDB02FA0EFC22FA43
:1035F00005F2801841F1000103FA0EF2801843FA37
:1036000005F359410EE0A5F120050EF1200E012A27
:1036100003FA0EFC28BF4CF0020C43FA05F3C01865
:1036200051EBE37101F0004507D54FF0000EDCF1DE
:10363000000C7EEB00006EEB0101B1F5801F1BD387
:10364000B1F5001F0CD349085FEA30004FEA3C0C8B
:1036500004F101044FEA445212F5800F80F09A8081
:10366000BCF1004F08BF5FEA500C50F1000041EB85
:10367000045141EA050130BD5FEA4C0C404141EB89
:10368000010111F4801FA4F10104E9D191F0000FB0
:1036900004BF01460020B1FA81F308BF2033A3F133
:1036A0000B03B3F120020CDA0C3208DD02F1140C2A
:1036B000C2F10C0201FA0CF021FA02F10CE002F165
:1036C0001402D8BFC2F1200C01FA02F120FA0CFC5E
:1036D000DCBF41EA0C019040E41AA2BF01EB0451A7
:1036E000294330BD6FEA04041F3C1CDA0C340EDCA5
:1036F00004F11404C4F1200220FA04F001FA02F3E8
:1037000040EA030021FA04F345EA030130BDC4F1A5
:103710000C04C4F1200220FA02F001FA04F340EA9A
:103720000300294630BD21FA04F0294630BD94F04B
:10373000000F83F4801306BF81F480110134013D32
:103740004EE77FEA645C18BF7FEA655C29D094EAA3
:10375000050F08BF90EA020F05D054EA000C04BF21
:103760001946104630BD91EA030F1EBF002100200C
:1037700030BD5FEA545C05D14000494128BF41F0AB
:10378000004130BD14F580043CBF01F5801130BD0F
:1037900001F0004545F0FE4141F470014FF000009A
:1037A00030BD7FEA645C1ABF194610467FEA655C4B
:1037B0001CBF0B46024650EA013406BF52EA0335ED
:1037C00091EA030F41F4002130BD00BF90F0000FDB
:1037D00004BF0021704730B54FF4806404F1320417
:1037E0004FF000054FF0000150E700BF90F0000FD0
:1037F00004BF0021704730B54FF4806404F13204F7
:1038000010F0004548BF40424FF000013EE700BFC6
:1038100042004FEAE2014FEA31014FEA02701FBF56
:1038200012F07F4393F07F4F81F06051704792F028
:10383000000F14BF93F07F4F704730B54FF46074A2
:1038400001F0004521F0004120E700BF50EA0102ED
:1038500008BF704730B54FF000050AE050EA01029A
:1038600008BF704730B511F0004502D5404261EB0A
:1038700041014FF4806404F132045FEA915C3FF44B
:10388000DCAE4FF003025FEADC0C18BF03325FEAE4
:10389000DC0C18BF033202EBDC02C2F1200300FA99
:1038A00003FC20FA02F001FA03FE40EA0E0021FABE
:1038B00002F11444C1E600BF70B54FF0FF0C4CF4A8
:1038C000E06C1CEA11541DBF1CEA135594EA0C0F5E
:1038D00095EA0C0F00F0DEF82C4481EA030621EA99
:1038E0004C5123EA4C5350EA013518BF52EA0335D4
:1038F00041F4801143F4801338D0A0FB02CE4FF086
:103900000005E1FB02E506F00042E0FB03E54FF0B5
:103910000006E1FB03569CF0000F18BF4EF0010EAD
:10392000A4F1FF04B6F5007F64F5407404D25FEAA9
:103930004E0E6D4146EB060642EAC62141EA55515C
:103940004FEAC52040EA5E504FEACE2EB4F1FD0C9E
:1039500088BFBCF5E06F1ED8BEF1004F08BF5FEA1C
:10396000500E50F1000041EB045170BD06F00046CE
:1039700046EA010140EA020081EA0301B4EB5C047B
:10398000C2BFD4EB0C0541EA045170BD41F4801173
:103990004FF0000E013C00F3AB8014F1360FDEBF98
:1039A000002001F0004170BDC4F10004203C35DA74
:1039B0000C341BDC04F11404C4F1200500FA05F3F7
:1039C00020FA04F001FA05F240EA020001F0004298
:1039D00021F0004110EBD37021FA04F642EB06010E
:1039E0005EEA430E08BF20EAD37070BDC4F10C0438
:1039F000C4F1200500FA04F320FA05F001FA04F2FC
:103A000040EA020001F0004110EBD37041F10001E7
:103A10005EEA430E08BF20EAD37070BDC4F12005F2
:103A200000FA05F24EEA020E20FA04F301FA05F25A
:103A300043EA020321FA04F001F0004121FA04F202
:103A400020EA020000EBD3705EEA430E08BF20EAD2
:103A5000D37070BD94F0000F0FD101F0004640000C
:103A600041EB010111F4801F08BF013CF7D041EA8E
:103A7000060195F0000F18BF704703F00046520092
:103A800043EB030313F4801F08BF013DF7D043EA63
:103A90000603704794EA0C0F0CEA135518BF95EA19
:103AA0000C0F0CD050EA410618BF52EA4306D1D1A0
:103AB00081EA030101F000414FF0000070BD50EABF
:103AC000410606BF1046194652EA430619D094EA49
:103AD0000C0F02D150EA013613D195EA0C0F05D133
:103AE00052EA03361CBF104619460AD181EA030187
:103AF00001F0004141F0FE4141F470014FF000003F
:103B000070BD41F0FE4141F4780170BD70B54FF0D9
:103B1000FF0C4CF4E06C1CEA11541DBF1CEA135559
:103B200094EA0C0F95EA0C0F00F0A7F8A4EB05043B
:103B300081EA030E52EA03354FEA013100F0888032
:103B40004FEA03334FF0805545EA131343EA1263FB
:103B50004FEA022245EA111545EA10654FEA0026B0
:103B60000EF000419D4208BF964244F1FD0404F569
:103B7000407402D25B084FEA3202B61A65EB0305C5
:103B80005B084FEA32024FF480104FF4002CB6EB82
:103B9000020E75EB030E22BFB61A754640EA0C0002
:103BA0005B084FEA3202B6EB020E75EB030E22BF42
:103BB000B61A754640EA5C005B084FEA3202B6EB83
:103BC000020E75EB030E22BFB61A754640EA9C0042
:103BD0005B084FEA3202B6EB020E75EB030E22BF12
:103BE000B61A754640EADC0055EA060E18D04FEAD0
:103BF000051545EA16754FEA06164FEAC30343EA70
:103C000052734FEAC2025FEA1C1CC0D111F4801F3C
:103C10000BD141EA00014FF000004FF0004CB6E735
:103C200011F4801F04BF01430020B4F1FD0C88BFD4
:103C3000BCF5E06F3FF6AFAEB5EB030C04BFB6EBDF
:103C4000020C5FEA500C50F1000041EB045170BDD2
:103C50000EF0004E4EEA113114EB5C04C2BFD4EBFF
:103C60000C0541EA045170BD41F480114FF0000E83
:103C7000013C90E645EA060E8DE60CEA135594EAFF
:103C80000C0F08BF95EA0C0F3FF43BAF94EA0C0F02
:103C90000AD150EA01347FF434AF95EA0C0F7FF477
:103CA00025AF104619462CE795EA0C0F06D152EACB
:103CB00003353FF4FDAE1046194622E750EA4106AF
:103CC00018BF52EA43067FF4C5AE50EA41047FF4C0
:103CD0000DAF52EA43057FF4EBAE12E74FEA410223
:103CE00012F5001215D211D56FF47873B3EB62524E
:103CF00012D94FEAC12343F0004343EA505311F075
:103D0000004F23FA02F018BF404270474FF0000006
:103D1000704750EA013005D111F0004008BF6FF044
:103D2000004070474FF00000704700BF4A0011D2BA
:103D300012F5001211D20DD56FF47873B3EB625205
:103D40000ED44FEAC12343F0004343EA505323FA11
:103D500002F070474FF00000704750EA013002D186
:103D60004FF0FF3070474FF00000704708B5074B29
:103D7000044613B10021AFF30080054B1868836A35
:103D800003B19847204600F03DF800BF0000000056
:103D9000B43F000870B50E4B0E4D0024ED1AAD1067
:103DA0001E4603E056F8242090470134AC42F9D176
:103DB00000F02AF8084D094B0024ED1AAD101E46FC
:103DC00003E056F8242090470134AC42F9D170BD8D
:103DD000A0010020A0010020A4010020A0010020DB
:103DE00010B5002302E0CC5CC45401339342FAD1F5
:103DF00010BD8218034601E003F8011B9342FBD17A
:103E000070470000FEE700BFF8B500BFF8BC08BC73
:103E10009E467047F8B500BFF8BC08BC9E46704788
:103E200020AEA036E07D0B37A017083660F0AF3625
:103E300060F0AF36403D2E36C0AFD235000D99361A
:103E400020A5633680A331374061223760DE3536E6
:103E500040466B36A032BF36A032BF36A00ECB35FF
:103E6000E0625436A0443937A00ECB35809AF43640
:103E7000001F1337E050DA3540466B36809AF4362F
:103E800080A33137807F3D360016D636A03BFC3606
:103E9000C0C14C36809AF43660DE353680A33137A7
:103EA000809AF4368091B73660022A3700FB1E36BE
:103EB00060F0AF36A0443937209C2636000D993685
:103EC00060D5F835000D9936C0AFD2354034F135A4
:103ED000C0CA893640466B36C0B80F36807F3D3643
:103EE000A044393760022A37C0C14C3601000000B7
:103EF00001000000000180002603530054004D0023
:103F00006900630072006F0065006C00650063006B
:103F1000740072006F006E0069006300730000009F
:103F20001201000202000040830440570002010217
:103F300003010000040309043203530054004D0040
:103F400033003200200056006900720074007500D2
:103F500061006C00200043004F004D002000500025
:103F60006F0072007400200020000000090243006E
:103F7000020100C032090400000102020100052410
:103F8000001001052401000104240202052406009A
:103F900001070582030800FF09040100020A00006E
:103FA00000070503024000000705810240000000F1
:0C3FB00043000000400100200000000061
:083FBC00BCC1FF7F0100000001
:103FC40001000000010000008025DB33140007011C
:103FD4000100000004000000F4010000E8030000F8
:103FE40080000000400001018025DB3380250000B3
:103FF40050C3000014000000A0860100F049020034
:104004000101FF0020010101010000000048E80156
:1040140000000240000002401A03530054004D0007
:104024003300320000000000000000000000000027
:1040340000000000212E0008510E0008510E000857
:10404400510E0008510E0008510E0008510E0008D0
:10405400510E0008510E0008312E0008510E0008C0
:10406400510E0008510E0008510E00086C3F000864
:10407400430000006D3200088531000871300008EB
:104084008530000889300008E93000080D31000847
:10409400793100086D3100084D310008000000003E
:1040A40040000000510E000849300008510E00087D
:1040B400510E0008510E0008510E0008510E000860
:1040C400510E000861300008203F00081200000073
:1040D400343F000804000000F83E000826000000F9
:1040E400383F000832000000580000201A00000089
:1040F40000C20100000008000401000001000000EB
:1041040000000000000000000000000000000000AB
:10411400000000000000000000000000000000009B
:10412400B03F000800000000000000000000000094
:10413400000000000000000000000000000000007B
:10414400000000000000000000000000000000006B
:10415400000000000000000000000000000000005B
:084164004901000825010008D3
:0400000508000000EF
:00000001FF
