:020000040800F2
:10000000C0270020952D0008092900089F2D000811
:100010000D2900080F290008112900080000000020
:10002000000000000000000000000000132900088C
:1000300015290008000000001729000819290008E8
:10004000AF2D0008AF2D0008AF2D0008AF2D000820
:10005000AF2D0008AF2D0008AF2D0008AF2D000810
:10006000AF2D0008AF2D0008AF2D0008AF2D000800
:10007000AF2D0008AF2D0008AF2D0008AF2D0008F0
:10008000AF2D0008AF2D0008AF2D0008AF2D0008E0
:100090000D440008AF2D0008AF2D0008AF2D00085B
:1000A000AF2D0008AF2D0008AF2D0008AF2D0008C0
:1000B000AF2D0008AF2D0008AF2D0008AF2D0008B0
:1000C000AF2D0008AF2D0008AF2D0008AF2D0008A0
:1000D000AF2D0008AF2D0008AF2D0008AF2D000890
:1000E000AF2D0008AF2D000811440008AF2D000807
:1000F000AF2D0008AF2D0008AF2D0008AF2D000870
:10010000AF2D0008AF2D0008AF2D0008AF2D00085F
:10011000AF2D0008AF2D0008AF2D0008AF2D00084F
:10012000AF2D000800F002F800F05AF80AA090E89D
:10013000000C82448344AAF10107DA4501D100F0A2
:100140004FF8AFF2090EBAE80F0013F0010F18BF15
:10015000FB1A43F001031847F0630000106400002D
:100160000A444FF0000C10F8013B13F0070408BFDD
:1001700010F8014B1D1108BF10F8015B641E05D07B
:1001800010F8016B641E01F8016BF9D113F0080F30
:100190001EBF10F8014BAD1C0C1B09D16D1E58BFC2
:1001A00001F801CBFAD505E014F8016B01F8016BF9
:1001B0006D1EF9D59142D6D370470000002300246C
:1001C00000250026103A28BF78C1FBD8520728BF67
:1001D00030C148BF0B6070471FB51FBD10B510BDC3
:1001E00004F0D0FB1146FFF7F7FF02F058FE04F0D1
:1001F000EEFB03B4FFF7F2FF03BC04F0F1FB0000D9
:100200002B4908432B490860704730B50F23C2784B
:1002100001250178002A1FD0264A126802F4E06204
:10022000C2F5E062C2F30722C2F10404D34042786F
:10023000A24084781C401443220101F1E02181F89E
:100240000024007800F01F018D404009800000F17B
:10025000E020C0F8005130BD01F01F008540480982
:10026000800000F1E020C0F8805130BD124A1140FA
:1002700001431048001F016070470E4A121D0029FB
:1002800003D0116801431160704711688143116008
:1002900070474FF0E021042804D0086920F00400E2
:1002A00008617047086940F0040008617047000069
:1002B0000000FA050CED00E080FFFF1F364900202A
:1002C0000860091D0860091D0860091D08603249A1
:1002D0006FF07F4014310860704730B52E4A837943
:1002E0000168002B2AD013688B431360111D0B6823
:1002F0000468A3430B60017911440B68046823432D
:100300000B60254C08342168036899432160231D44
:1003100019680568A94319604179102905D011446D
:100320000A68006802430A6030BD21680268114310
:100330002160196800680143196030BD00791044DC
:1003400002688A43026030BD0021016001710C2205
:10035000427181717047104910310A6802430A6086
:100360007047014600200C4A143212680A4200D03D
:100370000120704708491431086070470146002089
:10038000054A143212680A4200D00120704702491F
:1003900014310860704700000004014010B577492F
:1003A000884209D10121084600F042FA0021BDE847
:1003B0001040012000F03CBA7149884209D1012166
:1003C000022000F035FA0021BDE81040022000F0C4
:1003D0002FBA6C49884209D10121042000F028FA83
:1003E0000021BDE81040042000F022BA664988428E
:1003F00009D10121082000F01BFA0021BDE81040BE
:10040000082000F015BA6149884209D10121102065
:1004100000F00EFA0021BDE81040102000F008BAEC
:100420005B49884209D10121402000F001FA0021F6
:10043000BDE81040402000F0FBB95649884209D180
:100440000121802000F0F4F90021BDE81040802057
:1004500000F0EEB95049884209D10121202000F076
:10046000E7F90021BDE81040202000F0E1B910BDFF
:100470002DE9F041002201274FF0030C07FA02F5A5
:100480000B682B40AB422BD1066853000CFA03F4E7
:10049000A64306600E79D0F800809E4046EA080622
:1004A00006600E79012E01D0022E11D18668A64376
:1004B00086604E79D0F808809E4046EA080686603D
:1004C0008688AE43868086888D7995402E438680C7
:1004D000C568A543C560CC799C40C3681C43C46013
:1004E000521C102ACAD3BDE8F0814FF6FF7101609B
:1004F0000021017141718171C171704708B541F4EA
:1005000080320092009AC261C1610099C161C169E3
:10051000C069009008BD02460020128A0A4200D03D
:1005200001207047008A704702460020928A0A42E2
:1005300000D001207047808A704701837047418353
:100540007047002A01D00183704741837047818240
:100550007047828A4A408282704710B54B07DB0E93
:100560009A40C90800EB8100016A0F249C40A14316
:100570000162016A1143016210BD000000000240E7
:100580000004024000080240000C0240001002403B
:1005900000180240001C024000140240D8480168C4
:1005A00041F480710160D64908310A68D54B1A4080
:1005B0000A600268D44B1A400260026822F480226A
:1005C0000260086820F47D0008600020091D0860B2
:1005D0007047CB490022891C0A7008707047024698
:1005E0000020510901290AD0C5493431096802F0B7
:1005F0001F02012393400B4200D001207047C049E5
:100600000968F4E718B5002000904FF4A064312089
:10061000FFF7E5FF0099491C00910099A14201D024
:100620000028F4D03120FFF7DAFF08B1012018BD0F
:10063000002018BDB249C91D08707047B04A121D8C
:10064000116821F46041014311607047AF490862AD
:100650007047AB4A121D116821F4F85141EA00209D
:1006600010607047A94908607047A54900223531DC
:100670000A7008707047A64908607047114301432B
:100680009F480A3001707047A049086670479F492B
:10069000086770479E492C310860704708439849A5
:1006A0000B3108707047964A0832116821F0030137
:1006B00001431160704792480830006800F00C0058
:1006C00070478F4A0832116821F0F0010143116030
:1006D00070478B4A0832116821F4E06101431160D0
:1006E0007047874A0832116821F4605141EAC0001E
:1006F0001060704730B5824B0833196801F00C0167
:100700001C1F4FF40045002925D0824A042929D016
:10071000082929D00C2929D02168C1F34231491C6C
:100720008D400560196801F0F00109097A4A545CAE
:100730000168E14041601C6804F4E064240A145D2F
:1007400021FA04F484601B6803F46053DB0AD25C72
:10075000D140C16030BD2168C1F34231491C8D4098
:100760000560DFE70260DDE70260DBE7196801F49E
:1007700070111A6802F44002674C093C04EB914185
:100780000978012404EB92521C6804F480342CB1E3
:10079000604C6143B1FBF2F10160C3E75D4C614322
:1007A000B1FBF2F10160BDE7C0F30141032907D1BC
:1007B000534B196821F0C04100F0C0420A431A604F
:1007C0004F4934310A6822F440320A600A6800F462
:1007D000403002430A6070474D4958310860704705
:1007E0004B495C3108607047454A1C32002903D0F0
:1007F00011680143116070471168814311607047AF
:100800003F4A2032002903D011680143116070472C
:100810001168814311607047394A2432002903D09E
:10082000116801431160704711688143116070477E
:10083000334A1032002903D0116801431160704718
:1008400011688143116070472D4A1432002903D08A
:10085000116801431160704711688143116070474E
:10086000274A1832002903D01168014311607047EC
:100870001168814311607047214A2832002903D052
:10088000116801431160704711688143116070471E
:100890001B4A2C32002903D01168014311607047B4
:1008A0001168814311607047154A3032002903D026
:1008B00011680143116070471168814311607047EE
:1008C0000F4A0D32002903D011780143117070478F
:1008D000117881431170704709483430016841F044
:1008E00080710160704701460020054A0C32126891
:1008F0000A4200D00120704701490E31087070474C
:10090000003802400CC0FF88FEFFFEEE00004742A8
:10091000800647420024F4000900002010B5A949D0
:1009200088420AD1841401212046FFF78DFF20461A
:10093000BDE810400021FFF787BFA34988420AD1D4
:10094000041401212046FFF78BFF2046BDE810402C
:100950000021FFF785BF9D4988420AD1C4130121B8
:100960002046FFF77DFF2046BDE810400021FFF73D
:1009700077BF10BD30B5028802F441530A884C8815
:10098000CD8822438C882C4322430C8922434C89F6
:1009900022438C892243CC8922431A430280828BD2
:1009A00022F400628283098A018230BD2DE9FF4171
:1009B00005460C46022000210126AA8B4FF2400377
:1009C0001A40AA8302222A84AF8BA268022A21D06D
:1009D000A08800B102266846FFF78CFE0098E188E7
:1009E000B1F5007F2CD07101B0FBF1F000EB80007D
:1009F000A1684000B0FBF1F0401D80B20A21B0FBBD
:100A0000F1F000F00101401AC0F34F004FF6FF7201
:100A100002EA0121821EFE2A01D302200021E2887F
:100A2000084302432A8420886188A2890843A18858
:100A300011430843384340F40060A883BDE8FF81B8
:100A4000000A00EB8000A1684000B0FBF1F0401DFF
:100A500080B2D3E70021018041808180C180018183
:100A600041818181C181072101827047002101807C
:100A700041808180C180022282608181704700298B
:100A800004D0018841F0400101807047018821F0C5
:100A9000400101807047002904D0818B41F48061BE
:100AA00081837047818B21F4806181837047028844
:100AB00022F40062028002880A4302807047B1F586
:100AC000804F04D0018821F4804101807047018863
:100AD00041F4804101807047A1F57E42FF3A04D085
:100AE000018841F4807101807047018821F4807190
:100AF00001807047002904D0818841F00401818081
:100B00007047818821F00401818070478089704797
:100B100081817047002904D0018841F4005101808F
:100B20007047018821F4005101807047018841F429
:100B3000805101807047012901D0008B7047808A65
:100B40007047008A7047002A03D082880A43828057
:100B5000704782888A4382807047090901238B404D
:100B600099B2002A03D082880A4382807047828823
:100B70008A43828070470246002012890A4200D0D0
:100B800001207047C9430181704730B502460020FB
:100B900001F00F03012505FA03F4A3B2090905FAD0
:100BA00001F4A4B29188214012891A4202D000298E
:100BB00000D0012030BD01F00F0201219140C94356
:100BC000018170470030014000380040003C004087
:100BD00010B501210846FFF737FE0021BDE810409F
:100BE0000120FFF731BE7A4900200860091D086026
:100BF000091D0860091D0860091D0860091D0860BD
:100C0000091D0860704773490860704771480068A3
:100C100000F4407070476F49002804D0486840F0E5
:100C2000010048607047486820F001004860704744
:100C300010B58A07120F0F23934021F00304654972
:100C400021448C689C438C608B68904003438B608C
:100C500010BD5F4A116821F44031014311607047B3
:100C600010B55B4B1A680243440302D522F00F0211
:100C70000A43040303D522F0F00242EA0112C4023F
:100C800003D522F4706242EA0122800203D522F4E5
:100C9000704040EA01321A6010BD4D4A121F00290F
:100CA00003D01168014311607047116881431160DE
:100CB0007047474A121F002903D011688143116011
:100CC0007047116801431160704710B5C20F20F0E2
:100CD00000403F4C241D231D002908D01AB1216873
:100CE0000143216010BD19680143196010BD1AB19C
:100CF00021688143216010BD19688143196010BDCE
:100D00003349091D002804D0086840F000400860FD
:100D10007047086820F000400860704710B52C4C00
:100D20000C34012812D0CB43022818D0241D0328EC
:100D300020D0042827D0241D05282FD0062837D0FE
:100D4000201D82B302688A43026010BD1AB1206878
:100D50008843206010BD20680843206010BD22B188
:100D6000206800EA0340206010BD206840EA01408E
:100D7000206010BD1AB120688843206010BD206833
:100D80000843206010BD22B1206800EA03402060C3
:100D900010BD206840EA0140206010BD22B12068EB
:100DA0008843206010BD0EE0206808432060F9E70A
:100DB00022B1206800EA03402060F3E7206840EA9F
:100DC00001402060EEE702680A430260EAE70000A3
:100DD000047C0040000001400748064901600749C3
:100DE0004160074981600749C160074901610749BE
:100DF00041617047B50E00081C020020910E0008EA
:100E00005D0F0008710F0008810F0008B10F000886
:100E100070B56B494A78824239D048700870694D84
:100E2000694CF8B1002000F017FF2868417841F0C4
:100E300080014170012001F01AFE012000F00CFF3A
:100E40002968002081F83C0081F83D0002223C31F5
:100E5000402001F0EAFD611CBDE870406F220120D6
:100E600001F00BBE002000F0F7FE2868417801F089
:100E70007F014170012001F0FAFD012000F0ECFE3D
:100E8000611CBDE870406F22012001F0F6BD70BD0D
:100E900010B5012001F093FD4C4C2068216881427F
:100EA000FCD0002001F08BFD20682168091A06297A
:100EB000FBD310BD10B5464943480860414908605E
:100EC00001F032FDFFF7E4FF3D4901200870FFF714
:100ED0009FFFBDE8104000F0EFBE39480078704732
:100EE00037490978002901D000F0B6BE00F072B889
:100EF00033480078002801D000F02EBF00F0F6B88B
:100F00002F480078002801D000F03DBF00F033B931
:100F10002B480078002801D000F02ABF00F020B94B
:100F200027480078002801D000F03EBF00F034B917
:100F300023480078002801D000F039BFFEE72048A0
:100F40000078002801D000F036BF00F028B91C4816
:100F50000078002800D0FEE700F025B91848007896
:100F6000002802D0012000F02ABF012000F01EB9A5
:100F7000134A1278002A01D000F026BF00F01BB9F6
:100F80000F4A1278002A01D000F026BF00F01CB9E9
:100F90000B480078002801D000F029BF00F049B9C3
:100FA00007490978002901D000F009BF00F0FEB818
:100FB00003480078002801D000F01CBF00F03CB9C5
:100FC000190000208800002034020020A00000202A
:100FD0003C00002070B504460020F74DE9694978CF
:100FE00021F0F80129728C4213D0032C00D101208A
:100FF000697A884202D0687201F088FDE869417818
:1010000001F0F80121434170BDE87040012001F07A
:101010002EBD70BDE848C1694231422001F050BD8B
:1010200070B5E54D00246C70FFF7F4FFE34E6F22BE
:10103000711C012001F021FDE86944702146012066
:1010400001F015FDE869802141722322027305F148
:101050003804627E012A46D00E22427308221030E4
:101060008275AA22C273FF2202709322C27569227E
:101070000276812242767E2282769622C276227E75
:1010800041EA021180F8201000F0CAFCE969A07E54
:1010900081F832006F22711C012001F0C6FC20682B
:1010A00000F0A8FA606800F0E5FAA06800F016FB0E
:1010B000012000F002FD94F90C0000F03FFBE8690C
:1010C00000212269123000F01EFCE86900216269EB
:1010D000133000F018FC6FF0050000F03AFDBDE899
:1010E0007040012076E71E224273B7E710B5B24C7C
:1010F0000120E169491C01F0E3FCE069407820F03F
:10110000F80010BD10B5AC4C02221D20E1691D3164
:1011100001F0B3FCE069817F407F41EA002004F0E8
:10112000D3FC0022A64B04F01FFDBDE8104004F0E4
:1011300057BC10B5A04C02221B20E1691B3101F005
:101140009CFCE069017FC07E41EA002004F0BCFC09
:1011500000229B4B04F008FDBDE8104004F040BCA9
:1011600010B5954C0C20E1690C3101F0A9FCE06947
:10117000007B400910BD10B58F4C1120E169113181
:1011800001F09EFCE069407C04F09EFCBDE810404C
:1011900000228C4B04F0E8BC8748C0797047864930
:1011A000D1E90C0170478448806A704782494870D1
:1011B00070470120FAE7804A53890B80002353814E
:1011C0000A88814903F008BB10B57B4CA1810A460F
:1011D00001467D4803F000FB0720607010BD30B56C
:1011E0007548C06990F8271001F007035B1C90F860
:1011F0003010CC0911F0060F01D0012200E00022CE
:1012000090F83200022505EAD10123441A44104423
:10121000084480B230BD6848C06925304178027802
:1012200041EA0221807800F00700401C084480B2A7
:1012300070476148407870472DE9F05F01265E4FA6
:10124000012438467A78C0695F4DDFF880814FF01D
:1012500000094FF0050A4FF0200B00F140010C2A65
:101260005BD2DFE802F05A065BA1FDFCFBFAF9F85D
:10127000F7F690F83020D20603D54C2280F84020B3
:1012800002E00C2280F84020E12280F84120022276
:10129000402001F0CAFB0520FFF79CFE4FF480714F
:1012A000494803F0DEFA44483830406804F00CFC4A
:1012B00004460D46FFF793FF04F006FC032204F0FA
:1012C000EFFF22462B4604F033FA0022404B04F095
:1012D0004BFC04F001F900223E4B04F06DF904F0E0
:1012E000AFFB80B200EB500038627862D8F80000A3
:1012F00038617861F869A02180F83510352001F057
:10130000B6FB87F8029087F8039087F8049087F877
:101310000590A7F80A900220787064E101F0EDFBD7
:10132000012805D1B87818B9BC70D8F800007861E8
:1013300001F0DAFB012814D1B87890B1F87880B9BF
:10134000FC70FFF718FFC7E90C01FFF7F2FEB86267
:10135000FFF706FFF871D8F80000386178610320C4
:101360007870B878F97888430ED0D8F80000796999
:10137000401A796A884207D97C70F869407B40F04E
:1013800020010D2001F073FBF878B9780843397912
:101390000843C2D1D8F800003969401A396A884236
:1013A000BBD987F801A01EE17889B0F5807F13D9F9
:1013B0000620787017E10000200000203402002091
:1013C00080844E400000E0BFA4020020A000002066
:1013D00000408F400000F03F01F081FB01282CD13C
:1013E0007889797908430CD1F86990F830100906AA
:1013F00004D501217D4801F069FB02E090F832003C
:101400007881798978790A1AF96991F8351001F0AB
:101410003F018A420BDD284401F058FBF8697979D5
:1014200090F8350000F03F000844787105E0D1B233
:10143000284401F04BFBB87A787101F04BFB01288E
:101440001CD1D8F8000038617989787951EA000216
:1014500007E0C5E0C0E092E06DE055E047E039E02C
:1014600033E04FF004090CD0091AC9B2284401F046
:101470002DFBB87A78713C7187F801903879D0B13A
:10148000B1E0F86990F83010090604D501215748F9
:1014900001F01CFB02E090F832007881B97A78798B
:1014A000091AC9B2284401F011FBB87A78713C716D
:1014B00087F80190E2E7D8F800003969401A396AE4
:1014C000884201D987F801A08DE087F805907C70EB
:1014D000022688E087F80590A7F80A90407B40F044
:1014E00020010D2001F0C3FA7C7003267BE087F811
:1014F0000590A7F80A90407B40F020010D2001F0F4
:10150000B6FA7C7006266EE080F8404080F841B064
:101510000222402001F089FAF869982180F83510FC
:10152000352001F0A4FA0320FFF754FD082078705D
:1015300087F8069057E001F0DCFA012853D1F869EA
:1015400090F83000000604D528480121801C01F0E5
:10155000B9FAB889411E3F2901D8387001E087F8EF
:1015600000B03978224801F0ADFAB87939780844EA
:10157000B871D8F80000B8610920787033E001F044
:10158000AEFA98B9B989B8790A1A39788A4207DD6A
:10159000284401F097FAB87939780844B87105E021
:1015A000D1B2284401F08EFA387BB87101F092FA7A
:1015B000012807D1D8F80000B8610A20787001200E
:1015C000FFF708FDD8F80000B969401AB0F57A7F36
:1015D00009D90B20787006E087F80190042602E014
:1015E00087F8019005263046BDE8F09F2A000020CC
:1015F000A402002010B5F849086004F065FA002242
:10160000F64B04F095F804F01BFAF549020C096852
:101610008A71020ACA7108720322891DBDE810404E
:10162000062001F002BA10B5ED4C03220620216815
:10163000891D01F022FA2168E74C8879CA790004F3
:10164000097A40EA0220084304F03EFA0022E34B04
:1016500004F08AFA04F0F4F9206010BD10B54321BB
:101660003B2001F004FADF4801680268521A082A98
:10167000FBD310BD10B5D849486004F025FA0246E6
:101680000B460020D84904F053F804F0D9F9D449A6
:10169000020A09688A70C8700222BDE81040891CDD
:1016A000104601F0C2B910B5CD4C02221046216897
:1016B000891C01F0E2F92068C74CC178807841EAC2
:1016C000002004F001FA02460B460020C64904F04F
:1016D0002FF804F0B5F980B2606010BD10B5BE49B6
:1016E000886004F0F1F90022BC4B04F021F804F00A
:1016F000A7F9BB49020A09680A7148710222091D4B
:10170000BDE81040042001F090B910B5B44C02229D
:1017100004202168091D01F0B0F92068AE4C417920
:10172000007941EA002004F0CFF90022AB4B04F02D
:101730001BFA04F085F980B2A06010BD70B50446B4
:10174000A74D09202968093101F0BAF929685A2002
:101750005A3101F0B5F92868417A0A0620D590F887
:101760005A20D24352070DD0022C00DA0224112C49
:1017700000DD1124A21E01F0F00102F00F0211435E
:1017800041721CE0052C00DA0524142C00DD142421
:10179000621F01F0F00102F00F02114341720EE0EE
:1017A0004FF0FF32944200DA14460E2C00DD0E2476
:1017B000621C01F0F00102F00F0211434172417A04
:1017C000092001F054F98448047370BD10B5844CAD
:1017D00009202168093101F073F921685A205A3132
:1017E00001F06EF921687C4A487A03060ED591F81B
:1017F0005A10C943490704D020F0F000801C107330
:1018000008E020F0F000401D107303E020F0F0002D
:10181000401E107392F90C0010BD70B506460846C4
:10182000801C04F051F902460B4600204FF0804125
:1018300003F066F904460D46304604F045F92246A9
:101840002B4604F091F902460B460020664903F04E
:101850006FFFBDE8704004F0F3B82DE9FF5F8A46E2
:1018600093464FF000090026604F04F02DF9CDE9B2
:1018700002104FF0100809F1020004F025F9CDE93B
:101880000010DDE9003200204FF0804103F038F90C
:1018900004460D46404604F017F922462B4604F054
:1018A00063F902460B4600204F4903F041FF04460E
:1018B0000D46DDE9021022462B4604F0E3FA21F042
:1018C000004132463B4604F013F90CD2DDE9021028
:1018D00022462B4604F0D6FA21F0004706468AF845
:1018E00000808BF8009008F1040808F0FF08B8F1B8
:1018F000180FC6D909F1010909F0FF09B9F1080F5C
:10190000B7D3BDE8FF9F7CB5044615460020019083
:101910000090334E32681232944204D1C1F3411028
:101920004001207000E020706A4601A92846FFF7B8
:1019300094FF9DF80400102804D014280AD0182819
:101940001BD111E09DF80010207801F00701084339
:10195000207012E09DF80010207801F0070141F09E
:1019600008010843207008E09DF80010207801F07D
:10197000070141F01001084320703068164E123004
:10198000844205D12178122001F071F835617CBDC7
:101990002178132001F06BF875617CBD10B5044609
:1019A00000202278C2F3C101002904D0012904D00B
:1019B000022905D103E0102002E0142000E01820E5
:1019C00002F00701FFF729FF05490A6802491232B0
:1019D00094420DD1086110BD5800002080844E4013
:1019E0003C000020A000002080847E41D012634192
:1019F0004861F0E770B50446944D302029683031D5
:101A000001F05EF82A6812F8300F00F0EF0040EAAB
:101A100004111170302001F02AF88D48047670BD51
:101A200010B58A4C30202168303101F049F8206827
:101A3000874990F83000C0F300100876CBE770B506
:101A40000446824D0D2029680D3101F039F82A68CD
:101A5000507B00F0EF0040EA041151730D2001F0BB
:101A600006F87B48447670BD10B5784C0D2021688F
:101A70000D3101F025F820687549407BC0F3001056
:101A80004876A8E710B5044670492046096881F8F1
:101A900032400146322000F0EAFF6D4884769AE732
:101AA00010B56A4C32202168323101F009F8206803
:101AB000674990F8320088768DE770B50546634C2B
:101AC0005A2021685A3100F0FBFF25B12168872098
:101AD00081F85A0003E02168842081F85A002068C8
:101AE00090F85A10BDE870405A2000F0C0BF10B501
:101AF000564C5A2021685A3100F0E2FF206890F8D5
:101B00005A00C043400701D0002064E7012062E78B
:101B100070B505464D4C0A2021680A3100F0D0FF0F
:101B2000226825F0F000917A01F0F00101439172F2
:101B3000BDE870400A2000F09ABF10B5434C0A205F
:101B400021680A3100F0BCFF2068807A20F0F000A4
:101B500041E770B504463D4D0E2029680E3100F076
:101B6000AFFF002C03DA1F20A043401C444228682A
:101B700004F01F02817B41EAC2018173BDE870401D
:101B80000E2000F074BF10B5304C0E2021680E31CD
:101B900000F096FF2068807BC008C10603D51F2196
:101BA0008143491C484216E770B5284C3B20216808
:101BB0003B3100F085FF206810F83B1F01F0FE016B
:101BC00001703B2000F053FF21680120491C00F008
:101BD00077FF2068457804214170012000F047FF1D
:101BE0001C48026803689B1A022BFBD321683B2028
:101BF0003B3100F065FF206810F83B1F41F0010108
:101C000001703B2000F033FF21683C203C3100F0A4
:101C100057FF206890F83C0000F07F04000601D5D3
:101C2000604244B22946012000F021FF204670BDE9
:101C300010B50446FFF7B8FF201A40B2CBE610B546
:101C40000446FFF7B1FF204440B2C4E63C00002048
:101C500058000020A000002070B504460020FB4D75
:101C60002969497821F0F801A9708C4213D0032C1E
:101C700000D10120E978884202D0E87000F046FFE8
:101C80002869417801F0F80121434170BDE87040B6
:101C9000012000F0ECBE70BD10B5EC4C4321206972
:101CA00080F82F10312000F0E2FE2169BDE81040DD
:101CB0003E31422000F004BF70B5E44C002020709B
:101CC000FFF7EAFFE24D6F22691C012000F0D5FE0C
:101CD000206980214172232101736F22691C012038
:101CE00000F0A3FEDB4C206800F0A6FA012000F013
:101CF0008AFC94F9040000F0D3FAA07900F074FB98
:101D0000E07900F0A2FB207A00F0C4FB607900F0DB
:101D100036FB607A00F006FC40F2FF3000F0E5FC94
:101D2000207E00F055FC012000F009FDBDE8704068
:101D3000012091E710B5012000F041FEC64C20685B
:101D400021688142FCD0002000F039FE2068216823
:101D5000091A0629FBD310BD10B5BC4C012021691E
:101D6000491C00F0ADFE2069407820F0F80010BD5D
:101D700010B5B64C0C2021690C3100F0A1FE206991
:101D8000007B400910BD10B5B04C1B2021691B31F0
:101D900000F096FE2069C07E03F096FEBDE810407C
:101DA0000022AE4B03F008BCA84840787047A74813
:101DB00090F904007047A549D1E906017047A3498D
:101DC000087070470120FAE7A04BDA880A800021EA
:101DD000D980A34902F000BD10B59C4C21810A4670
:101DE00001469F4802F0F8FC0520207010BD97487E
:101DF000007870472DE9F84F0124944FDFF864A272
:101E0000DFF854B23878934E0025A0464FF002090F
:101E10000B283FD2DFE800F03E06549CFDFCFBFAA5
:101E20003EF9F8000120FFF717FF38699D21417442
:101E3000112000F01CFEF07A01282CD03969FF2017
:101E400081F82400386990F82410242000F00FFE57
:101E5000396981F83C5081F83D5002223C314020E4
:101E600000F0E3FDB07A012826D03869C17B4173C8
:101E70000D2000F0FCFD0520FFF7EEFE4FF4807111
:101E8000774802F0EEFC70697861DBF80000F860DA
:101E900087F80090C3E13969307B81F824001C3158
:101EA0001C2000F00DFE3869007F00F03F005AF85A
:101EB000200000F0C1F9C5E70620FFF7CDFEDDE701
:101EC00000F008FE012818D1DBF80000F860F07A75
:101ED00001280CD139691C201C3100F0F1FD386952
:101EE000007F00F03F005AF8200000F0A5F94021E3
:101EF000122000F0BCFD0320387000F0F5FD012831
:101F000019D1DBF80000F860F07A01280CD13969AA
:101F10001C201C3100F0D4FD3869007F00F03F0028
:101F20005AF8200000F088F90221122000F09FFDED
:101F3000FFF71EFF7870B07A0128ABD1DBF8000004
:101F4000F968401A79698842A4D90420387066E19A
:101F500039691220123100F0B3FD3869807C8006A7
:101F60000CD52021122000F082FDB07A012802D089
:101F700087F8009053E187F8008050E16946192006
:101F800000F09EFD9DF80000010606D5C043401CF0
:101F9000C0F385004042387101E08008387139692A
:101FA0001A201A3100F08CFD97F90400DFF8ACA07C
:101FB000002812DA03F071FD044638690D46807E70
:101FC00003F082FD0022534603F0F6FA22462B4628
:101FD00003F0F2FAC7E906010DE03869807E03F0EC
:101FE00073FD214A214B03F0BFFD0022534603F04D
:101FF000E3FAC7E90601B07A012839D0396910201F
:10200000103100F05DFD05E0FBE0E1E0DAE0B6E074
:1020100062E05DE0707A012847D0396913201331FE
:1020200000F04EFD3869C17CF980017C41730D20C0
:1020300000F01DFD3869C17C094800F047FDB07A09
:10204000012842D087F800900224E8E078000020C0
:1020500034020020D4000020A0000020006061C0F5
:10206000A40300202C6300081B9E5E29CB10F13FC7
:102070003869C17B41730D2000F0F9FC707A0128AA
:102080000BD039691320133100F01AFD3869C17C77
:10209000F980684800F01AFDD1E7386990F82210FD
:1020A000F980644800F012FDC9E7386990F8221001
:1020B000F980017C41730D2000F0D9FC386990F85B
:1020C00022105C4800F002FDB9E787F80080BBE70A
:1020D00087F800800324A2E00120FFF7BDFDF07A1D
:1020E000012839D03869F721417480F824503869C3
:1020F00090F82410242000F0BAFC3869417C1120AB
:1021000000F0B5FC3869397A80F82210222000F0FE
:10211000AEFC3869294685730E2000F0A8FC3869AA
:10212000817B41730D2000F0A2FC386990F82210E9
:10213000404800F0C7FC3969412081F83C0040204C
:1021400081F83D0002223C3100F06FFC0320FFF7D4
:1021500083FD0620387062E03969F5204874307BD1
:1021600081F824001C311C2000F0AAFC3869007F93
:1021700000F03F005AF8200000F05EF8B7E700F0EA
:10218000A9FC012805D10821122000F070FC0720CD
:10219000387000F0A9FC012841D1F07A01280CD157
:1021A00039691C201C3100F08BFC3869007F00F07D
:1021B0003F005AF8200000F03FF80221122000F002
:1021C00056FC2CE00120FFF747FD3D70042426E07B
:1021D0000120FFF741FD3869FA214174112000F018
:1021E00046FC396981F83C5081F83D5002223C316F
:1021F000402000F01AFC0720FFF72EFD0A2038705F
:102200000DE000F076FC012809D10421122000F035
:102210002EFC00F072FC012804D03D7007242046FB
:10222000BDE8F88F0121122000F021FC87F8008022
:102230000824F4E7A403002010B5FA49086003F06D
:1022400043FC0022F84B03F073FA03F0F9FBF74963
:10225000020C09688A71020ACA7108720322891D78
:10226000BDE81040062000F0E0BB10B5EF4C0322A3
:1022700006202168891D00F000FC2168E94C88795E
:10228000CA790004097A40EA0220084303F01CFCE2
:102290000022E54B03F068FC03F0D2FB206010BD88
:1022A00070B50446E14D09202968093100F008FCA9
:1022B00029685A20563100F003FC2868417A0A0642
:1022C00020D590F85620D24352070DD0022C00DAC8
:1022D0000224112C00DD1124A21E01F0F00102F0F5
:1022E0000F02114341721CE0052C00DA0524142C66
:1022F00000DD1424621F01F0F00102F00F0211430F
:1023000041720EE04FF0FF32944200DA14460E2C78
:1023100000DD0E24621C01F0F00102F00F021143F7
:102320004172417A092000F0A2FBBE48047170BDE1
:1023300010B5BE4C09202168093100F0C1FB2168AD
:102340005A20563100F0BCFB2168B64A487A030691
:102350000ED591F85610C943490704D020F0F0007B
:10236000801C107108E020F0F000401D107103E0A7
:1023700020F0F000401E107192F9040010BD70B5FD
:102380000446AA4D1D2029681D3100F099FB2A68DA
:10239000507F64F39F10C1B251771D2000F067FB9E
:1023A000A048447170BD10B5A04C1D2021681D319E
:1023B00000F086FB20689B49407F8009487110BD72
:1023C00070B50546994C312021682F3100F078FB1B
:1023D000226812F82F1F01F0F80129431170BDE89F
:1023E0007040312000F043BB70B504460C2C01D97D
:1023F0000C2402E0062C00D20624062C14D0032064
:10240000FFF7DEFF894D1E2029681E3100F058FBC2
:102410002868817F64F31F11C9B281771E2000F004
:1024200026FB8048847170BD0520FFF7C9FFE9E7EE
:1024300010B57E4C1E2021681E3100F041FB206843
:102440007849807F0009887110BD70B50446774DCA
:102450001D2029681D3100F033FB2A68507F00F0F1
:10246000C70040EAC400C1B251771D2000F0FFFA56
:102470006C48C47170BD10B56C4C1D2021681D31B5
:1024800000F01EFB20686749407F20F0C700C008AD
:10249000C87110BD70B50446644D1D2029681D31FA
:1024A00000F00EFB2A68507F00F0FD0040EA440176
:1024B00051771D2000F0DBFA5A48047270BD70B5E8
:1024C00004465A4D022220202968203100F0D5FA16
:1024D0002968200A81F8200081F82140BDE8704079
:1024E00002222031202000F0A0BA10B54F4C022269
:1024F00020202168203100F0C0FA20682030417887
:10250000007841EA002010BD10B5484C1D2021681C
:102510001D3100F0D5FA20684249407FC0F34000E9
:10252000087210BD70B50446404D1D2029681D314C
:1025300000F0C6FA2A68507F00F0FB0040EA8401F0
:1025400051771D2000F093FA3648447270BD10B5E3
:10255000364C1D2021681D3100F0B2FA2068314947
:10256000407FC0F38000487210BD2E4988727047CA
:102570002C48807A70472B49C87270472948C07A26
:10258000704710B5044629492046096881F824405F
:102590000146242000F06BFA2248047310BD10B5E8
:1025A000224C24202168243100F08AFA20681D4939
:1025B00090F82400087310BD1A4908617047194843
:1025C000006970471749486170471648406970476D
:1025D00010B5044615492046096881F82240014695
:1025E000222000F044FA0F48047610BD10B50F4CBD
:1025F00022202168223100F063FA2068094990F80E
:102600002200087610BD70B50546084C5A20216896
:10261000563100F055FA5DB12168872081F85600E7
:102620000AE00000D400002080844E408800002092
:102630002168842081F85600206890F85610BDE883
:1026400070405A2000F013BA10B5534C5A2021683C
:10265000563100F035FA206890F85600C043400724
:1026600001D0002010BD012010BD70B505464A4CB8
:1026700009202168093100F023FA2268517A01F01B
:102680007F0129435172BDE87040092000F0EFB985
:1026900010B5414C09202168093100F011FA206879
:1026A000407A20F07F0010BD70B505463A4C0A20F4
:1026B00021680A3100F004FA226825F0F000917ACE
:1026C00001F0F00101439172BDE870400A2000F072
:1026D000CEB910B5304C0A2021680A3100F0F0F96B
:1026E0002068807A20F0F00010BD70B504462A4DB5
:1026F00002221E2029681E3100F0BFF9296803223A
:1027000002EA1422887F00F0FC0010438877CC771F
:10271000BDE8704002221E311E2000F086B910B5BF
:102720001D4C02221E2021681E3100F0A6F92068EF
:10273000C17F807F20F0FC0041EA002010BD70B511
:102740000546154C1D2021681D3100F0B9F922689D
:10275000517F01F0FE0129435177BDE870401D20F3
:1027600000F085B910B50C4C1D2021681D3100F01A
:10277000A7F92068407F00F0010010BD10B5064C9D
:10278000312021682F3100F09BF9206890F82F004C
:1027900000F0070010BD0000880000207CB5044652
:1027A0001E48012150F82400FEF71EF801208DF884
:1027B000040002208DF80500184E361F36F814006C
:1027C0000090174D694655F82400FDF751FE36F884
:1027D000141055F824000022FDF7B3FE7CBD0F490C
:1027E0000F4A091F31F8101052F820000122FDF79E
:1027F000A8BE0A490A4A091F31F8101052F82000F1
:102800000022FDF79EBE064951F820108A8A034B2C
:102810001B1F33F8100042408A827047FC63000897
:102820009800002070B588B001210220FDF7DCFF80
:1028300001218D032846FDF7EFFF01A8FDF755FEA6
:102840006910019102218DF808108DF809100024FB
:102850008DF80A4001218DF80B10294E01A9304650
:10286000FDF706FE019501A93046FDF701FE68005F
:10287000019001A93046FDF7FBFD05220D213046F0
:10288000FDF76BFE05220E213046FDF766FE0522A0
:102890000F213046FDF761FEADF80C404FF4827019
:1028A000ADF80E00ADF81040ADF81240ADF8144090
:1028B0006811ADF816001020ADF81800ADF81A40F8
:1028C0000720ADF81C000F4C03A92046FEF752F874
:1028D00001212046FEF7D3F808B070BD10B5094CB1
:1028E00001462046FEF714F901212046FEF743F980
:1028F0000028F9D02046FEF709F9C0B210BD00004B
:1029000000040240003800407047FEE7FEE7FEE7A3
:10291000FEE770477047704702480168491C016034
:1029200070470000A00000202DE9FC410121072094
:10293000FDF75AFF01258DF8045002208DF805009F
:10294000C402794E012221463046FDF7FAFD00947B
:1029500069463046FDF78CFD641000222146304662
:10296000FDF7EFFD009469463046FDF781FD00203C
:102970008DF80400641000946C4F69463846FDF7EA
:1029800077FD6110009169463846FDF771FDE00062
:10299000009069466648FDF76BFD00956946304634
:1029A000FDF766FD1020009069463046FDF760FD9A
:1029B000009469463046FDF75BFDBDE8FC817CB5BF
:1029C0000424594B022501280AD000208DF8040068
:1029D0008DF80550009469461846FDF749FD7CBD09
:1029E0001E46012204213046FDF7ABFD01218DF882
:1029F00004108DF80550009469463046FDF738FD07
:102A00007CBD1CB5484C012204212046FDF799FDF0
:102A100001218DF8041002218DF805100421009188
:102A200069462046FDF724FD1CBD2DE9F041044612
:102A30000D461646DFF8F0804FF4805700223946E5
:102A40004046FDF77EFD44F08000FFF747FF00247D
:102A500004E0285DFFF742FF641CE4B2B442F8D3FF
:102A600039464046BDE8F0410122FDF76ABD13B585
:102A7000012201A9FFF7D9FF1CBD2DE9F041044651
:102A80000D461646DFF8A0804FF4805700223946E5
:102A90004046FDF756FD04F07F00FFF71FFF0024BE
:102AA00005E00020FFF71AFF2855641CE4B2B44289
:102AB000F7D339464046BDE8F0410122FDF741BD5C
:102AC0000122DAE70A4601460020AEE70A4601463F
:102AD0000020D2E74FF480611448FDF71CBD4FF48D
:102AE00000711248FDF717BD4FF400511048FDF773
:102AF00012BD01210C48FDF70EBD10210A48FDF75B
:102B00000ABD4FF480610848FDF705BD064B4FF440
:102B10000061002803D001221846FDF712BD0022F3
:102B20001846FDF70EBD0000000402400000024000
:102B30000008024008490A680B689B1A8342FBD3CD
:102B400070474FF47A71484303490A680B689B1A2F
:102B50008342FBD370470000A000002010B51C4842
:102B60004FF47A710068B0FBF1F0B0F1807F01D3CF
:102B700001200DE020F07F414FF0E020491E41612F
:102B8000144AF021117000218161072101610020A8
:102B900000B1FEE7FFF746FE0020FFF7FFFD012032
:102BA000FFF7FCFD0020FFF71AFE0120FFF717FEDC
:102BB0004FF4FA742046FFF7BDFF0020FFF719FE1F
:102BC0000120FFF716FE2046BDE81040FFF7B2BF18
:102BD000A400002023ED00E00CB500220192009239
:102BE0006449086840F4803008604FF4A0630868C6
:102BF00000F4003000900198401C0190009810B93A
:102C000001989842F3D10868800302D50120009012
:102C100000E00092009801283CD15748026842F039
:102C200004020260026842F002020260026842F09E
:102C3000010202604F482430026842F08052026074
:102C4000C2144E4802604268D206FCD4494808309B
:102C5000026802600268026002680260026822F490
:102C60007D020260026842F4090202600A6842F0D2
:102C700080720A600A689201FCD5016821F00301A4
:102C80000160016841F0030101600168C1F3810145
:102C90000329FAD10CBD10B53648016841F48071A2
:102CA0000160344908310A68354B1A400A600268ED
:102CB000344B1A400260026822F4802202600868E5
:102CC00020F47D000860091D00200860FFF784FFE4
:102CD0002D494FF00060086010BD30B5254B08331A
:102CE000186800F00C001A1F28494FF4004400280F
:102CF00016D0274D04281AD008281AD00C281AD02C
:102D00001068C0F34230401C84400C6018681F4AB1
:102D1000C0F303100D32105C0A68C2400A6030BD77
:102D20001068C0F34230401C84400C60EEE70D6038
:102D3000ECE70D60EAE7186800F470101A6802F416
:102D40004002124C241D04EB90400078012404EB57
:102D500092521C6804F480342CB10D4C6043B0FBDB
:102D6000F2F00860D2E70A4C6043B0FBF2F0086072
:102D7000CCE7000000380240003C024000700040F8
:102D80000CC0FF88FEFFFEEE08ED00E0A40000206E
:102D90000024F4000948804709480047FEE7FEE7A1
:102DA000FEE7FEE7FEE7FEE7FEE7FEE7FEE7FEE7FB
:102DB00004480549054A064B70470000972C000857
:102DC00025010008C0050020C0270020C007002002
:102DD000C007002010B50120FFF701FD4FF49670E9
:102DE000FFF7A8FEBDE810400120FFF702BD10B5B7
:102DF0000020FFF7F4FC4FF49670FFF79BFEBDE850
:102E000010400020FFF7F5BC0024FFF7A7FEFFF7F6
:102E1000E1FFFFF7ECFFFDF7DFFF264DA86000683C
:102E20008047A86880688047234E244FA86840697F
:102E30008047022815D004282AD030680528F5D10B
:102E4000002CF3D138680028F0D0386881B2A86827
:102E500002691B48904701F0F6F900203860012410
:102E6000E4E7A8681349C26816489047288848B123
:102E70003168052906D16968012903D1C1B2114819
:102E800001F0CBF9FFF7A6FFA86880688047CDE77F
:102E9000FFF7ADFFA868806880470024C6E701F00F
:102EA0003BF901F04EF901F060F900F039FCFFF751
:102EB000ABFF0000C40000200C0200203001002005
:102EC00000050020A404002010B5FA4C002806D00C
:102ED000F94800680068804720680A3010BD216802
:102EE00001200882002010BD10B5F248F34A0068A6
:102EF0005278C178914203D882780AB982880AB19F
:102F0000022010BD8172EC480068406880470020B4
:102F100010BD10B5E74C002806D0E748006880686F
:102F2000804720680C3010BD2168012008820020F5
:102F300010BD10B5DF4CE24A20681268C178926972
:102F40004079904721688A7A8AB118B9087908B916
:102F5000887808B1022010BDD7480068C068804753
:102F600020684179C172C1780173002010BD022030
:102F700010BD10B5CF49002809680DD0D1480022F6
:102F800002800A7853060BD002F07F02012A1FD07C
:102F9000022A1FD0002010BD02200882002010BD90
:102FA000497A8A0604D5027842F00202027003E0F0
:102FB000027802F0FD020270490604D5017841F062
:102FC0000101017025E0017801F0FE01017020E0AF
:102FD000BC4810BD4A7902F00F011306BA4A0CD55D
:102FE00002EB8101D1F8001CC1F30111012910D1BC
:102FF000017841F0010101700BE002EB8101D1F891
:10300000001CC1F30131012903D1017841F0010114
:103010000170A948006800698047AA4810BD2DE9E1
:10302000F041A4480068017801F07F01002904D034
:10303000022908D00220BDE8F081417A01F0DF01C9
:1030400041720020F7E7418809B9017909B10220EE
:10305000F1E79A4B417921F080049B4E0A0607D58F
:1030600006EB8402D2F8002CC2F30112120106E032
:1030700006EB8402D2F8002CC2F3013212031D7851
:10308000A5420DD962B1807A50B1080612D506EB7F
:103090008400D0F8000CC0F30110012802D024E015
:1030A0000220C8E7E0B200F0FDFDE0B2302100F000
:1030B000CCFC1AE006EB8405D5F8000CC0F3013017
:1030C000012812D14BF68F7848F280079CB1E0B20C
:1030D00000F0D6FDD5F8000C00EA080080F480501E
:1030E00080F400503843C5F8000C7348006840690C
:1030F000804700209FE7754890F82C10002000F0D2
:1031000051FED6F8000C00EA080080F4805080F4EC
:1031100000503843C6F8000CE7E770B56548026810
:10312000517921F08004684B21F080000D0603EBFB
:10313000800005D5D0F8003CC3F301131B0104E067
:10314000D0F8003CC3F301331B035C4D2D78A5423E
:1031500013D954888CB983B1927A72B1090648F2B6
:1031600080020CD5D0F8001C48F6BF73194081F0DE
:1031700010011143C0F8001C0BE0022070BDD0F814
:10318000001C4BF68F73194081F480511143C0F835
:10319000001C4948006880698047002070BD10B558
:1031A00044480068417A41F0200141724248006879
:1031B000C0698047002010BD3E4A13685A8A002823
:1031C00002D00868104470478888801A188200204E
:1031D00070472DE9F041374E346810342088A168DB
:1031E000002915D0A0B1A588854200D90546A8B20E
:1031F000884707462088401B2080608828446080DC
:10320000002000F09CFD0146AAB2384600F0C1FB48
:1032100020882F4F302538B12E4928020880002100
:10322000084600F098FD3D802088A188884203D39D
:10323000316803200872FEE618B131680520087273
:10324000F9E6316806200872234800210068234A05
:1032500080B2801C42F810103D80ECE62DE9F0476A
:10326000DFF85080D8F8001001F1100528880E7A98
:10327000174F4FF03009002801D1042E04D0AC883C
:10328000A0422DD804262CE00E48801E017801298A
:1032900003D007261020388042E00F4A0021126830
:1032A0000E4B92B2921C43F81210A7F800900170D6
:1032B00036E00000F800002000010020E4010020BA
:1032C000FC000020F200002000500040940100208B
:1032D0000801002006010020505C00400060004012
:1032E0000226844200D90446A968A0B288478246D3
:1032F000002000F019FD0146A2B2504600F036FB56
:10330000A1B2002000F027FD2888001B28806888D3
:1033100020446880A7F80090F6494FF44050088098
:10332000D8F800000672BDE8F08770B50220F24DB3
:1033300029684C780A78530606D002F07F010129EB
:103340002ED0022931D03AE0092C06D0052C07D026
:10335000032C12D0012C18D031E0FFF7C5FD2EE070
:10336000C8787F2805D8887818B9888808B9887AF5
:1033700008B108203CE0002021E0CA78012A1ED1D3
:103380008988E1B9FFF70BFF19E0CA78012A16D145
:103390008A88A2B9497A890611D5FFF740FE0EE066
:1033A0000B2C0CD1FFF7C5FD09E0012C02D0032C3A
:1033B00003D004E0FFF733FE01E0FFF7AEFE30B1CB
:1033C000CE49E0B2096849698847032802D018B19C
:1033D00008200DE009200BE00620C94900220968F9
:1033E000C84B89B2891C43F81120C74A302111808B
:1033F0002968087270BD2DE9F843BF4E30684278E5
:103400000024BE4D062A296801D08AB117E002784F
:1034100052066ED18078012804D0022804D00328F7
:1034200004D066E0CC6964E00C6A62E04C6A60E05B
:10343000438823B9C388022B01D1037923B1082A19
:103440003CD00A2A40D054E00278530601D1838848
:1034500033B102F07F02012A05D0022A0ED048E0E3
:10346000AFF2F14445E08A6940790021904720BBE2
:103470003068807A08B3AFF205543AE0417901F040
:103480000F0001F070020B06A04907D501EB800187
:10349000D1F8001CC1F30111090106E001EB800124
:1034A000D1F8001CC1F301310903994B1B78834209
:1034B0001FD912B909B1AFF245541AE0007840069D
:1034C00017D1AFF2FB5414E0027802F07F02012A18
:1034D0000FD1827A6AB142885AB902794AB9C28850
:1034E000012A06D18A6940790021904708B9AFF2D4
:1034F000DD5409274FF000083CB13068A0F8128075
:1035000084610020A047002006E02968306809692E
:1035100040788847032816D031680A8AA2F57F438D
:10352000FF3B0DD0022811D082B10878000629D5C2
:10353000C8880090009882420CD9009808821AE04E
:103540000F72BDE8F88330680772FAE74FF00800A1
:103550000872F6E70FD228686E4B90F82C00824272
:1035600002D283F8008006E0B2FBF0F400FB1420E6
:1035700008B901201870286890F82C008882BDE8EE
:10358000F8436BE6032008725A4900030880D8E725
:1035900010B5614890F82C10002000F003FC56484C
:1035A0000068007A082805D1524A41021180564A23
:1035B00010211180092801D0002010BD012010BD6C
:1035C00038B54F48006880B2001D41004D48095A87
:1035D00089B200EB41040094474D2868017A09291B
:1035E00013D0217801706178241D4170208800F08B
:1035F00052FD29684880A088A41D00F04CFD296870
:103600008880A41C00942088C88028680121017249
:10361000C08820B1FFF7EFFEBDE83840B8E7FFF7FC
:1036200084FEF9E7F0B53A490E780021374F48F6A5
:103630008F7C48F280050BE0CBB207EB8302D2F817
:10364000004C04EA0C041C432C43C2F8004C491CF7
:10365000B142F1D32A4940F08000091F0860F0BD53
:1036600010B5254C2068017A022909D0042907D019
:1036700006290AD0082021680872BDE8104087E7B3
:10368000FFF7ECFD2068007AF5E74178052909D1BC
:103690000178490606D1C078FFF7C4FF1F480068CB
:1036A000006A804715480068806880470820E2E784
:1036B00010B5114C2068007A02280DD004280BD0D8
:1036C00003280BD0052809D007280CD00820216832
:1036D0000872BDE810405BE70820F8E7FFF779FDC6
:1036E0002068007AF3E705480068C0688047082032
:1036F000EDE7704706010020F8000020FC000020E4
:10370000505C004000600040080100200050004074
:10371000E4010020F00000209401002000010020BE
:103720000649054808600222027205484860054AB9
:103730008A60006800470000E4040020F8000020D0
:1037400094010020E80100202DE9F84F00200090AE
:103750004BF6BF7748F280087D4E7E4D40F68F7A5B
:10376000DFF8F49148F60F7B7C4C2CE0088800F0E1
:103770000F0089F8000078B304EB8001D1F8002C29
:103780000092BDF8002012040AD5D1F8002C02EAFC
:103790000A02C1F8002C7249401E51F820008047EF
:1037A000BDF8000000060ED599F8000004EB80017A
:1037B000D1F8002C02EA0B02C1F8002C6949401E26
:1037C00051F820008047624844300068664908800C
:1037D0000004CBD4BDE8F88FFFE730682880288844
:1037E00000F030006880288800F44050288030685D
:1037F000384080F4005080F0200040EA080030603B
:103800000888C00620D4306800EA0B003060FFF75B
:1038100027FF306838402988C90401D580F48050DA
:103820002988890401D580F400506988C90601D52A
:1038300080F010006988890601D580F0200080B2F0
:1038400040EA08003060C5E730680090BDF800002D
:10385000000520D5306800EA0A003060FFF7B0FEAE
:10386000306838402988C90401D580F480502988FF
:10387000890401D580F400506988C90601D580F01B
:1038800010006988890601D580F0200080B240EAE6
:10389000080030609EE7BDF80000000493D5306852
:1038A00000EA0A003060FFF703FF306838402988DB
:1038B000C90401D580F480502988890401D580F499
:1038C00000506988C90601D580F010006988890612
:1038D00001D580F0200080B240EA0800306079E72E
:1038E0002DE9F0411A4C1C4E1C4F44341E4D28E06B
:1038F00047F6FF702060288800F00F01317007EB59
:103900008100D0F8002C92B213040CD5D0F8002C12
:1039100040F68F731A40C0F8002C1148491E50F829
:10392000210080470DE012060BD5D0F8002C48F698
:103930000F731A40C0F8002C0A48491E50F82100A5
:103940008047206828800004D2D4BDE8F0810000C0
:10395000005C004006010020F40000200050004000
:103960005C010020400100203601002010B5521CEF
:1039700052080F4B03EB4101002A09D00378447829
:10398000801C43EA042321F8043B521E002AF5D18F
:1039900010BD521C5208064B03EB4101002A06D011
:1039A00031F8043B20F8023B521E002AF8D1704740
:1039B00000600040F84908607047F748006880B22E
:1039C0007047F549091D08607047F348001D0068FD
:1039D00080B27047F0480830006880B27047EE4906
:1039E0000C3108607047EC480C30006880B27047BA
:1039F000E94920F00700103108607047E6481030B0
:103A0000006880B27047E54A02EB8000C0F8001CF5
:103A10007047E24901EB8000D0F8000C80B270479B
:103A20008200DE481044D0F8002C48F68F131A406C
:103A30000A43C0F8002C7047D84901EB8000D0F849
:103A4000000CC0F34120400270478200D34802447A
:103A5000D2F8000C48F6BF731840CB0601D580F0B1
:103A60001000890601D580F0200048F2800108434B
:103A7000C2F8000C70478200C8480244D2F8000C1B
:103A80004BF68F731840CB0401D580F48050890425
:103A900001D580F4005048F280010843C2F8000CC0
:103AA000704700B502460B461046FFF7B2FF910083
:103AB000BA4A012B0A4406D0022B03D120F0100091
:103AC000C2F8000C00BD20F48050C2F8000C00BD0C
:103AD000B24901EB8000D0F8000CC0F301100001E6
:103AE0007047AE4901EB8000D0F8000CC0F3013004
:103AF000000370478100A9480844D0F8001C48F62C
:103B0000BF72114081F0100181F0200148F2800263
:103B10001143C0F8001C70478100A0480844D0F849
:103B2000001C4BF68F72114081F4805181F40051DA
:103B300048F280021143C0F8001C7047810097488A
:103B40000844D0F8001C48F68F7241F4807111408F
:103B500048F280021143C0F8001C704781008F4872
:103B60000844D0F8001C48F68F62114048F28002E9
:103B70001143C0F8001C7047810088480844D0F801
:103B8000001C48F68F62114048F280021143C0F8D1
:103B9000001C7047810081480844D0F8001C48F69A
:103BA0008F7241F48071114048F280021143C0F8D5
:103BB000001C7047810079480844D0F8001C48F682
:103BC0008F7241F48071114048F280021143C0F8B5
:103BD000001C7047810071480844D0F8001C48F66A
:103BE0008F62114048F280021143C0F8001C7047F8
:103BF0006A4901EB8000D0F8000CC0F301100128E5
:103C000000D000207047654901EB8000D0F8000C1F
:103C1000C0F30130012800D00020704781005F48C8
:103C20000844D0F8001C40F68F721140C0F8001C08
:103C30007047810059480844D0F8001C48F60F72BC
:103C40001140C0F8001C7047810054480844D0F867
:103C5000001C48F68F7211404CF280021143C0F8EC
:103C6000001C704781004D480844D0F8001C48F6FD
:103C70008F72114048F2C0021143C0F8001C704717
:103C8000810046480844D0F8001C490409D5D0F802
:103C9000001C48F68F7211404CF280021143C0F8AC
:103CA000001C704781003D480844D0F8001C4906BC
:103CB00009D5D0F8001C48F68F72114048F2C002B6
:103CC0001143C0F8001C7047820034481044D0F8FB
:103CD000002C48F68F731A400A4348F280010A43C9
:103CE000C0F8002C70472D4901EB8000D0F8000C83
:103CF00000F00F007047284A21F0010110321268CD
:103D000092B202EBC000264A42F810107047224AD5
:103D100021F001011032126892B202EBC000204A79
:103D2000001D42F8101070471B491031096889B214
:103D300001EBC0001A4931F8100080B270471649F3
:103D40001031096889B201EBC0001549001D31F836
:103D5000100080B27047104A1032126892B202EB23
:103D6000C0000F4A801C42F8101070473E290AD943
:103D70004A09C90601D1521E92B24FF4004141EAEC
:103D80008221016070474A08C90701D0521C92B2D3
:103D90009102016070470000405C0040005000400C
:103DA00000600040BE4A126892B202EBC000BD4AF9
:103DB000801D02EB40023E290AD94809C90601D1FB
:103DC000401E80B24FF4004141EA80201060E1E7DC
:103DD0004808C90701D0401C80B280021060D9E7B2
:103DE000AF49096889B201EBC000AE49801C31F8C7
:103DF0001000C0F30900CDE7A949096889B201EBB9
:103E0000C000A849801D31F81000C0F30900C1E7C7
:103E100030B521F00104A2490B689BB203EBC0034B
:103E20005D00A04BEC50096822F0010289B201EB61
:103E3000C000001D43F8102030BD994A21F0010157
:103E4000126892B202EBC000964A42F81010A1E745
:103E5000934A21F00101126892B202EBC000914A2C
:103E6000001D42F8101095E78D49096889B201EBF1
:103E7000C0008C4931F8100080B28BE7884909688E
:103E800089B201EBC0008749001D31F8100080B2F3
:103E900080E72DE9F04F530954085D1E661CDFF8DA
:103EA0000082DFF800A24FF40049012902D0022964
:103EB0001DD024E0D8F80070BFB207EBC007BF1CCC
:103EC0000AEB470C3E2A09D91F465FEAC26B00D1B4
:103ED000AFB249EA8727CCF8007010E027465FEAC6
:103EE000C27B00D0B7B2BF02CCF8007007E0D8F8B0
:103EF0000070BFB207EBC007BF1C4AF817200129AA
:103F00000BD0022907D1D8F8001089B201EBC0000C
:103F1000801D4AF81020BDE8F08FD8F8001089B253
:103F200001EBC000801D0AEB40003E2A06D9D106F5
:103F300000D1ABB249EA83210160ECE7D10700D0A0
:103F4000B4B2A1020160E6E710B5554C554B01290A
:103F500009D0022906D1216889B201EBC000801C7A
:103F600043F8102010BD216889B201EBC000801C0D
:103F700003EB40013E2A0AD95009D20601D1401E66
:103F800080B24FF4004242EA8020086010BD500821
:103F9000D20701D0401C80B28002086010BD10B56D
:103FA0003F4C404B012909D0022906D1216889B232
:103FB00001EBC000801D43F8102010BD216889B2BC
:103FC00001EBC000801D03EB40013E2A0AD95009D5
:103FD000D20601D1401E80B24FF4004242EA802056
:103FE000086010BD5008D20701D0401C80B280028A
:103FF000086010BD2A49096889B201EBC00029494F
:10400000801C31F81000C0F30900C3E62449096898
:1040100089B201EBC0002349801D31F81000C0F3C4
:104020000900B7E61E490A6892B202EBC002921D6F
:1040300053001C4A9B5A13F47C4F01D00120A9E67F
:10404000096889B201EBC000801C32F810008005BD
:1040500001D002209EE600209CE6134B48F68F72AA
:1040600003EB800001290AD0022907D1D0F8001CF7
:1040700011404CF280021143C0F8001C8AE6D0F8CF
:10408000001C114048F2C0021143C0F8001C81E638
:1040900041EA00207EE6C1B2000A40EA012079E64A
:1040A000505C004000600040005000401849002073
:1040B000086018494FF43F4008801549091F0860FF
:1040C0000020704770B50E46144600F07F05284664
:1040D000FFF72AFE0146A2B23046FFF747FCA1B225
:1040E0002846FFF738FE002070BD70B50E4600F080
:1040F0007F052846FFF780FE04462846FFF71FFE8F
:10410000014622463046FFF744FC204670BD0000C1
:10411000445C00400401002010B501210846FCF772
:104120006FFB4FF480242046FCF731F94A490C60BC
:104130000820487101208871BDE810400846FCF74E
:10414000CCB80121C805FCF767BB444903200860CF
:1041500070474348817A4148002902D00521016017
:1041600001E001210160FEF796BD38B54FF4A06073
:10417000FCF746F814208DF8000002208DF80100AD
:1041800000208DF8020001248DF803406846FCF7FA
:104190003CF82A208DF800008DF801408DF803408E
:1041A0006846FCF732F838BD002802D00120FCF741
:1041B00032BD0020FCF72FBDF0B500230A253026C4
:1041C0003727002412E0B5EB107F04D906EB107CF2
:1041D00001F813C003E007EB107C01F813C00001E5
:1041E00001EB430C8CF801405B1CDBB29342EAD339
:1041F000F0BD10B51B48016D446D406E08440028A9
:104200000AD008221849FFF7D7FF17492046042291
:10421000BDE810401031CFE710BD10B50C46402C62
:104220000FD2124A002111602246C021FFF79EFBE7
:1042300021460120FFF78FFD0120FFF75BFC0120E5
:1042400010BD002010BD10B50949002008600320F2
:10425000FFF762FC012010BD0C0100200C020020C1
:10426000E40400200000F81F16010020C800002010
:10427000D00000200A4901200860704710B50949A4
:10428000012008600320FFF7B7FD074908600246D8
:10429000BDE810404FF488710448FFF77ABB000076
:1042A000C8000020D00000203001002000050020C0
:1042B0002DE9F04188B000244E4D28684E4E7080A4
:1042C0007188DFF83881B8F800000140890505D50C
:1042D0004FF6FF5129603178491C317071880140D7
:1042E000080401D5FFF730FA7088B8F800104FF6CF
:1042F000FF370840400503D52F604148406880479C
:104300007188B8F800000140890402D54DF6FF71AC
:10431000296071880140C80405D54EF6FF702860F9
:10432000002000F002FA7088B8F80010084000057C
:104330000BD53448007810B100F08DF902E002206E
:1043400000F0F3F94FF2FF7028607088B8F80010A1
:104350000840C0054AD54FF6FF6028602548001D7B
:1043600000684FF00003000439D57068401C70608D
:104370007068032834D91F48001F016809072FD42B
:10438000016889B2B160204A694602EB840CDCF80E
:1043900000CC1FFA8CFC41F824C0641C082CF4D318
:1043A000B46844F00104B460B468A4B20460B468B2
:1043B00024F00104B460B468A4B204602868400525
:1043C000FCD52F60002051F8204002EB8005A4B2FC
:1043D000C5F8004C401C0828F5D3736000E07360FA
:1043E00008B00720BDE8F04100F09FB908B0BDE873
:1043F000F0810000445C00403401002004010020F2
:10440000940100201002002000500040FFF750BF30
:104410004FF48020FBF7BBBF10B5FFF7EAFE7948E9
:1044200000240068847200F0F7F8FFF73FFE76483A
:10443000046010BD10B57348002100688172734A92
:10444000D2794272C1720020FFF7D2FA4FF40071A4
:104450000020FFF7E5FA10210020FFF7F6FA4021CF
:104460000020FFF754FC80210020FFF744FC0020CF
:10447000FFF782FB664890F82C100020FFF792FCB3
:104480000020FFF749FB00210120FFF7C9FAC021F6
:104490000120FFF730FC20210120FFF7D6FA002190
:1044A0000120FFF7E8FA4FF4C0610220FFF7B8FAE5
:1044B0004FF480710220FFF71EFC00210220FFF75D
:1044C000DAFA20210220FFF7C0FA00210320FFF7CB
:1044D000A7FA4FF488710320FFF719FC402103204D
:1044E000FFF760FC4FF440510320FFF7C4FA0021AE
:1044F0000320FFF7AAFA0020FFF794F842490120B1
:10450000086010BD4348807A002802D03E4905204B
:10451000086070473C490420086070473C481C38DC
:104520000178202901D100210170704770470028CF
:1045300002D0374818387047324908200968088285
:1045400000207047002802D03148183870472D49A4
:104550000820096808820020704710B50021294A08
:104560002128126802D0202808D012E0107800F02C
:104570007F0021280DD1AFF233010AE0107800F05E
:104580007F00212801D1AFF25901214B20201C3B93
:10459000187029B19161002050828847002010BD19
:1045A000022010BD17490968097801F07F0121290F
:1045B00003D1022803D0222803D002207047002014
:1045C00070470020704712491039FEF7F5BD1049B9
:1045D0000839FEF7F1BD0B490968C978042901D9EA
:1045E000002070470A4A303202EBC101FEF7E4BDF9
:1045F000002901D002207047012801D9022070470C
:1046000000207047F80000200C020020166400080B
:1046100094010020E404002010B50120FFF7C4FD40
:10462000012166480160664A00210160031D19608E
:104630004FF4E05111800160002010BD10B55F4CB7
:1046400001202060211D00200860FFF7ADFD032040
:104650002060002010BDF8B5002000210091574CCB
:1046600021688DB2574A584B02EB8001D1F8001CEB
:1046700089B243F82010401C0828F5D345F4806027
:10468000206040F00100206020F0010626604B49C8
:10469000091D08684005FCD54FF6FF300860002072
:1046A00053F8205002EB8007ADB2C7F8005C401C05
:1046B0000828F5D346F008002060206880B240F05A
:1046C00004002060414A10680090106820F0030048
:1046D00040F0010010603E48036843F004030360AB
:1046E0000B68DB0405D430BF016821F004010160D0
:1046F000F8BD4EF6FF730B60216889B221F0080106
:10470000216000991160016821F004010160F8BD89
:1047100010B52A4C206880B220F004002060FFF71A
:1047200018FD4FF43F40206010BD2DE9F041294CA9
:10473000072800D020702078264D06260522042761
:104740001E49062838D2DFE800F0030C12171F2894
:10475000686810B12270BDE8F081FFF7D9FF2670BC
:10476000F9E7FFF7D5FF277001206860F3E7022023
:10477000607003202070EEE76078401E6070607803
:104780000028E8D12770E6E7086880B240F0100002
:10479000086022700A206070DDE76078401E60705B
:1047A00060780028D7D1086880B220F01000086037
:1047B000267000206860CEE72670CCE7405C0040A1
:1047C000040100200050004040050020007000401F
:1047D00010ED00E014020020032A40F2308010F0B7
:1047E000030C00F0158011F8013BBCF1020F62448C
:1047F00098BF11F801CB00F8013B38BF11F8013B1D
:10480000A2F1040298BF00F801CB38BF00F8013BC9
:1048100011F0030300F05580083AC0F0088051F809
:10482000043B083A51F804CBA0E80810F5E7121D44
:104830005CBF51F8043B40F8043BAFF30080D20763
:1048400024BF11F8013B11F801CB48BF11F8012B2F
:1048500024BF00F8013B00F801CB48BF00F8012B52
:1048600070474FF000020429C0F0128010F0030CD2
:1048700000F05B80CCF1040CBCF1020F18BF00F813
:10488000012BA8BF20F8022BA1EB0C0100F04DB8C2
:104890005FEAC17C24BF00F8012B00F8012B48BF60
:1048A00000F8012B704770477047704710B500F053
:1048B00061F8006810BD10B5044600F05BF80460B4
:1048C00010BD10B5203AC0F00B80B1E81850203A66
:1048D000A0E81850B1E81850A0E81850BFF4F5AFA0
:1048E0005FEA027C24BFB1E81850A0E8185044BF2A
:1048F00018C918C0BDE810405FEA827C24BF51F897
:10490000043B40F8043B08BF7047D20728BF31F88A
:10491000023B48BF11F8012B28BF20F8023B48BFDB
:1049200000F8012B70474FF0000200B51346944683
:104930009646203922BFA0E80C50A0E80C50B1F1F7
:104940002001BFF4F7AF090728BFA0E80C5048BF0B
:104950000CC05DF804EB890028BF40F8042B08BFA9
:10496000704748BF20F8022B11F0804F18BF00F8A5
:10497000012B7047004870476005002000487047D1
:10498000600500207546FFF7F9FFAE460500694651
:10499000534620F00700854618B020B5FEF708FA08
:1049A000BDE820404FF000064FF000074FF0000830
:1049B0004FF0000B21F00701AC46ACE8C009ACE8B1
:1049C000C009ACE8C009ACE8C0098D46704710B515
:1049D0000446AFF300802046BDE81040FBF709BC59
:1049E00001491820ABBEFEE72600020070474900CF
:1049F00050EAC12018BF04204A0D18BF40F0010042
:104A000040F2FF72B2EB515F08BF40F00200012894
:104A100008BF052070472DE9F0414F1E00EBC7018C
:104A20000446D1E9000115461E4637F006020DD0B6
:104A30002A46334601F098F87F1E04EBC703D3E9FA
:104A4000002300F0B9FD37F00602F1D1022F25D086
:104A5000042F13D0062F18BFBDE8F0812A46334635
:104A600001F082F8D4E90A2300F0A6FD2A46334675
:104A700001F07AF8D4E9082300F09EFD2A46334677
:104A800001F072F8D4E9062300F096FD2A46334679
:104A900001F06AF8D4E9042300F08EFD2A4633467B
:104AA00001F062F8D4E9022300F086FD2A4633467D
:104AB00001F05AF8D4E90023BDE8F04100F07CBDD4
:104AC000002213461046014900F032BE0000F03FBC
:104AD00000F072BD002213461046114600F028BEB9
:104AE00040F2013200204FF0E04101F0D9BB00005C
:104AF000024A0020110701F0D3BB000001FDFFFFB7
:104B00002DE9F04D1D460C4698B0174621F00041A6
:104B100023F00043002814BF4FF0010C4FF0000CAD
:104B20000CEB440CFE4A0CEB02064FEA620C6645A5
:104B30002BD33E0018BF012606EB45061644F94A62
:104B4000964222D3F84A53EA070C02D0944205D188
:104B500048B918B000201146BDE8F08D002808BF04
:104B60004FF0000C01D04FF0010C0CEB440212F599
:104B7000001F0AD8002F14BF4FF0010C4FF0000C9B
:104B80000CEB450212F5001F07D918B03A462B4628
:104B90002146BDE8F04DFFF79BBF0022DFF88CA354
:104BA000002CB8BF534526DADFF884C36345A8BF9D
:104BB000022220DADFF870C39C451CDCDFF874C3E6
:104BC0000CEB235CBCF1140F08DDCCF1340627FAA2
:104BD00006FC0CFA06F6BE420DD108E05FB9CCF136
:104BE000140623FA06FC0CFA06F69E4203D10CF0DA
:104BF0000102C2F1020251EA000C19D1002D17DAAC
:104C0000002C18BF022A01D0012A07D00220FFF78A
:104C100052FE18B0BDE8F04DFFF752BF0220FFF77B
:104C20004AFEFFF74DFF18B081F00041BDE8F08D5E
:104C3000B7F1000C6CD1534525D104F1804212F537
:104C4000801201BF00280020B74918B008BFBDE896
:104C5000F08DB548884207DC002DA1BF604629468B
:104C600018B0BDE8F08D07E0281E05DA80F000419D
:104C700018B06046BDE8F08DAF497944D1E9000134
:104C800018B0BDE8F08DDFF8A0C2634525D1002D36
:104C90001FDA19B1514512D1D8B909E0002840F006
:104CA000EC82A24A214618B062F31E01BDE8F08DE5
:104CB0000020214618B060F31E01BDE8F08D08DA2F
:104CC00018B02346BDE8F04D02460020614600F0D2
:104CD0002FBD18B02146BDE8F08D514518DAB5F169
:104CE000804F0DD0A5F1005CBCF1FF5C10D1B4F198
:104CF000000C0DDB18B06146BDE8F04D00F036BC8D
:104D0000234618B00246BDE8F04D194600F02CBF0E
:104D1000060024F0004C3BD1D9B1514533D1002CD1
:104D200006DD002DA1BF0020514618B0BDE8F08D72
:104D3000002C01DD002D1BDB002C13DA002D11DB14
:104D4000012A4FF0000014BF78497C4918B0BDE833
:104D5000F08D022A18BF002C0AD0012A08D1002C9D
:104D600006DA0AE0002CB8BF002D11DA012A04D0BF
:104D7000002018B00146BDE8F08D18B000204FF0BB
:104D80000041BDE8F08DA1F14050B0F17F601AD034
:104D9000012000EBE47050EA020421D0624C521E64
:104DA0004FF0000B104304BF4FF0000B644C6548FC
:104DB00083427CDD644A654893421FDD884217DBED
:104DC000002D25DB37E0002C00DA4AB1022A0CBFA7
:104DD00001204FF0FF3018B0BDE8F04D00F05DBE8F
:104DE0000120FFF768FD18B0BDE8F04DFFF772BE77
:104DF0004D4A8A4202DC002D0ADC1CE0814202DAC4
:104E0000002D18DA04E0484B994220DD002D12DD18
:104E10000220FFF750FDFFF763FE05460E46002215
:104E200053465846214600F09FFE18B066F31E0117
:104E30002846BDE8F08D0220FFF73DFDFFF758FE44
:104E40000A46214618B062F31E01BDE8F08D00222B
:104E50003046614601F008F980460E466FF00102C7
:104E600001F01EFA4FF05532394B01F00BF8424673
:104E7000334600F079FE0022364B01F003F88246FB
:104E80004246334604911046194600F06DFE5246E4
:104E9000049B00F069FE8A4600904FF0C0422E4B02
:104EA0004046314600F060FE2C4A2B4B00E027E0E4
:104EB000CDE906015146009800F056FE8246019168
:104EC000274A284B4046314600F04EFE5246019B91
:104ED00001F0CAF882460B4602460591DDE906015B
:104EE00000F06AFBDDE9062300268846304601F023
:104EF000BBF85246059B00F0C5FF024600F07EB9A4
:104F00000020B1F5801F07DA35223046614601F0F6
:104F1000C7F906466FF0340000EB215024E0000092
:104F2000FFFF1F00FFFF0F000000F03F0000F07FB9
:104F30000000404301FCFFFFC21800000000F0FF2A
:104F40000000F0BF0000E0410000F043FFFFEF3F32
:104F50005555D53F0000E03F4715F73FFE822B65D2
:104F600044DF5DF80BAE543EA0F2FF300190C1F378
:104F7000130040F07F6141F040510291FE498842A8
:104F8000D8BF002004DDFD498142C8BF012001DDFA
:104F90000D9008E000200D900198401C01900298AF
:104FA000A0F5801002900299F54878440B910D9974
:104FB00000EBC100D0E900230F9330460A920B9911
:104FC00001F052F8CDE90601DDE90A2130460F9BD8
:104FD00000F0F2FA02460B460020EA4900F0A8FB76
:104FE000059102460B460090DDE9060100F0BCFD8C
:104FF0001490E5488A464FF000087844029900680A
:1050000012904FF0005040EA61010D980F9B01EBA8
:10501000804000F5002109910A9A129801F024F8C5
:1050200032460B9B00F02EFF4246534600F09CFD9B
:105030000646029140465146099B129A00F094FDA3
:10504000DDE9062300F01EFF3246029B01F00CF85A
:10505000059B009A00F088FD0091149A0490534635
:105060001046194600F080FD06460246C7480B462A
:10507000029106217844FFF7CEFCCDE90510029B92
:1050800032461046194600F06FFDDDE9053200F0AA
:105090006BFD05910646534640461946149A00F0AA
:1050A0008BFA009B049A00F05FFD3246059B00F0EE
:1050B00083FACDE90510424653461046194600F0E2
:1050C00053FD0022B24B02910A9000F075FADDE91F
:1050D000053200F071FA0E464246AD4B404600F0F4
:1050E000C3FF029B0A9A00F0BFFFDDE9053200F022
:1050F000C9FE424602910A9033461046514600F0DE
:1051000033FDCDE906015346149A02990A9800F03E
:105110002BFD8A460290334642460099049800F0DF
:1051200023FD5346029A00F047FA82460B46024698
:105130000591DDE9060100F03FFADDE906230020D4
:105140008846064600F090FF5246059B00F09AFE06
:10515000824609914FF060428E4B3046414600F046
:1051600003FD049006918C4A8A4B5046099900F041
:10517000FBFC82460291894A894B3046414600F049
:10518000F3FC5246029B00F017FA864B7B440D9AC3
:1051900003EBC203D3E9002300F00EFA0E9007914F
:1051A000019800F07AFC0591DDE9061382460E9A1B
:1051B000049800F001FA7C4A7A440D9B02EBC30389
:1051C000D3E900230093029200F0F6F95246059BC2
:1051D00000F0F2F90026884652463046059B00F062
:1051E00043FF009B029A00F03FFF069B049A00F0E9
:1051F0003BFF079B0E9A00F045FE024600200B463F
:1052000002903846294600F0AFFC824601912B46B9
:1052100038461946029A00F027FF3246434600F00E
:10522000A3FC5246019B00F0C7F907468A46324666
:1052300043462946029800F097FC05460E463A463A
:10524000534600F0B9F9594A8846914221DBA8EB50
:10525000020353EA000210D12A46334600F004FF4D
:10526000CDE90401524A534B3846514600F0A4F9A7
:10527000DDE9042300F076FD21D20220FFF71BFBBD
:10528000FFF72EFC0A46214618B062F31E01BDE866
:10529000F08D494B28F000429A4210D3474A08EB60
:1052A000020353EA00027FF4C6AD2A46334600F0FB
:1052B000DBFE3A46534600F055FD7FF6BCAD0022BA
:1052C000019228F000403E493E4A01EB20518242C3
:1052D00023DA481C4FF4801121FA00F040443A4A86
:1052E000C0F30A517A44394BA1F2FF31CB4020EA96
:1052F0000303C0F3130040F48010C1F11401C8404F
:1053000012680190B8F1000FBCBF404201902846DE
:10531000314600F0A9FE05460E462A463346384679
:10532000514600F049F94FF000084246284B4046EC
:10533000059100F019FCCDE90601264A264B4046AE
:10534000059900F011FC009102902A463346404630
:10535000059900F089FE3A46534600F093FD1F4A36
:105360001F4B00F001FC009B029A00F025F9074654
:10537000884602460B4635E08E9803007AB60B004D
:105380000A1500000000F03F4215000070140000F4
:105390000000084009C7EE3FFD033ADCF5015B144D
:1053A000E02F3EBE481300000C13000000009040A8
:1053B000FE822B654715973C00CC904000346F3F30
:1053C00001FCFFFF0000E03F58120000FFFF0F004C
:1053D000432EE63F396CA80C615C20BEEF39FAFE23
:1053E000422EE63FDDE9060100F0E6F8DDE906239E
:1053F00005460E4600F038FE3A46434600F042FDB0
:105400000F462A46334600901046194600F0ACFB82
:10541000824602462E4888460B4605217844FFF70F
:10542000FAFA5246434600F09FFB2A46334600F004
:1054300029FD80468A463B4628463146009A00F0C0
:1054400093FB3B46009A00F0B7F8069100900022CB
:105450004FF080434046514600F006FE0F460C9048
:10546000424653462846314600F07EFB3B460C9AA6
:1054700000F05EF9069B009A00F0F6FD2A463346DE
:1054800000F0F2FD0022134B00F0FCFC05460198F1
:105490000E4601EB00510815002810DC2846314665
:1054A000019A00F0FDFEFFF7A2FA042808BFFFF7FB
:1054B0001FFB28463146019A00F0F2FE05460B46D6
:1054C00018B02A4658462146BDE8F04D00F04CBBC6
:1054D000F81000000000F03F2DE9F04D07460E46A1
:1054E00000F076FC04460D463A46334600F0CAFC0E
:1054F000DFF86CA0DFF86CB01B4B0746884616F04F
:10550000004F4FF000020AD000F0F2FA0AD9002250
:105510005B463846414600F025FC1BD212E000F005
:10552000E7FA08D2002253462046294600F09CFDA7
:1055300004460D460EE000225B463846414600F028
:1055400011FC07D8002253462046294600F034F8C3
:1055500004460D463146204665F31E01BDE8F08D38
:105560000000F03F0000E03F0000E0BF2DE9F04107
:1055700006460F4600F092FC041E0D4618BF01209F
:10558000284320F00040C0F17F6000F1E040C00FF0
:105590000ED0301C18BF0120384320F00040C0F16D
:1055A0007F6000F1E040C00F04BF0120FFF783F9E6
:1055B00020462946BDE8F08110B591EA030F48BFA7
:1055C00083F0004300F15885841A71EB030C05D277
:1055D000121943EB0C03001B61EB0C01DFF824E113
:1055E0004FEA1154A4EB135C1EEA430F18BF9EEA66
:1055F000445F73D023EA0E03DCF1200E21EA04514C
:1056000043F4801332D322FA0CFE10EB0E0023FA7F
:105610000CFE41EB0E01CCF1200E03FA0EFE10EB56
:105620000E0051F10001B1F5801FCCF1200E32D2F5
:1056300001EB045112FA0EF2BDE8104058BF70475A
:10564000401C38BF5FEA420218BF7047002814BFF1
:1056500020F0010041F100014FEA410313F5001F62
:1056600038BF7047A1F1C04100F076BB012A43EB7F
:105670000302ACF1200CDCF11F0E32BF4FF0000E24
:1056800023FA0CF310EB030041EB0451B4EB115F70
:10569000D0D0A1EB045101F5801149085FEA300038
:1056A00001EB04510ED350F1000038BF12FA0EFE88
:1056B00008D1BDE81040C9E7401C38BF5FEA42028C
:1056C000CAD1C3E7BDE810404FEA410313F5001FFC
:1056D00038BF7047A1F1C04100F03EBB9EEA445F75
:1056E00008D011EA5E0FBDE8104004BF01F0004190
:1056F00000207047BDE8104070B500F0DFFA00BF31
:1057000064FBBE3E0000E0FF02494FF0000000F0E5
:1057100095BD00BF0000F87F491058BFC1F140415E
:105720005B1058BFC3F140438B42EFF300807047DA
:105730002DE9C04130B4DFF8A0C23CEA111418BF13
:105740003CEA131400F0EC8081EA03051CEA111412
:1057500044EAD57418BF1CEA131500F0C780A4EB07
:1057600005044FF0004545EAC12145EAC32341EA5B
:10577000505143EA525304F17F74994204F50034C6
:105780004FEAC0204FEAC22208BF904200F09C803E
:105790004FEA13650FF24016765D4FEA134506FB9C
:1057A00005F7C7F1807706FB07F74FEAD737A7FB66
:1057B00003687642C8F58038A7FB06CE38BFA8F14B
:1057C000010807FB08E64FF0000EA6FB028CE6FB83
:1057D00003CEDCF1000CCEF1004E38BFAEF1010E6D
:1057E000A6FB0C584FF000074FF00005E6FB0E87B4
:1057F000A1FB08C6A0FB07CE16EB0E0645F100057F
:10580000E1FB076515F1E04E7EBFA4F580345FEA49
:1058100046066D4116F1800745F100054FEA17274E
:105820004FEA066647EA0567A6F1DE46B6F1805FF5
:105830004FEA15251FD9384624F0010C05EBC47139
:10584000BCF1FE6F01EB0C1102D8F0BCBDE8008189
:1058500024425CBF01F5801E9EEAC47F02D4F0BCE6
:10586000BDE80081244238D4F0BCA1F1C041BDE8BC
:10587000004100F071BA4FEAD22242EA43524FEAA5
:10588000D323A7FB02864FEAD02040EA415007FB12
:1058900003661EEA0E0F4FEAD12105FB026658BFD0
:1058A000A6EB0056B6EB00564FEA520E4EEAC37E08
:1058B00018EB0E0E56EB530EBDD518EB02085E41E9
:1058C0007F1C55F10005B6E74FF480154FF0000737
:1058D0004FF000064FF00008ADE7F0BC4FF00000BD
:1058E00001F1C04101F00041BDE8008111EA0C1F47
:1058F0000CEA131500D00CE013EA0C1F00F0258011
:105900004FF00000F0BC81EA030101F00041BDE866
:105910000081F0BCBDE8004181EA030100F01CBA3F
:10592000F0BCBDE8004170B500F0C8F9097EFC3E4E
:1059300000F007B881EA03014FF0000001F00041D8
:10594000704781EA030100F007BAF0BCBDE80041EE
:105950004FF0000021497047FFFDFBF9F7F5F4F225
:10596000F0EEEDEBE9E8E6E4E3E1E0DEDDDBDAD8FA
:10597000D7D5D4D3D1D0CFCDCCCBCAC8C7C6C5C458
:10598000C2C1C0BFBEBDBCBBBAB9B8B7B6B5B4B36F
:10599000B2B1B0AFAEADACABAAA9A8A8A7A6A5A45A
:1059A000A3A3A2A1A09F9F9E9D9C9C9B9A9999981E
:1059B0009797969595949393929191908F8F8E8EC1
:1059C0008D8C8C8B8B8A898988888787868585844E
:1059D00084838382828181800000FF070000F87F3A
:1059E0004FEA41034FEA5353A3F58063D3F11E03FB
:1059F000C8BFD3F1210C0CDD4FF0004242EAC122B6
:105A000042EA505232FA03FC8CEAE17CACEBE170E2
:105A10007047102BC4BF0020704703F5787CBCF1A1
:105A2000FF3F04D06FF0004282EA2100704770B55A
:105A300000F044F94992248000207047F2E700000A
:105A40004FEA1153A3F58063D3F11E03A8BFD3F12E
:105A5000200C08DB4FF0004242EAC12252EA5052C9
:105A600032FA03F0704709420BD4102BC4BF002058
:105A7000704703F5787CBCF1FF3F05D04FF0FF3055
:105A800070474FF00000704770B500F017F900BF85
:105A90004992248000207047F0E710F0004248BF90
:105AA0004042B0FA80F310FA03F10AD0C3F11D03AB
:105AB00003F580634FEA415002EB035202EBD12120
:105AC00070474FF000007047B0FA80F310FA03F10E
:105AD0000AD0C3F11D0303F580634FEA41504FEA3A
