:020000040800F2
:10000000E8260020C129000835250008CB29000872
:10001000392500083B2500083D25000800000000A8
:100020000000000000000000000000003F25000864
:100030004125000800000000432500084525000870
:10004000DB290008DB290008DB290008DB29000880
:10005000DB290008DB290008DB290008DB29000870
:10006000DB290008DB290008DB290008DB29000860
:10007000DB290008DB290008DB290008DB29000850
:10008000DB290008DB290008DB290008DB29000840
:10009000DB290008DB290008DB290008DB29000830
:1000A000DB290008DB290008DB290008DB29000820
:1000B000DB290008DB290008DB290008DB29000810
:1000C000DB290008DB290008DB290008DB29000800
:1000D000DB290008DB290008DB290008DB290008F0
:1000E000DB290008DB290008DB290008DB290008E0
:1000F000DB290008DB290008DB290008DB290008D0
:10010000DB290008DB290008DB290008DB290008BF
:10011000DB290008DB290008DB290008DB290008AF
:10012000DB29000800F002F800F042F80AA090E88D
:10013000000C82448344AAF10107DA4501D100F0A2
:1001400037F8AFF2090EBAE80F0013F0010F18BF2D
:10015000FB1A43F0010318479C520000BC520000F8
:10016000103A24BF78C878C1FAD8520724BF30C8E3
:1001700030C144BF04680C607047000000230024B5
:1001800000250026103A28BF78C1FBD8520728BFA7
:1001900030C148BF0B6070471FB59DE8030003F0F6
:1001A0008FF902F081FE1FBD10B502F0E6FE10BD12
:1001B00002F04EFF1146FFF7EFFF02F0FFFC03F0E5
:1001C00051F903B4FFF7F0FF03BC03F00BFB000091
:1001D00010B57749884209D10121084600F042FA5A
:1001E0000021BDE81040012000F03CBA714988426E
:1001F00009D10121022000F035FA0021BDE81040AC
:10020000022000F02FBA6C49884209D10121042054
:1002100000F028FA0021BDE81040042000F022BAC6
:100220006649884209D10121082000F01BFA00210B
:10023000BDE81040082000F015BA6149884209D194
:100240000121102000F00EFA0021BDE8104010201E
:1002500000F008BA5B49884209D10121402000F032
:1002600001FA0021BDE81040402000F0FBB95649DA
:10027000884209D10121802000F0F4F90021BDE875
:100280001040802000F0EEB95049884209D1012188
:10029000202000F0E7F90021BDE81040202000F008
:1002A000E1B910BD2DE9F041002201274FF0030C08
:1002B00007FA02F50B682B40AB422BD106685300BE
:1002C0000CFA03F4A64306600E79D0F800809E4035
:1002D00046EA080606600E79012E01D0022E11D1E1
:1002E0008668A64386604E79D0F808809E4046EA2C
:1002F000080686608688AE43868086888D7995401C
:100300002E438680C568A543C560CC799C40C368F0
:100310001C43C460521C102ACAD3BDE8F0814FF6BA
:10032000FF7101600021017141718171C1717047DC
:1003300008B541F480320092009AC261C16100990F
:10034000C161C169C069009008BD02460020128ADF
:100350000A4200D001207047008A70470246002000
:10036000928A0A4200D001207047808A7047018338
:10037000704741837047002A01D001837047418351
:10038000704781827047828A4A408282704710B5E6
:100390004B07DB0E9A40C90800EB8100016A0F246D
:1003A0009C40A1430162016A1143016210BD00003B
:1003B000000002400004024000080240000C02401D
:1003C0000010024000180240001C024000140240CD
:1003D000D848016841F480710160D64908310A6843
:1003E000D54B1A400A600268D44B1A40026002687A
:1003F00022F480220260086820F47D00086000205A
:10040000091D08607047CB490022891C0A700870DA
:10041000704702460020510901290AD0C5493431EC
:10042000096802F01F02012393400B4200D0012013
:100430007047C0490968F4E718B5002000904FF4F0
:10044000A0643120FFF7E5FF0099491C0091009955
:10045000A14201D00028F4D03120FFF7DAFF08B123
:10046000012018BD002018BDB249C91D0870704791
:10047000B04A121D116821F46041014311607047B8
:10048000AF4908627047AB4A121D116821F4F85158
:1004900041EA002010607047A94908607047A549EB
:1004A000002235310A7008707047A649086070470D
:1004B000114301439F480A3001707047A049086604
:1004C00070479F49086770479E492C310860704704
:1004D000084398490B3108707047964A08321168F2
:1004E00021F0030101431160704792480830006811
:1004F00000F00C0070478F4A0832116821F0F001BB
:100500000143116070478B4A0832116821F4E061A1
:10051000014311607047874A0832116821F4605125
:1005200041EAC0001060704730B5824B083319684B
:1005300001F00C011C1F4FF40045002925D0824A10
:10054000042929D0082929D00C2929D02168C1F3F0
:100550004231491C8D400560196801F0F00109091C
:100560007A4A545C0168E14041601C6804F4E0642C
:10057000240A145D21FA04F484601B6803F46053B8
:10058000DB0AD25CD140C16030BD2168C1F3423189
:10059000491C8D400560DFE70260DDE70260DBE7B4
:1005A000196801F470111A6802F44002674C093CA2
:1005B00004EB91410978012404EB92521C6804F485
:1005C00080342CB1604C6143B1FBF2F10160C3E7B0
:1005D0005D4C6143B1FBF2F10160BDE7C0F3014145
:1005E000032907D1534B196821F0C04100F0C042E4
:1005F0000A431A604F4934310A6822F440320A60D3
:100600000A6800F4403002430A6070474D4958318F
:10061000086070474B495C3108607047454A1C329E
:10062000002903D0116801431160704711688143AC
:10063000116070473F4A2032002903D011680143FE
:10064000116070471168814311607047394A243244
:10065000002903D01168014311607047116881437C
:1006600011607047334A1032002903D011680143EA
:100670001160704711688143116070472D4A143230
:10068000002903D01168014311607047116881434C
:1006900011607047274A1832002903D011680143BE
:1006A000116070471168814311607047214A2832F8
:1006B000002903D01168014311607047116881431C
:1006C000116070471B4A2C32002903D01168014386
:1006D000116070471168814311607047154A3032CC
:1006E000002903D0116801431160704711688143EC
:1006F000116070470F4A0D32002903D01178014371
:100700001170704711788143117070470948343077
:10071000016841F080710160704701460020054A80
:100720000C3212680A4200D00120704701490E3194
:1007300008707047003802400CC0FF88FEFFFEEED4
:1007400000004742800647420024F40009000020D0
:1007500010B5A94988420AD1841401212046FFF727
:100760008DFF2046BDE810400021FFF787BFA34959
:1007700088420AD1041401212046FFF78BFF20464E
:10078000BDE810400021FFF785BF9D4988420AD18E
:10079000C41301212046FFF77DFF2046BDE810402D
:1007A0000021FFF777BF10BD30B5028802F4415336
:1007B0000A884C88CD8822438C882C4322430C899C
:1007C00022434C8922438C892243CC8922431A43F9
:1007D0000280828B22F400628283098A018230BD0A
:1007E0002DE9FF4105460C46022000210126AA8B77
:1007F0004FF240031A40AA8302222A84AF8BA268D8
:10080000022A21D0A08800B102266846FFF78CFE9C
:100810000098E188B1F5007F2CD07101B0FBF1F0B8
:1008200000EB8000A1684000B0FBF1F0401D80B2F9
:100830000A21B0FBF1F000F00101401AC0F34F00B3
:100840004FF6FF7202EA0121821EFE2A01D3022026
:100850000021E288084302432A8420886188A28913
:100860000843A18811430843384340F40060A8833B
:10087000BDE8FF81000A00EB8000A1684000B0FBEA
:10088000F1F0401D80B2D3E70021018041808180DA
:10089000C180018141818181C1810721018270472D
:1008A0000021018041808180C1800222826081819B
:1008B0007047002904D0018841F040010180704751
:1008C000018821F0400101807047002904D0818B0C
:1008D00041F4806181837047818B21F48061818341
:1008E0007047028822F40062028002880A43028074
:1008F0007047B1F5804F04D0018821F48041018018
:100900007047018841F4804101807047A1F57E4223
:10091000FF3A04D0018841F480710180704701885A
:1009200021F4807101807047002904D0818841F052
:10093000040181807047818821F004018180704723
:100940008089704781817047002904D0018841F473
:10095000005101807047018821F4005101807047E7
:10096000018841F4805101807047012901D0008B3A
:100970007047808A7047008A7047002A03D08288B7
:100980000A438280704782888A43828070470909BF
:1009900001238B4099B2002A03D082880A438280C7
:1009A000704782888A4382807047024600201289FD
:1009B0000A4200D001207047C9430181704730B519
:1009C0000246002001F00F03012505FA03F4A3B24B
:1009D000090905FA01F4A4B29188214012891A424A
:1009E00002D0002900D0012030BD01F00F0201210A
:1009F0009140C943018170470030014000380040F8
:100A0000003C00400748064901600749416007492A
:100A100081600749C1600749016107494161704729
:100A2000E10A0008F4000020BD0A0008890B000854
:100A30009D0B0008AD0B0008DD0B000870B56B497D
:100A40004A78824239D048700870694D694CF8B1D3
:100A5000002000F017FF2868417841F080014170C4
:100A6000012001F01AFE012000F00CFF296800208F
:100A700081F83C0081F83D0002223C31402001F029
:100A8000EAFD611CBDE870406F22012001F00BBE41
:100A9000002000F0F7FE2868417801F07F014170E6
:100AA000012001F0FAFD012000F0ECFE611CBDE820
:100AB00070406F22012001F0F6BD70BD10B501201D
:100AC00001F093FD4C4C206821688142FCD000204D
:100AD00001F08BFD20682168091A0629FBD310BD9F
:100AE00010B54649434808604149086001F032FDAD
:100AF000FFF7E4FF3D4901200870FFF79FFFBDE8C5
:100B0000104000F0EFBE3948007870473749097847
:100B1000002901D000F0B6BE00F072B8334800786A
:100B2000002801D000F02EBF00F0F6B82F48007862
:100B3000002801D000F03DBF00F033B92B48007809
:100B4000002801D000F02ABF00F020B92748007823
:100B5000002801D000F03EBF00F034B923480078EF
:100B6000002801D000F039BFFEE7204800780028B7
:100B700001D000F036BF00F028B91C4800780028EA
:100B800000D0FEE700F025B918480078002802D010
:100B9000012000F02ABF012000F01EB9134A12788C
:100BA000002A01D000F026BF00F01BB90F4A1278CE
:100BB000002A01D000F026BF00F01CB90B480078D5
:100BC000002801D000F029BF00F049B90749097891
:100BD000002901D000F009BF00F0FEB803480078FA
:100BE000002801D000F01CBF00F03CB91900002023
:100BF000880000200C010020A00000203C00002004
:100C000070B504460020F74DE969497821F0F801F4
:100C100029728C4213D0032C00D10120697A8842BA
:100C200002D0687201F088FDE869417801F0F801AE
:100C300021434170BDE87040012001F02EBD70BD20
:100C4000E848C1694231422001F050BD70B5E54D20
:100C500000246C70FFF7F4FFE34E6F22711C01203B
:100C600001F021FDE86944702146012001F015FDE5
:100C7000E869802141722322027305F13804627E03
:100C8000012A46D00E224273082210308275AA2211
:100C9000C273FF2202709322C275692202768122FA
:100CA00042767E2282769622C276227E41EA021126
:100CB00080F8201000F0CAFCE969A07E81F83200BB
:100CC0006F22711C012001F0C6FC206800F0A8FA18
:100CD000606800F0E5FAA06800F016FB012000F063
:100CE00002FD94F90C0000F03FFBE8690021226945
:100CF000123000F01EFCE86900216269133000F038
:100D000018FC6FF0050000F03AFDBDE870400120CE
:100D100076E71E224273B7E710B5B24C0120E169B5
:100D2000491C01F0E3FCE069407820F0F80010BDB8
:100D300010B5AC4C02221D20E1691D3101F0B3FC5D
:100D4000E069817F407F41EA002003F05FFE0022DE
:100D5000A64B03F0ABFEBDE8104003F0E3BD10B5B9
:100D6000A04C02221B20E1691B3101F09CFCE069D0
:100D7000017FC07E41EA002003F048FE00229B4B29
:100D800003F094FEBDE8104003F0CCBD10B5954CC7
:100D90000C20E1690C3101F0A9FCE069007B4009FD
:100DA00010BD10B58F4C1120E169113101F09EFC8E
:100DB000E069407C03F02AFEBDE8104000228C4B25
:100DC00003F074BE8748C07970478649D1E90C01A9
:100DD00070478448806A7047824948707047012094
:100DE000FAE7804A53890B80002353810A8881499E
:100DF00001F059BF10B57B4CA1810A4601467D48E0
:100E000001F051FF0720607010BD30B57548C06912
:100E100090F8271001F007035B1C90F83010CC0904
:100E200011F0060F01D0012200E0002290F83200FC
:100E3000022505EAD10123441A441044084480B233
:100E400030BD6848C06925304178027841EA022106
:100E5000807800F00700401C084480B27047614869
:100E6000407870472DE9F05F01265E4F0124384637
:100E70007A78C0695F4DDFF880814FF000094FF04C
:100E8000050A4FF0200B00F140010C2A5BD2DFE88D
:100E900002F05A065BA1FDFCFBFAF9F8F7F690F8B0
:100EA0003020D20603D54C2280F8402002E00C22EC
:100EB00080F84020E12280F841200222402001F009
:100EC000CAFB0520FFF79CFE4FF48071494801F0F2
:100ED0002FFF44483830406803F098FD04460D4623
:100EE000FFF793FF03F092FD032204F07BF9224603
:100EF0002B4603F0BFFB0022404B03F0D7FD03F06D
:100F00008DFA00223E4B03F0F9FA03F03BFD80B26C
:100F100000EB500038627862D8F8000038617861E0
:100F2000F869A02180F83510352001F0B6FB87F86C
:100F3000029087F8039087F8049087F80590A7F847
:100F40000A900220787064E101F0EDFB012805D1E0
:100F5000B87818B9BC70D8F80000786101F0DAFBF5
:100F6000012814D1B87890B1F87880B9FC70FFF7F7
:100F700018FFC7E90C01FFF7F2FEB862FFF706FFA2
:100F8000F871D8F800003861786103207870B8787B
:100F9000F97888430ED0D8F800007969401A796A48
:100FA000884207D97C70F869407B40F020010D2011
:100FB00001F073FBF878B978084339790843C2D156
:100FC000D8F800003969401A396A8842BBD987F8D5
:100FD00001A01EE17889B0F5807F13D906207870D2
:100FE00017E10000200000200C01002080844E400A
:100FF0000000E0BF7C010020A000002000408F40E6
:101000000000F03F01F081FB01282CD1788979792B
:1010100008430CD1F86990F83010090604D5012175
:101020007D4801F069FB02E090F83200788179890F
:1010300078790A1AF96991F8351001F03F018A426E
:101040000BDD284401F058FBF869797990F83500F8
:1010500000F03F000844787105E0D1B2284401F067
:101060004BFBB87A787101F04BFB01281CD1D8F802
:10107000000038617989787951EA000207E0C5E01B
:10108000C0E092E06DE055E047E039E033E04FF03A
:1010900004090CD0091AC9B2284401F02DFBB87A12
:1010A00078713C7187F801903879D0B1B1E0F86976
:1010B00090F83010090604D50121574801F01CFBB7
:1010C00002E090F832007881B97A7879091AC9B2C9
:1010D000284401F011FBB87A78713C7187F80190CF
:1010E000E2E7D8F800003969401A396A884201D924
:1010F00087F801A08DE087F805907C70022688E0D3
:1011000087F80590A7F80A90407B40F020010D2059
:1011100001F0C3FA7C7003267BE087F80590A7F8FE
:101120000A90407B40F020010D2001F0B6FA7C705F
:1011300006266EE080F8404080F841B00222402050
:1011400001F089FAF869982180F83510352001F00E
:10115000A4FA0320FFF754FD0820787087F8069062
:1011600057E001F0DCFA012853D1F86990F830001B
:10117000000604D528480121801C01F0B9FAB8897D
:10118000411E3F2901D8387001E087F800B0397856
:10119000224801F0ADFAB87939780844B871D8F826
:1011A0000000B8610920787033E001F0AEFA98B918
:1011B000B989B8790A1A39788A4207DD284401F0DA
:1011C00097FAB87939780844B87105E0D1B2284463
:1011D00001F08EFA387BB87101F092FA012807D13C
:1011E000D8F80000B8610A2078700120FFF708FDE8
:1011F000D8F80000B969401AB0F57A7F09D90B20F8
:10120000787006E087F80190042602E087F80190E4
:1012100005263046BDE8F09F2A0000207C01002012
:1012200010B5F849086003F0F1FB0022F64B03F01B
:1012300021FA03F0A7FBF549020C09688A71020A3A
:10124000CA7108720322891DBDE81040062001F012
:1012500002BA10B5ED4C032206202168891D01F069
:1012600022FA2168E74C8879CA790004097A40EAB1
:101270000220084303F0CAFB0022E34B03F016FCF4
:1012800003F080FB206010BD10B543213B2001F02E
:1012900004FADF4801680268521A082AFBD310BD1D
:1012A00010B5D849486003F0B1FB02460B46002058
:1012B000D84903F0DFF903F065FBD449020A096855
:1012C0008A70C8700222BDE81040891C104601F0E7
:1012D000C2B910B5CD4C022210462168891C01F01C
:1012E000E2F92068C74CC178807841EA002003F019
:1012F0008DFB02460B460020C64903F0BBF903F004
:1013000041FB80B2606010BD10B5BE49886003F03B
:101310007DFB0022BC4B03F0ADF903F033FBBB496E
:10132000020A09680A7148710222091DBDE81040CD
:10133000042001F090B910B5B44C022204202168B9
:10134000091D01F0B0F92068AE4C4179007941EAFD
:10135000002003F05BFB0022AB4B03F0A7FB03F084
:1013600011FB80B2A06010BD70B50446A74D0920E6
:101370002968093101F0BAF929685A205A3101F077
:10138000B5F92868417A0A0620D590F85A20D24348
:1013900052070DD0022C00DA0224112C00DD11249A
:1013A000A21E01F0F00102F00F02114341721CE095
:1013B000052C00DA0524142C00DD1424621F01F032
:1013C000F00102F00F02114341720EE04FF0FF32C4
:1013D000944200DA14460E2C00DD0E24621C01F04B
:1013E000F00102F00F0211434172417A092001F02D
:1013F00054F98448047370BD10B5844C09202168E9
:10140000093101F073F921685A205A3101F06EF95F
:1014100021687C4A487A03060ED591F85A10C943D0
:10142000490704D020F0F000801C107308E020F081
:10143000F000401D107303E020F0F000401E107318
:1014400092F90C0010BD70B506460846801C03F0EA
:10145000DDFA02460B4600204FF0804102F0F2FA1E
:1014600004460D46304603F0D1FA22462B4603F0DF
:101470001DFB02460B460020664903F0FBF8BDE861
:10148000704003F07FBA2DE9FF5F8A4693464FF024
:1014900000090026604F03F0B9FACDE902104FF0C1
:1014A000100809F1020003F0B1FACDE90010DDE9FE
:1014B000003200204FF0804102F0C4FA04460D468D
:1014C000404603F0A3FA22462B4603F0EFFA024609
:1014D0000B4600204F4903F0CDF804460D46DDE9E8
:1014E000021022462B4603F06FFC21F000413246E9
:1014F0003B4603F09FFA0CD2DDE9021022462B4650
:1015000003F062FC21F0004706468AF800808BF861
:10151000009008F1040808F0FF08B8F1180FC6D9C8
:1015200009F1010909F0FF09B9F1080FB7D3BDE8C6
:10153000FF9F7CB504461546002001900090334E75
:1015400032681232944204D1C1F34110400120703C
:1015500000E020706A4601A92846FFF794FF9DF835
:101560000400102804D014280AD018281BD111E038
:101570009DF80010207801F007010843207012E068
:101580009DF80010207801F0070141F008010843A0
:10159000207008E09DF80010207801F0070141F06C
:1015A0001001084320703068164E1230844205D175
:1015B0002178122001F071F835617CBD217813206B
:1015C00001F06BF875617CBD10B5044600202278EF
:1015D000C2F3C101002904D0012904D0022905D198
:1015E00003E0102002E0142000E0182002F00701C0
:1015F000FFF729FF05490A680249123294420DD1CA
:10160000086110BD5800002080844E403C0000203E
:10161000A000002080847E41D01263414861F0E741
:1016200070B50446944D30202968303101F05EF8E1
:101630002A6812F8300F00F0EF0040EA0411117030
:10164000302001F02AF88D48047670BD10B58A4C20
:1016500030202168303101F049F82068874990F83E
:101660003000C0F300100876CBE770B50446824D19
:101670000D2029680D3101F039F82A68507B00F0FF
:10168000EF0040EA041151730D2001F006F87B4889
:10169000447670BD10B5784C0D2021680D3101F0F5
:1016A00025F820687549407BC0F300104876A8E70C
:1016B00010B5044670492046096881F83240014659
:1016C000322000F0EAFF6D4884769AE710B56A4C44
:1016D00032202168323101F009F82068674990F81A
:1016E000320088768DE770B50546634C5A20216834
:1016F0005A3100F0FBFF25B12168872081F85A009C
:1017000003E02168842081F85A00206890F85A107C
:10171000BDE870405A2000F0C0BF10B5564C5A20AA
:1017200021685A3100F0E2FF206890F85A00C04367
:10173000400701D0002064E7012062E770B505464C
:101740004D4C0A2021680A3100F0D0FF226825F0B4
:10175000F000917A01F0F00101439172BDE8704010
:101760000A2000F09ABF10B5434C0A2021680A31C4
:1017700000F0BCFF2068807A20F0F00041E770B5EF
:1017800004463D4D0E2029680E3100F0AFFF002CBD
:1017900003DA1F20A043401C4442286804F01F02C3
:1017A000817B41EAC2018173BDE870400E2000F0E8
:1017B00074BF10B5304C0E2021680E3100F096FF3A
:1017C0002068807BC008C10603D51F218143491CC6
:1017D000484216E770B5284C3B2021683B3100F0A9
:1017E00085FF206810F83B1F01F0FE0101703B20CF
:1017F00000F053FF21680120491C00F077FF2068AA
:10180000457804214170012000F047FF1C48026820
:1018100003689B1A022BFBD321683B203B3100F06D
:1018200065FF206810F83B1F41F0010101703B206B
:1018300000F033FF21683C203C3100F057FF206866
:1018400090F83C0000F07F04000601D5604244B2ED
:101850002946012000F021FF204670BD10B5044646
:10186000FFF7B8FF201A40B2CBE610B50446FFF7E9
:10187000B1FF204440B2C4E63C00002058000020E4
:10188000A000002070B504460020FB4D296949786E
:1018900021F0F801A9708C4213D0032C00D1012053
:1018A000E978884202D0E87000F046FF2869417864
:1018B00001F0F80121434170BDE87040012000F0C3
:1018C000ECBE70BD10B5EC4C4321206980F82F10A0
:1018D000312000F0E2FE2169BDE810403E31422097
:1018E00000F004BF70B5E44C00202070FFF7EAFF61
:1018F000E24D6F22691C012000F0D5FE2069802195
:101900004172232101736F22691C012000F0A3FEA4
:10191000DB4C206800F0A6FA012000F08AFC94F964
:10192000040000F0D3FAA07900F074FBE07900F035
:10193000A2FB207A00F0C4FB607900F036FB607AED
:1019400000F006FC40F2FF3000F0E5FC207E00F0E5
:1019500055FC012000F009FDBDE87040012091E731
:1019600010B5012000F041FEC64C2068216881427C
:10197000FCD0002000F039FE20682168091A0629F1
:10198000FBD310BD10B5BC4C01202169491C00F0EF
:10199000ADFE2069407820F0F80010BD10B5B64CBF
:1019A0000C2021690C3100F0A1FE2069007B400968
:1019B00010BD10B5B04C1B2021691B3100F096FE04
:1019C0002069C07E03F022F8BDE810400022AE4B33
:1019D00002F094BDA84840787047A74890F90400E9
:1019E0007047A549D1E906017047A34908707047BF
:1019F0000120FAE7A04BDA880A800021D980A349A8
:101A000001F051B910B59C4C21810A4601469F480E
:101A100001F049F90520207010BD97480078704703
:101A20002DE9F84F0124944FDFF864A2DFF854B297
:101A30003878934E0025A0464FF002090B283FD27C
:101A4000DFE800F03E06549CFDFCFBFA3EF9F8008E
:101A50000120FFF717FF38699D214174112000F024
:101A60001CFEF07A01282CD03969FF2081F824006F
:101A7000386990F82410242000F00FFE396981F8AD
:101A80003C5081F83D5002223C31402000F0E3FD03
:101A9000B07A012826D03869C17B41730D2000F04F
:101AA000FCFD0520FFF7EEFE4FF48071774801F052
:101AB0003FF970697861DBF80000F86087F8009002
:101AC000C3E13969307B81F824001C311C2000F00F
:101AD0000DFE3869007F00F03F005AF8200000F04A
:101AE000C1F9C5E70620FFF7CDFEDDE700F008FEEF
:101AF000012818D1DBF80000F860F07A01280CD139
:101B000039691C201C3100F0F1FD3869007F00F0BC
:101B10003F005AF8200000F0A5F94021122000F003
:101B2000BCFD0320387000F0F5FD012819D1DBF869
:101B30000000F860F07A01280CD139691C201C31B2
:101B400000F0D4FD3869007F00F03F005AF8200013
:101B500000F088F90221122000F09FFDFFF71EFF20
:101B60007870B07A0128ABD1DBF80000F968401A30
:101B700079698842A4D90420387066E13969122055
:101B8000123100F0B3FD3869807C80060CD520212D
:101B9000122000F082FDB07A012802D087F8009070
:101BA00053E187F8008050E16946192000F09EFD5E
:101BB0009DF80000010606D5C043401CC0F3850017
:101BC0004042387101E08008387139691A201A31B1
:101BD00000F08CFD97F90400DFF8ACA0002812DAC1
:101BE00002F0FDFE044638690D46807E02F00EFFCD
:101BF0000022534602F082FC22462B4602F07EFC75
:101C0000C7E906010DE03869807E02F0FFFE214A37
:101C1000214B02F04BFF0022534602F06FFCC7E954
:101C20000601B07A012839D039691020103100F04E
:101C30005DFD05E0FBE0E1E0DAE0B6E062E05DE0FA
:101C4000707A012847D039691320133100F04EFD16
:101C50003869C17CF980017C41730D2000F01DFDC5
:101C60003869C17C094800F047FDB07A012842D0AC
:101C700087F800900224E8E0780000200C010020A2
:101C8000CC000020A0000020006061C07C02002089
:101C9000705200081B9E5E29CB10F13F3869C17B52
:101CA00041730D2000F0F9FC707A01280BD03969DE
:101CB0001320133100F01AFD3869C17CF98068489F
:101CC00000F01AFDD1E7386990F82210F9806448D5
:101CD00000F012FDC9E7386990F82210F980017C04
:101CE00041730D2000F0D9FC386990F822105C484F
:101CF00000F002FDB9E787F80080BBE787F80080B5
:101D00000324A2E00120FFF7BDFDF07A012839D0BD
:101D10003869F721417480F82450386990F824100C
:101D2000242000F0BAFC3869417C112000F0B5FC99
:101D30003869397A80F82210222000F0AEFC386928
:101D4000294685730E2000F0A8FC3869817B417319
:101D50000D2000F0A2FC386990F82210404800F0F5
:101D6000C7FC3969412081F83C00402081F83D00E2
:101D700002223C3100F06FFC0320FFF783FD0620B8
:101D8000387062E03969F5204874307B81F82400AE
:101D90001C311C2000F0AAFC3869007F00F03F00D5
:101DA0005AF8200000F05EF8B7E700F0A9FC01281F
:101DB00005D10821122000F070FC0720387000F0D7
:101DC000A9FC012841D1F07A01280CD139691C20E5
:101DD0001C3100F08BFC3869007F00F03F005AF89E
:101DE000200000F03FF80221122000F056FC2CE009
:101DF0000120FFF747FD3D70042426E00120FFF796
:101E000041FD3869FA214174112000F046FC39691E
:101E100081F83C5081F83D5002223C31402000F0D6
:101E20001AFC0720FFF72EFD0A2038700DE000F0A5
:101E300076FC012809D10421122000F02EFC00F0CC
:101E400072FC012804D03D7007242046BDE8F88FBD
:101E50000121122000F021FC87F800800824F4E71B
:101E60007C02002010B5FA49086002F0CFFD002284
:101E7000F84B02F0FFFB02F085FDF749020C096800
:101E80008A71020ACA7108720322891DBDE81040D6
:101E9000062000F0E0BB10B5EF4C032206202168BD
:101EA000891D00F000FC2168E94C8879CA7900049A
:101EB000097A40EA0220084302F0A8FD0022E54B1F
:101EC00002F0F4FD02F05EFD206010BD70B5044626
:101ED000E14D09202968093100F008FC29685A20E1
:101EE000563100F003FC2868417A0A0620D590F8A4
:101EF0005620D24352070DD0022C00DA0224112CB6
:101F000000DD1124A21E01F0F00102F00F021143C6
:101F100041721CE0052C00DA0524142C00DD142489
:101F2000621F01F0F00102F00F02114341720EE056
:101F30004FF0FF32944200DA14460E2C00DD0E24DE
:101F4000621C01F0F00102F00F0211434172417A6C
:101F5000092000F0A2FBBE48047170BD10B5BE4C54
:101F600009202168093100F0C1FB21685A2056314F
:101F700000F0BCFB2168B64A487A03060ED591F8FA
:101F80005610C943490704D020F0F000801C10719E
:101F900008E020F0F000401D107103E020F0F00098
:101FA000401E107192F9040010BD70B50446AA4D90
:101FB0001D2029681D3100F099FB2A68507F64F3C9
:101FC0009F10C1B251771D2000F067FBA0484471FB
:101FD00070BD10B5A04C1D2021681D3100F086FB9E
:101FE00020689B49407F8009487110BD70B5054647
:101FF000994C312021682F3100F078FB226812F8CB
:102000002F1F01F0F80129431170BDE87040312005
:1020100000F043BB70B504460C2C01D90C2402E03F
:10202000062C00D20624062C14D00320FFF7DEFF76
:10203000894D1E2029681E3100F058FB2868817FD9
:1020400064F31F11C9B281771E2000F026FB80487F
:10205000847170BD0520FFF7C9FFE9E710B57E4C1C
:102060001E2021681E3100F041FB20687849807FE6
:102070000009887110BD70B50446774D1D20296890
:102080001D3100F033FB2A68507F00F0C70040EAA2
:10209000C400C1B251771D2000F0FFFA6C48C47132
:1020A00070BD10B56C4C1D2021681D3100F01EFB69
:1020B00020686749407F20F0C700C008C87110BD84
:1020C00070B50446644D1D2029681D3100F00EFBDB
:1020D0002A68507F00F0FD0040EA440151771D203E
:1020E00000F0DBFA5A48047270BD70B504465A4DD0
:1020F000022220202968203100F0D5FA2968200A20
:1021000081F8200081F82140BDE870400222203192
:10211000202000F0A0BA10B54F4C022220202168E8
:10212000203100F0C0FA206820304178007841EA80
:10213000002010BD10B5484C1D2021681D3100F055
:10214000D5FA20684249407FC0F34000087210BDB4
:1021500070B50446404D1D2029681D3100F0C6FAB7
:102160002A68507F00F0FB0040EA840151771D206F
:1021700000F093FA3648447270BD10B5364C1D20FD
:1021800021681D3100F0B2FA20683149407FC0F368
:102190008000487210BD2E49887270472C48807AA2
:1021A00070472B49C87270472948C07A704710B5EC
:1021B000044629492046096881F824400146242024
:1021C00000F06BFA2248047310BD10B5224C242095
:1021D0002168243100F08AFA20681D4990F8240013
:1021E000087310BD1A4908617047194800697047A3
:1021F00017494861704716484069704710B5044652
:1022000015492046096881F822400146222000F045
:1022100044FA0F48047610BD10B50F4C22202168F7
:10222000223100F063FA2068094990F8220008760C
:1022300010BD70B50546084C5A202168563100F093
:1022400055FA5DB12168872081F856000AE0000048
:10225000CC00002080844E4088000020216884202B
:1022600081F85600206890F85610BDE870405A205A
:1022700000F013BA10B5534C5A202168563100F0C3
:1022800035FA206890F85600C043400701D000207E
:1022900010BD012010BD70B505464A4C09202168CB
:1022A000093100F023FA2268517A01F07F012943B5
:1022B0005172BDE87040092000F0EFB910B5414CF3
:1022C00009202168093100F011FA2068407A20F0D5
:1022D0007F0010BD70B505463A4C0A2021680A31CE
:1022E00000F004FA226825F0F000917A01F0F00184
:1022F00001439172BDE870400A2000F0CEB910B5DC
:10230000304C0A2021680A3100F0F0F92068807A08
:1023100020F0F00010BD70B504462A4D02221E20A8
:1023200029681E3100F0BFF92968032202EA14224D
:10233000887F00F0FC0010438877CC77BDE87040C0
:1023400002221E311E2000F086B910B51D4C02225B
:102350001E2021681E3100F0A6F92068C17F807F11
:1023600020F0FC0041EA002010BD70B50546154C78
:102370001D2021681D3100F0B9F92268517F01F05C
:10238000FE0129435177BDE870401D2000F085B95A
:1023900010B50C4C1D2021681D3100F0A7F92068F4
:1023A000407F00F0010010BD10B5064C31202168BF
:1023B0002F3100F09BF9206890F82F0000F0070003
:1023C00010BD0000880000207CB504461E48012195
:1023D00050F82400FEF722F901208DF804000220B5
:1023E0008DF80500184E361F36F814000090174D72
:1023F000694655F82400FDF755FF36F8141055F8D6
:1024000024000022FDF7B7FF7CBD0F490F4A091FCA
:1024100031F8101052F820000122FDF7ACBF0A4934
:102420000A4A091F31F8101052F820000022FDF767
:10243000A2BF064951F820108A8A034B1B1F33F8AC
:10244000100042408A8270474053000898000020E4
:1024500070B588B001210220FEF7E0F801218D035C
:102460002846FEF7F3F801A8FDF759FF691001911E
:1024700002218DF808108DF8091000248DF80A400B
:1024800001218DF80B10294E01A93046FDF70AFFF6
:10249000019501A93046FDF705FF6800019001A9EB
:1024A0003046FDF7FFFE05220D213046FDF76FFF98
:1024B00005220E213046FDF76AFF05220F21304626
:1024C000FDF765FFADF80C404FF48270ADF80E00DB
:1024D000ADF81040ADF81240ADF814406811ADF8F9
:1024E00016001020ADF81800ADF81A400720ADF81E
:1024F0001C000F4C03A92046FEF756F90121204687
:10250000FEF7D7F908B070BD10B5094C014620465A
:10251000FEF718FA01212046FEF747FA0028F9D005
:102520002046FEF70DFAC0B210BD000000040240C4
:10253000003800407047FEE7FEE7FEE7FEE7704721
:102540007047704702480168491C016070470000ED
:10255000A00000202DE9FC4101210720FEF75EF8D4
:1025600001258DF8045002208DF80500C402794E33
:10257000012221463046FDF7FEFE009469463046B2
:10258000FDF790FE6410002221463046FDF7F3FE71
:10259000009469463046FDF785FE00208DF8040062
:1025A000641000946C4F69463846FDF77BFE61105D
:1025B000009169463846FDF775FEE00000906946D7
:1025C0006648FDF76FFE009569463046FDF76AFEE6
:1025D0001020009069463046FDF764FE009469467D
:1025E0003046FDF75FFEBDE8FC817CB50424594B05
:1025F000022501280AD000208DF804008DF805502E
:10260000009469461846FDF74DFE7CBD1E4601222A
:1026100004213046FDF7AFFE01218DF804108DF83E
:102620000550009469463046FDF73CFE7CBD1CB564
:10263000484C012204212046FDF79DFE01218DF822
:10264000041002218DF805100421009169462046EE
:10265000FDF728FE1CBD2DE9F04104460D46164647
:10266000DFF8F0804FF48057002239464046FDF7EE
:1026700082FE44F08000FFF747FF002404E0285D5D
:10268000FFF742FF641CE4B2B442F8D33946404637
:10269000BDE8F0410122FDF76EBE13B5012201A98C
:1026A000FFF7D9FF1CBD2DE9F04104460D46164643
:1026B000DFF8A0804FF48057002239464046FDF7EE
:1026C0005AFE04F07F00FFF71FFF002405E0002002
:1026D000FFF71AFF2855641CE4B2B442F7D3394619
:1026E0004046BDE8F0410122FDF745BE0122DAE790
:1026F0000A4601460020AEE70A4601460020D2E71E
:102700004FF480611448FDF720BE4FF40071124869
:10271000FDF71BBE4FF400511048FDF716BE012116
:102720000C48FDF712BE10210A48FDF70EBE4FF40B
:1027300080610848FDF709BE064B4FF40061002890
:1027400003D001221846FDF716BE00221846FDF7F9
:1027500012BE0000000402400000024000080240D7
:1027600008490A680B689B1A8342FBD370474FF4F1
:102770007A71484303490A680B689B1A8342FBD36A
:1027800070470000A000002010B51C484FF47A717B
:102790000068B0FBF1F0B0F1807F01D301200DE0C3
:1027A00020F07F414FF0E020491E4161144AF021A2
:1027B00011700021816107210161002000B1FEE755
:1027C000FFF746FE0020FFF7FFFD0120FFF7FCFDAD
:1027D0000020FFF71AFE0120FFF717FE4FF4FA74EE
:1027E0002046FFF7BDFF0020FFF719FE0120FFF78D
:1027F00016FE2046BDE81040FFF7B2BFA40000203F
:1028000023ED00E00CB500220192009264490868B3
:1028100040F4803008604FF4A063086800F4003092
:1028200000900198401C0190009810B901989842BE
:10283000F3D10868800302D50120009000E00092E7
:10284000009801283CD15748026842F00402026017
:10285000026842F002020260026842F00102026075
:102860004F482430026842F080520260C2144E4841
:1028700002604268D206FCD449480830026802600F
:102880000268026002680260026822F47D0202604F
:10289000026842F4090202600A6842F080720A602B
:1028A0000A689201FCD5016821F00301016001680A
:1028B00041F0030101600168C1F381010329FAD1EC
:1028C0000CBD10B53648016841F48071016034498F
:1028D00008310A68354B1A400A600268344B1A40C6
:1028E0000260026822F480220260086820F47D0001
:1028F0000860091D00200860FFF784FF2D494FF094
:102900000060086010BD30B5254B0833186800F032
:102910000C001A1F28494FF40044002816D0274DF8
:1029200004281AD008281AD00C281AD01068C0F32E
:102930004230401C84400C6018681F4AC0F30310EA
:102940000D32105C0A68C2400A6030BD1068C0F3E6
:102950004230401C84400C60EEE70D60ECE70D60F7
:10296000EAE7186800F470101A6802F44002124C8A
:10297000241D04EB90400078012404EB92521C6863
:1029800004F480342CB10D4C6043B0FBF2F00860CD
:10299000D2E70A4C6043B0FBF2F00860CCE70000DD
:1029A00000380240003C0240007000400CC0FF882C
:1029B000FEFFFEEE08ED00E0A40000200024F4007D
:1029C0000948804709480047FEE7FEE7FEE7FEE7C3
:1029D000FEE7FEE7FEE7FEE7FEE7FEE704480549FF
:1029E000054A064B70470000C3280008250100086F
:1029F000E8040020E8260020E8060020E806002081
:102A000010B50120FFF701FD4FF49670FFF7A8FE07
:102A1000BDE810400120FFF702BD10B50020FFF710
:102A2000F4FC4FF49670FFF79BFEBDE810400020C9
:102A3000FFF7F5BC2DE9F0476A4D686840698047AB
:102A400050264927684C4FF04E084FF0470902289E
:102A500020D0032809D0042853D10020FFF7E9FC37
:102A600068688068BDE8F04700472670677084F8A2
:102A7000028084F803900420698803E0021F225436
:102A8000401CC0B28842F9D368680269BDE8F047CB
:102A90005548104768685349C268891C5248904796
:102AA000688800282DD0042250494F4800F0B0F823
:102AB00060B14E490422491F4B4800F0A9F8002894
:102AC0001FD12870BDE8F047FFF7A9BC0120FFF730
:102AD000B0FC2670677084F8028084F803900420AC
:102AE000698803E0021F2254401CC0B28842F9D317
:102AF000686802693C489047BDE8F0473CA000F098
:102B00007BB8BDE8F08710B5364C606840698047F7
:102B1000022809D0042833D10020FFF78AFC60681E
:102B20008068BDE81040004760682E49C268891C73
:102B30002D4890476088002822D02C490422491F44
:102B4000294800F065F800281AD10120FFF771FC30
:102B5000254A502010704F2050704E209070472012
:102B6000D0700420618803E0031F1354401CC0B2DE
:102B70008842F9D360680269BDE810401A481047DE
:102B800010BD10B5174C606840698047022814D109
:102B90006068A11CC26814489047608840B113491E
:102BA0000422491F104800F033F808B9FFF728FF46
:102BB00060688068BDE81040004710BDFFF7E4FD85
:102BC000FDF720FF074C6060006880476068806800
:102BD00080472078012802D0FFF795FFF9E7FFF73B
:102BE00029FFF6E7C40000207C0300204D530008B5
:102BF00073656E64206F6B000FB4044910B503AAAF
:102C0000029800F0C5F810BC5DF814FBDC0300204E
:102C100040EA010370B59B072ED14FF00136042A1C
:102C20002AD308C810C99D1B9D43121F15EAC6155B
:102C300017D0D8B2E1B2401A50EA056110D198B26B
:102C4000A1B2401A50EA05410AD123F07F4024F096
:102C50007F41401A50EA052102D1180EA0EB146002
:102C600070BDA342DBD018BA21BA884201D9012035
:102C700070BD4FF0FF3070BD0AB9002070BD10F874
:102C8000013B11F8014B63B1A3420AD1521E08D097
:102C900010F8013B11F8014B1BB1A34201D1521EA8
:102CA000EDD1181B70BD032A40F2308010F0030CE8
:102CB00000F0158011F8013BBCF1020F624498BF8F
:102CC00011F801CB00F8013B38BF11F8013BA2F12C
:102CD000040298BF00F801CB38BF00F8013B11F0A7
:102CE000030300F06780083AC0F0088051F8043B05
:102CF000083A51F804CBA0E80810F5E7121D5CBFB4
:102D000051F8043B40F8043BAFF30080D20724BFE6
:102D100011F8013B11F801CB48BF11F8012B24BF7A
:102D200000F8013B00F801CB48BF00F8012B7047C9
:102D30004FF000020429C0F0128010F0030C00F0E4
:102D40006D80CCF1040CBCF1020F18BF00F8012B10
:102D5000A8BF20F8022BA1EB0C0100F05FB85FEADE
:102D6000C17C24BF00F8012B00F8012B48BF00F8FC
:102D7000012B704770477047704710B500F074F82A
:102D8000006810BD10B5044600F06EF8046010BD78
:102D9000074B70B50D467B4400F06FF8044628469B
:102DA00000F07EF810B14FF0FF3070BD204670BDCE
:102DB0008F0C000010B5203AC0F00B80B1E818501D
:102DC000203AA0E81850B1E81850A0E81850BFF415
:102DD000F5AF5FEA027C24BFB1E81850A0E81850B4
:102DE00044BF18C918C0BDE810405FEA827C24BF08
:102DF00051F8043B40F8043B08BF7047D20728BF96
:102E000031F8023B48BF11F8012B28BF20F8023BE4
:102E100048BF00F8012B70474FF0000200B5134681
:102E200094469646203922BFA0E80C50A0E80C50EA
:102E3000B1F12001BFF4F7AF090728BFA0E80C509B
:102E400048BF0CC05DF804EB890028BF40F8042B94
:102E500008BF704748BF20F8022B11F0804F18BF01
:102E600000F8012B704700000048704784040020E0
:102E700001694A1C02610878704700B58FB0CDE93E
:102E800001310021059105497944CDE9031011462E
:102E9000684600F029F90FB000BD0000E5FFFFFF14
:102EA000007B00F08000704710B542485421FFF7C6
:102EB000B3FF41485421FFF7AFFF40485421FFF7CB
:102EC000ABFF3F493B483C4A3F4B08603D490A60E5
:102ED0003A491960531C0365481C106501200865B8
:102EE0003B48344A39A1784400F020FA20B93848E8
:102EF00078440A3800F0BFFA37482F4A35A17844A1
:102F000000F014FA20B9344878440A3800F0B3FAD3
:102F100032482A4A2FA1784400F008FA20B92F48F5
:102F200078440A3800F0A7FA40232248DC00002148
:102F3000224600F0D8F920B125487844543800F0F2
:102F40009AFA1D4822464023002100F0CCF920B116
:102F500021487844543800F08EFA1848224610234D
:102F6000002100F0C0F9002806D01C487844BDE8D4
:102F70001040563800F07FBA10BD104870B5006D93
:102F800020F001040B4800F047FA0B4800F044FA27
:102F90000A4800F041FA09E0206D20F001052046C2
:102FA00000F03AFA204600F078F82C46002CF3D1D5
:102FB00070BD000088030020DC03002030040020E6
:102FC000E8000020EC000020F0000020720000006B
:102FD000FE24000077000000EA240000D624000050
:102FE0000EB5CDE9000100F0DDFB0290694601203D
:102FF000ABBE0EBD08B5694600900220ABBE08BD51
:103000001FB58DE8070069460520ABBE04B010BDB2
:103010001FB58DE80F0069460620ABBEF6E708B580
:10302000694600900920ABBE08BD1CB5CDE9000182
:1030300069460A20ABBE1CBD704708B569460090C2
:103040000C20ABBE08BD000000487047840400207F
:103050007546FFF7F9FFAE4605006946534620F076
:103060000700854618B020B5FFF7B8FCBDE8204042
:103070004FF000064FF000074FF000084FF0000B34
:1030800021F00701AC46ACE8C009ACE8C009ACE8E7
:10309000C009ACE8C0098D46704770B50446051FED
:1030A00000F0F2F90068002C14BF446870BD002CD9
:1030B00018BFAC423CBF20466468F8D301680A18C8
:1030C000AA4218BF456003D12A6805461144016031
:1030D00028684119A1421CBF6C6070BD61686960BD
:1030E00021680844286070BD2DE9F041064600249F
:1030F000D6E90170F5688046304603E04146B8479E
:10310000641C3046A8470028F8D12046BDE8F0816D
:103110002DE9F04705460C46C86820F4201040F41D
:103120008000C860800602D5084600F0FAFAE06820
:1031300041F282014FF0FF390140022903D02046BD
:1031400000F098FAB5E000F42041B1F5004F0FD13E
:10315000C00306D56168E06A884200D8084660600E
:1031600006E02069E06260606069FFF766FFA061C9
:10317000A0680022EEB200280DDAE1688B050AD4BF
:10318000C043A06041F490302260E0606068411C60
:1031900061600670A5E0E0689046226040F400504F
:1031A000E060206968BB6069FFF739FF012704F11F
:1031B0002405A0B1A08910F4407F08D0E06900F098
:1031C000AEF9206118B1E06840F4006016E0E761F4
:1031D0002561E06820F4407040F480600EE0E06912
:1031E00000F09DF900282061F1D0E06840F4006013
:1031F00010F4407FE06002D140F48070E06020690C
:103200006060E06825696FF0010AC1051FD561683B
:10321000E06A884200D80846411B04D0224628466E
:1032200000F032FAF0BBE068010203D5E562C4E9C0
:10323000015854E0691CE1626160E16940F480304A
:10324000491EC4E9021030462E70BDE8F087010225
:1032500002D500F480320AE06068411C61600670AB
:10326000E0680A2E40F48030E06006D00022E16A77
:103270006068814203D90B4602E00122F7E703466A
:10328000A7895B1B7F0503D4E7699F4200DDE2B19C
:10329000814200D80146E5620F1AC4E90158002BAB
:1032A00009DD00E005E022461946284600F0ECF969
:1032B00008B14846C9E747B1A069E5626560C01B2F
:1032C000A061E06840F01000E060E068000208D50E
:1032D0006168A069E562491B08446560A0615046C9
:1032E000B3E73046B1E770B5C468A50713D06502EF
:1032F00011D4B2F5807F09D0B2F5007F06D0B2F5C7
:10330000806F08D1012300F1240106E05D1E6FF0FB
:103310007F46B54201D3012070BD0161C3614160A8
:1033200024F470611143C160002070BD2DE9F041AB
:103330000C4607461646104600F06EF82078611CD1
:1033400061280AD0722802D077283CD102E00125FA
:10335000002405E00225042402E0082448F20205C6
:1033600011F8010B2B2806D0622809D011F8010CA6
:1033700074280AD00BE045F0030544F00204EFE79F
:1033800045F0040544F00104EAE744F0100438462F
:103390002146FFF725FE411C15D0002131617160E7
:1033A0004FF40071F560F1617061200704D530467B
:1033B0000222002100F0E2F8306D40F0010030659B
:1033C0003046BDE8F0810020FBE72DE9F0410D46D5
:1033D0000646104C206DC10704D0410804D020F0EF
:1033E0000104F7E722460EE0542000F098F80700A9
:1033F0000ED0206D47F00101084354212065384666
:10340000FFF70AFD3A4629463046BDE8F0418DE710
:103410000020D6E7880300202DE9F04704464FF04E
:1034200000094FF0FF37C568D4E90486A80707D024
:10343000204600F053F93046FFF7DCFD002802DAA1
:103440003846BDE8F087280502D54046FFF725FE3F
:103450004C212046FFF7E0FC206D20F001002065A4
:103460004846EEE710B50446AFF300802046BDE8BD
:103470001040FCF7A6BE10B500F07AF9BDE8104088
:1034800000F070B970470000004870478C040020BD
:10349000704770477047704738B504460A460020A9
:1034A0006946AFF30080002808BF38BD0246009986
:1034B000204600F0A4F9012038BD012000F0F3B946
:1034C000F8B5AFF30080054600200C46102000BF81
:1034D0000646A819A0420DD9324669460020AFF32E
:1034E0000080070008BF00F0DEF90098A04218BF76
:1034F0000546C419FFF7C8FF05600746F01D20F018
:1035000007004619284600F073F9B44208BFF8BD19
:10351000A21B31463868BDE8F84000F070B970B5BC
:103520000646FFF7B1FF056806F10B0020F007041F
:10353000B4429CBF002070BD2B466A68BAB11068C7
:10354000A04210D304F1080188423CBF5068586083
:1035500007D35168101941601168091B0160586058
:103560001460101D70BD13465268002AE7D1214631
:103570002846FFF791FF0028DED170BD2DE9F0410C
:10358000044616460D464769007B80072ED0384614
:10359000FFF745FD50BB3EB3012E02D0022E25D1D0
:1035A00004E0204600F045F905441DE03846FFF7E9
:1035B00044FDE168002841F01001E16005DA204691
:1035C00000F058F80120BDE8F081C9030BD562680E
:1035D000E16A914200D81146A26911442269891A10
:1035E000814200DD08460544002D01DA0220EAE7A9
:1035F000E16A6068E268814206D29103E06203D525
:1036000022F4003141F01002A6690027AE4213DC1B
:10361000E16A814201D90B4600E0034603EB060C48
:103620002369ACEB030CAC4506DD814201D98C4625
:1036300000E084469C4505D1A760276042F0200049
:10364000A5620DE0AD1BE669AE1B8142A66000D904
:103650000846C01A281A20605819606022F020001D
:1036600003490840E060002084F84870ABE70000A0
:10367000BFCFD7FFC16821F4001141F08001C160C4
:1036800000218160016070472DE9F04781461446B2
:103690000E464FF0FF383248D5685769054209D0C9
:1036A0003846A169FFF7C1FC002811DB2C48C04354
:1036B0000540E5602B46324649463846FFF7A0FCF8
:1036C000A16920F00042B21A11440028A16103D080
:1036D0002046FFF7CFFF4046BDE8F08770B50446AF
:1036E0000569C06A6168884200D80846E16821F42B
:1036F0002011E160C90312D5A84208D02246411B1F
:103700002846FFF7C1FF10B14FF0FF3070BD002019
:10371000E562C4E90150E06820F48030E0600020F8
:1037200070BD10B50446C06820F02000E060A16ABA
:10373000A06988420DD02046FFF7D0FFE06820F452
:10374000405040F01000E060A06AA0612069E06293
:10375000606044F24001E0688843E06010BD000012
:1037600010000200002801D000F03CB870470000B3
:1037700010B5014602A000F07DF8012010BD000048
:1037800053494752545245443A2052656469726520
:1037900063743A2063616E2774206F70656E3A20FF
:1037A0000000000010B5431C02E010F8011B71B1CD
:1037B0008107FAD14FF0013202C88C1A8C4314EA07
:1037C000C211F9D0C01A0A0603D0C01E10BDC01A1B
:1037D00010BD0A0401D0801E10BD0902FCD0401E9D
:1037E00010BD000001491820ABBEFEE72600020014
:1037F00000210160C0E901107047102070470346A6
:1038000040688C46002818BF88423CBF0346406889
:10381000F8D318681844884207D00CF1030020F050
:103820000700001D411A521A0146081D0A60FFF7E1
:1038300034BC10B50146C268900703D0900607D586
:10384000886A0AE0FFF710FB01210160881E10BDA5
:103850008B69486818440B69C01A91F848301BB14D
:1038600091F84910401A10BD1103FCD50028FADD6B
:10387000401E10BD70B505460C460A2000E06D1CC8
:1038800000F018F835B128780028F8D102E0641C5F
:1038900000F010F814B120780028F8D1BDE870408D
:1038A0000A2000F007B810B500F00CF8BDE8104091
:1038B000FFF758BF08B569468DF800000320ABBE7E
:1038C00008BD000010B5012805D0002103A0FFF7B6
:1038D000D1FF012010BD09A1F8E70000534947526C
:1038E000544D454D3A204F7574206F6620686561D0
:1038F00070206D656D6F7279000000003A20486598
:103900006170206D656D6F727920636F7272757072
:1039100074656400490050EAC12018BF04204A0DB4
:1039200018BF40F0010040F2FF72B2EB515F08BFD8
:1039300040F00200012808BF052070472DE9F04142
:103940004F1E00EBC7010446D1E9000115461E4693
:1039500037F006020DD02A46334601F0A7F87F1E45
:1039600004EBC703D3E9002300F0C8FD37F00602DB
:10397000F1D1022F25D0042F13D0062F18BFBDE898
:10398000F0812A46334601F091F8D4E90A2300F089
:10399000B5FD2A46334601F089F8D4E9082300F042
:1039A000ADFD2A46334601F081F8D4E9062300F044
:1039B000A5FD2A46334601F079F8D4E9042300F046
:1039C0009DFD2A46334601F071F8D4E9022300F048
:1039D00095FD2A46334601F069F8D4E90023BDE895
:1039E000F04100F08BBD0000002213461046014953
:1039F00000F040BE0000F03F00F080BD0022134602
:103A00001046114600F036BE40F2013200204FF061
:103A1000E04101F0E7BB0000024A0020110701F07D
:103A2000E1BB000001FDFFFF8A68002A01DCFFF70F
:103A30006FBB521E8A604A68C0B2531C4B60107044
:103A4000704700002DE9F04D1D460C4698B0174612
:103A500021F0004123F00043002814BF4FF0010C77
:103A60004FF0000C0CEB440CFE4A0CEB02064FEA44
:103A7000620C66452BD33E0018BF012606EB4506B7
:103A80001644F94A964222D3F84A53EA070C02D068
:103A9000944205D148B918B000201146BDE8F08D18
:103AA000002808BF4FF0000C01D04FF0010C0CEBC8
:103AB000440212F5001F0AD8002F14BF4FF0010C6A
:103AC0004FF0000C0CEB450212F5001F07D918B09F
:103AD0003A462B462146BDE8F04DFFF78DBF002248
:103AE000DFF88CA3002CB8BF534526DADFF884C377
:103AF0006345A8BF022220DADFF870C39C451CDCB6
:103B0000DFF874C30CEB235CBCF1140F08DDCCF1BF
:103B1000340627FA06FC0CFA06F6BE420DD108E080
:103B20005FB9CCF1140623FA06FC0CFA06F69E42A5
:103B300003D10CF00102C2F1020251EA000C19D1CA
:103B4000002D17DA002C18BF022A01D0012A07D055
:103B50000220FFF717F918B0BDE8F04DFFF744BF9A
:103B60000220FFF70FF9FFF73FFF18B081F0004187
:103B7000BDE8F08DB7F1000C6CD1534525D104F1AF
:103B8000804212F5801201BF00280020B74918B00A
:103B900008BFBDE8F08DB548884207DC002DA1BF05
:103BA0006046294618B0BDE8F08D07E0281E05DA0A
:103BB00080F0004118B06046BDE8F08DAF4979440F
:103BC000D1E9000118B0BDE8F08DDFF8A0C263456F
:103BD00025D1002D1FDA19B1514512D1D8B909E00C
:103BE000002840F0EC82A24A214618B062F31E0180
:103BF000BDE8F08D0020214618B060F31E01BDE83D
:103C0000F08D08DA18B02346BDE8F04D02460020DA
:103C1000614600F02FBD18B02146BDE8F08D51453A
:103C200018DAB5F1804F0DD0A5F1005CBCF1FF5C56
:103C300010D1B4F1000C0DDB18B06146BDE8F04DB9
:103C400000F036BC234618B00246BDE8F04D1946D8
:103C500000F02CBF060024F0004C3BD1D9B15145F7
:103C600033D1002C06DD002DA1BF0020514618B035
:103C7000BDE8F08D002C01DD002D1BDB002C13DADC
:103C8000002D11DB012A4FF0000014BF78497C4958
:103C900018B0BDE8F08D022A18BF002C0AD0012A06
:103CA00008D1002C06DA0AE0002CB8BF002D11DA8A
:103CB000012A04D0002018B00146BDE8F08D18B0EC
:103CC00000204FF00041BDE8F08DA1F14050B0F16F
:103CD0007F601AD0012000EBE47050EA020421D08A
:103CE000624C521E4FF0000B104304BF4FF0000B0C
:103CF000644C654883427CDD644A654893421FDD1D
:103D0000884217DB002D25DB37E0002C00DA4AB1B2
:103D1000022A0CBF01204FF0FF3018B0BDE8F04D73
:103D200000F05DBE0120FFF72DF818B0BDE8F04DA2
:103D3000FFF764BE4D4A8A4202DC002D0ADC1CE01B
:103D4000814202DA002D18DA04E0484B994220DD66
:103D5000002D12DD0220FFF715F8FFF755FE05468E
:103D60000E46002253465846214600F09FFE18B0EA
:103D700066F31E012846BDE8F08D0220FFF702F829
:103D8000FFF74AFE0A46214618B062F31E01BDE85D
:103D9000F08D00223046614601F008F980460E465B
:103DA0006FF0010201F01EFA4FF05532394B01F06D
:103DB0000BF84246334600F079FE0022364B01F004
:103DC00003F882464246334604911046194600F0F5
:103DD0006DFE5246049B00F069FE8A4600904FF04B
:103DE000C0422E4B4046314600F060FE2C4A2B4B21
:103DF00000E027E0CDE906015146009800F056FEAC
:103E000082460191274A284B4046314600F04EFE3B
:103E10005246019B01F0CAF882460B4602460591C4
:103E2000DDE9060100F06AFBDDE90623002688468D
:103E3000304601F0BBF85246059B00F0C5FF024634
:103E400000F07EB90020B1F5801F07DA3522304638
:103E5000614601F0C7F906466FF0340000EB2150CF
:103E600024E00000FFFF1F00FFFF0F000000F03FF5
:103E70000000F07F0000404301FCFFFF1E1800001F
:103E80000000F0FF0000F0BF0000E0410000F04340
:103E9000FFFFEF3F5555D53F0000E03F4715F73F87
:103EA000FE822B6544DF5DF80BAE543EA0F2FF307E
:103EB0000190C1F3130040F07F6141F04051029145
:103EC000FE498842D8BF002004DDFD498142C8BFB9
:103ED000012001DD0D9008E000200D900198401CAC
:103EE00001900298A0F5801002900299F54878445C
:103EF0000B910D9900EBC100D0E900230F933046E0
:103F00000A920B9901F052F8CDE90601DDE90A2188
:103F100030460F9B00F0F2FA02460B460020EA49B9
:103F200000F0A8FB059102460B460090DDE9060172
:103F300000F0BCFD1490E5488A464FF00008784434
:103F40000299006812904FF0005040EA61010D980C
:103F50000F9B01EB804000F5002109910A9A12980D
:103F600001F024F832460B9B00F02EFF42465346E8
:103F700000F09CFD0646029140465146099B129A6C
:103F800000F094FDDDE9062300F01EFF3246029B9F
:103F900001F00CF8059B009A00F088FD0091149A3E
:103FA000049053461046194600F080FD064602462E
:103FB000C7480B46029106217844FFF7BFFCCDE9C4
:103FC0000510029B32461046194600F06FFDDDE9F0
:103FD000053200F06BFD05910646534640461946F2
:103FE000149A00F08BFA009B049A00F05FFD3246B1
:103FF000059B00F083FACDE9051042465346104672
:10400000194600F053FD0022B24B02910A9000F0D5
:1040100075FADDE9053200F071FA0E464246AD4B05
:10402000404600F0C3FF029B0A9A00F0BFFFDDE9A3
:10403000053200F0C9FE424602910A90334610460E
:10404000514600F033FDCDE906015346149A02991A
:104050000A9800F02BFD8A460290334642460099AA
:10406000049800F023FD5346029A00F047FA824676
:104070000B4602460591DDE9060100F03FFADDE955
:10408000062300208846064600F090FF5246059B16
:1040900000F09AFE824609914FF060428E4B304606
:1040A000414600F003FD049006918C4A8A4B50462D
:1040B000099900F0FBFC82460291894A894B3046FF
:1040C000414600F0F3FC5246029B00F017FA864B83
:1040D0007B440D9A03EBC203D3E9002300F00EFAF0
:1040E0000E900791019800F07AFC0591DDE9061326
:1040F00082460E9A049800F001FA7C4A7A440D9B9D
:1041000002EBC303D3E900230093029200F0F6F917
:104110005246059B00F0F2F900268846524630468A
:10412000059B00F043FF009B029A00F03FFF069BB7
:10413000049A00F03BFF079B0E9A00F045FE0246F2
:1041400000200B4602903846294600F0AFFC82461C
:1041500001912B4638461946029A00F027FF324655
:10416000434600F0A3FC5246019B00F0C7F9074606
:104170008A46324643462946029800F097FC054697
:104180000E463A46534600F0B9F9594A88469142DC
:1041900021DBA8EB020353EA000210D12A46334682
:1041A00000F004FFCDE90401524A534B3846514612
:1041B00000F0A4F9DDE9042300F076FD21D202200D
:1041C000FEF7E0FDFFF720FC0A46214618B062F337
:1041D0001E01BDE8F08D494B28F000429A4210D3F1
:1041E000474A08EB020353EA00027FF4C6AD2A46B1
:1041F000334600F0DBFE3A46534600F055FD7FF6AD
:10420000BCAD0022019228F000403E493E4A01EB3D
:104210002051824223DA481C4FF4801121FA00F029
:1042200040443A4AC0F30A517A44394BA1F2FF3173
:10423000CB4020EA0303C0F3130040F48010C1F127
:104240001401C84012680190B8F1000FBCBF404291
:1042500001902846314600F0A9FE05460E462A4642
:1042600033463846514600F049F94FF000084246BF
:10427000284B4046059100F019FCCDE90601264A7D
:10428000264B4046059900F011FC009102902A4609
:1042900033464046059900F089FE3A46534600F001
:1042A00093FD1F4A1F4B00F001FC009B029A00F097
:1042B00025F90746884602460B4635E08E980300EE
:1042C0007AB60B00661400000000F03F9E14000058
:1042D000CC1300000000084009C7EE3FFD033ADCA4
:1042E000F5015B14E02F3EBEA4120000681200002E
:1042F00000009040FE822B654715973C00CC904013
:1043000000346F3F01FCFFFF0000E03FB4110000EC
:10431000FFFF0F00432EE63F396CA80C615C20BE06
:10432000EF39FAFE422EE63FDDE9060100F0E6F83D
:10433000DDE9062305460E4600F038FE3A464346C0
:1043400000F042FD0F462A463346009010461946BB
:1043500000F0ACFB824602462E4888460B460521FB
:104360007844FFF7EBFA5246434600F09FFB2A469B
:10437000334600F029FD80468A463B4628463146B2
:10438000009A00F093FB3B46009A00F0B7F80691C4
:10439000009000224FF080434046514600F006FE58
:1043A0000F460C90424653462846314600F07EFBAD
:1043B0003B460C9A00F05EF9069B009A00F0F6FD71
:1043C0002A46334600F0F2FD0022134B00F0FCFCBD
:1043D000054601980E4601EB00510815002810DC37
:1043E00028463146019A00F0FDFEFFF793FA0428B3
:1043F00008BFFFF711FB28463146019A00F0F2FE94
:1044000005460B4618B02A4658462146BDE8F04DF1
:1044100000F04CBB541000000000F03F2DE9F04DBF
:1044200007460E4600F076FC04460D463A463346F3
:1044300000F0CAFCDFF86CA0DFF86CB01B4B07463D
:10444000884616F0004F4FF000020AD000F0F2FA52
:104450000AD900225B463846414600F025FC1BD2B3
:1044600012E000F0E7FA08D200225346204629461F
:1044700000F09CFD04460D460EE000225B463846E7
:10448000414600F011FC07D8002253462046294639
:1044900000F034F804460D463146204665F31E010F
:1044A000BDE8F08D0000F03F0000E03F0000E0BFFD
:1044B0002DE9F04106460F4600F092FC041E0D4621
:1044C00018BF0120284320F00040C0F17F6000F1B8
:1044D000E040C00F0ED0301C18BF0120384320F040
:1044E0000040C0F17F6000F1E040C00F04BF012038
:1044F000FEF748FC20462946BDE8F08110B591EA58
:10450000030F48BF83F0004300F15885841A71EB14
:10451000030C05D2121943EB0C03001B61EB0C01D9
:10452000DFF824E14FEA1154A4EB135C1EEA430FB9
:1045300018BF9EEA445F73D023EA0E03DCF1200E1D
:1045400021EA045143F4801332D322FA0CFE10EB1B
:104550000E0023FA0CFE41EB0E01CCF1200E03FA03
:104560000EFE10EB0E0051F10001B1F5801FCCF1F1
:10457000200E32D201EB045112FA0EF2BDE81040C7
:1045800058BF7047401C38BF5FEA420218BF7047EF
:10459000002814BF20F0010041F100014FEA41035F
:1045A00013F5001F38BF7047A1F1C04100F076BB82
:1045B000012A43EB0302ACF1200CDCF11F0E32BFE9
:1045C0004FF0000E23FA0CF310EB030041EB045103
:1045D000B4EB115FD0D0A1EB045101F58011490873
:1045E0005FEA300001EB04510ED350F1000038BFF8
:1045F00012FA0EFE08D1BDE81040C9E7401C38BFD2
:104600005FEA4202CAD1C3E7BDE810404FEA410366
:1046100013F5001F38BF7047A1F1C04100F03EBB49
:104620009EEA445F08D011EA5E0FBDE8104004BF67
:1046300001F0004100207047BDE8104070B500F067
:10464000DFFA00BF64FBBE3E0000E0FF02494FF00E
:10465000000000F095BD00BF0000F87F491058BF72
:10466000C1F140415B1058BFC3F140438B42EFF3AF
:10467000008070472DE9C04130B4DFF8A0C23CEAA9
:10468000111418BF3CEA131400F0EC8081EA030512
:104690001CEA111444EAD57418BF1CEA131500F083
:1046A000C780A4EB05044FF0004545EAC12145EA67
:1046B000C32341EA505143EA525304F17F749942B3
:1046C00004F500344FEAC0204FEAC22208BF9042EE
:1046D00000F09C804FEA13650FF24016765D4FEABA
:1046E000134506FB05F7C7F1807706FB07F74FEA8E
:1046F000D737A7FB03687642C8F58038A7FB06CEFC
:1047000038BFA8F1010807FB08E64FF0000EA6FB32
:10471000028CE6FB03CEDCF1000CCEF1004E38BF7C
:10472000AEF1010EA6FB0C584FF000074FF000054C
:10473000E6FB0E87A1FB08C6A0FB07CE16EB0E0614
:1047400045F10005E1FB076515F1E04E7EBFA4F5DC
:1047500080345FEA46066D4116F1800745F1000599
:104760004FEA17274FEA066647EA0567A6F1DE46D5
:10477000B6F1805F4FEA15251FD9384624F0010CA9
:1047800005EBC471BCF1FE6F01EB0C1102D8F0BC5B
:10479000BDE8008124425CBF01F5801E9EEAC47F13
:1047A00002D4F0BCBDE80081244238D4F0BCA1F1B1
:1047B000C041BDE8004100F071BA4FEAD22242EA9E
:1047C00043524FEAD323A7FB02864FEAD02040EAA8
:1047D000415007FB03661EEA0E0F4FEAD12105FB8D
:1047E000026658BFA6EB0056B6EB00564FEA520ED3
:1047F0004EEAC37E18EB0E0E56EB530EBDD518EBEA
:1048000002085E417F1C55F10005B6E74FF48015A4
:104810004FF000074FF000064FF00008ADE7F0BC86
:104820004FF0000001F1C04101F00041BDE80081FE
:1048300011EA0C1F0CEA131500D00CE013EA0C1F50
:1048400000F025804FF00000F0BC81EA030101F088
:104850000041BDE80081F0BCBDE8004181EA0301F0
:1048600000F01CBAF0BCBDE8004170B500F0C8F91A
:10487000097EFC3E00F007B881EA03014FF000001A
:1048800001F00041704781EA030100F007BAF0BC73
:10489000BDE800414FF0000021497047FFFDFBF9E2
:1048A000F7F5F4F2F0EEEDEBE9E8E6E4E3E1E0DE63
:1048B000DDDBDAD8D7D5D4D3D1D0CFCDCCCBCAC8D5
:1048C000C7C6C5C4C2C1C0BFBEBDBCBBBAB9B8B7FC
:1048D000B6B5B4B3B2B1B0AFAEADACABAAA9A8A8EF
:1048E000A7A6A5A4A3A3A2A1A09F9F9E9D9C9C9BBD
:1048F0009A99999897979695959493939291919068
:104900008F8F8E8E8D8C8C8B8B8A898988888787F8
:104910008685858484838382828181800000FF076D
:104920000000F87F4FEA41034FEA5353A3F5806339
:10493000D3F11E03C8BFD3F1210C0CDD4FF00042B0
:1049400042EAC12242EA505232FA03FC8CEAE17C8C
:10495000ACEBE1707047102BC4BF0020704703F52B
:10496000787CBCF1FF3F04D06FF0004282EA210066
:10497000704770B500F044F94992248000207047D8
:10498000F2E700004FEA1153A3F58063D3F11E0351
:10499000A8BFD3F1200C08DB4FF0004242EAC1224D
:1049A00052EA505232FA03F0704709420BD4102BEE
:1049B000C4BF0020704703F5787CBCF1FF3F05D0F1
:1049C0004FF0FF3070474FF00000704770B500F0B7
:1049D00017F900BF4992248000207047F0E710F0DB
:1049E000004248BF4042B0FA80F310FA03F10AD007
:1049F000C3F11D0303F580634FEA415002EB0352FC
:104A000002EBD12170474FF000007047B0FA80F3FD
:104A100010FA03F10AD0C3F11D0303F580634FEAD6
:104A200041504FEA035202EBD12170474FF0000092
:104A30007047000051EA030C17D41CF5801F58BFC3
:104A4000BCF5801F00F10680994218BF704708BF6F
:104A50009042704707D711F5801F58BF13F5801F8C
:104A600019D499427047894270471CF5801F08D5B8
:104A7000BCF5801FF7D58B4218BF704708BF824234
:104A800070474FF4001C1CEB410F38BF1CEB430F69
:104A900001D28B42704770B500F0B2F89224490001
:104AA0004FF000514FF08053FFF7D8BDDFF848C1F9
:104AB00070B51CEA111E1EBF1CEA13159EEA0C0FEE
:104AC00095EA0C0F00F06F8081EA030423EA4C138F
:104AD0004EEAD47E21EA4C1141F4801143F4801354
:104AE000AE44A1FB024CA0FB0365AEF17F7E3619FC
:104AF00055EB0C05A1FB034C4CF10003A0FB021C81
:104B000016EB0C06654153F10003094218BF46F04D
:104B1000010613F4007F0BD14FEA03314FEA053051
:104B2000340341EA155140EA16506FF003020AE0DF
:104B30004FEAC3214FEAC520F40241EA555140EA49
:104B400056506FF0020202EB2E4201EB025585EA4D
:104B5000CE710AD05FEA440C18BF24F0004450F133
:104B6000000041F1000120EAD47040F2FE7C624571
:104B700000D270BDA84214BF4FF080444FF04044B3
:104B8000002E08BF0024BEF1806FA8BFA1F1C04174
:104B9000BDE8704080F282804FF0000001F1C0411A
:104BA00001F0004170479EEA0C0F0CEA131518BF84
:104BB00095EA0C0F06D04FF0000081EA030E0EF0CC
:104BC000004170BD00F01CF88900013E00F007B8FC
:104BD00000F009B84FEA430C5FEA5C5C08D081EA58
:104BE000030100F05BB84FEA410C5FEA5C5CF6D170
:104BF0004FF00000014970470000FF070000F87FF8
:104C00000EF1020E2EF0030E5EF8046B364205D450
:104C1000012A43EB030515F5001F12D8012841EBCB
:104C2000010C1CF5001F0CD80ED14FEAD17C15F5F4
:104C3000001F0CEB4C0C0CF1020C08BF4CEBD37CAE
:104C400004E04FF0080C01E04FEAD37C0CEB4C057C
:104C500026FA05F606F00706B6F1040C06D20EEBAE
:104C6000860CBDE870404CF0010C6047DFE80CF0AA
:104C7000090B02024FF000414FF00000A1F50021A6
:104C800070BD19461046012851EB010418BFD4F538
:104C9000001484BF002001F0004170BD0808A0F599
:104CA00000114FEA3101704753EA010C17D41CF58B
:104CB000801F58BFBCF5801F00F106808B4218BFD3
:104CC000704708BF8242704707D713F5801F58BF4F
:104CD00011F5801F19D48B4270479B4270471CF519
:104CE000801F08D5BCF5801FF7D5994218BF7047C3
:104CF00008BF904270474FF4001C1CEB430F38BFB5
:104D00001CEB410F01D2994270470FB40CBC03BC9D
:104D1000FFF7C1BE5FEA410C5FEA5C5CACF5806303
:104D20005B1C39D4D3F1340240F34580B2F1200347
:104D300014DA4FF0010C0CFA02FCACF10103034051
:104D4000B3EB5C0220EA030008BF10EA0C0F98BF27
:104D5000704710EB0C0041F1000170470AD0C3F11D
:104D6000200201FA02FC012821FA03F101FA03F101
:104D70004CF100004FF0010C0CFA03FCACF1010304
:104D8000B0F1004F21EA030108BF11EA0C0F4FF008
:104D9000000088BF61447047B3F1FF3F28BF50EA6D
:104DA000C12C01F000414FF0000084BF41F07C5164
:104DB00041F470017047B3F5806FB8BF704770B5AC
:104DC000FFF71EFF40DBB6BE91EA030F10B581F07E
:104DD00000413FF59BAB83F0004300F0EFB80000CB
:104DE0002DE9F04101F5801CBCF5001FC0F2C38025
:104DF0004FEA115C21EA0C510CF1FD0C41F48011D9
:104E00005FEA5C0C0CF5C07C01D3400049413DA435
:104E1000890241EA905187028E0E0A0CA45D04FBC0
:104E200004F602FB06F6C6F14046A4FB0662F60D48
:104E300046EA422606FB06F4A4FB01235242C3F1D4
:104E4000404338BF5B1EA6FB02420024E6FB03245E
:104E5000D20B42EA4446A6FB0623A1FB02E2A3FBD7
:104E600007E4A4184FF0000252F10002E3FB0142F4
:104E70006442C2F1404E38BFAEF1010EA6FB0423DE
:104E80004FF00002E6FB0E32A2FB03464FF0000497
:104E9000B61954F10004E2FB0264A1FB06E6A4FB90
:104EA00007E816EB08064FF0000858F10008E4FB8D
:104EB00001687642C8F1405838BFA8F10108A2FB4A
:104EC00006E4A3FB08E52D194FF0000454F100049B
:104ED000E2FB0854A1FB05E6A7FB04E818EB060873
:104EE0004FF0000656F10006E1FB048618F120059C
:104EF00056F10006A809A8F11B08B10908F03F08FF
:104F0000B8F10A0F40EA86601CD901EB0C51BDE8EC
:104F1000F08100BFFCF5EEE8E2DDD8D3CFCBC7C30C
:104F2000C0BDB9B6B4B1AEACA9A7A5A3A19F9D9BC6
:104F30009A9896959392908F8D8C8B898887868589
:104F400084838281A0FB006800FB01F208EB420829
:104F5000B8EB872807D5341858EB0104D5D5401C89
:104F600051F10001D1E7341A78EB0104CDD4401E91
:104F700071F10001C9E75FEA4C0C5FEA9C5C0DD15E
:104F800005D34FF0000001F00041BDE8F081BDE81D
:104F9000F04170B5FFF734FE6DDBFFBEBDE8F041B8
:104FA0004FF00000004970470000F87F10B591EA0B
:104FB000030F48BF83F000433FF5A8AA841A71EBA2
:104FC000030C07D212198CF0004C43EB0C03001BAE
:104FD00061EB0C01DFF8A4E14FEA1154A4EB135C80
:104FE0001EEA430F18BF9EEA445F00F0B08023EA38
:104FF0006E03524221EA0451C3EB6E0338BF5B1EBD
:10500000DCF1200E25D322FA0CFE10EB0E0043FA41
:105010000CFE41EB0E01CCF1200E03FA0EFE10EB5C
:105020000E0051F10001CCF1200E29D412FA0EF23B
:1050300001EB0451BDE8104058BF7047401C1CBF35
:10504000B2F1004F704700280CBF491C20F001004E
:10505000704712EB020E43EB030218BF4FF0010E34
:105060004EEA4202ACF1200CDCF11E0E54D943FA98
:105070000CFE10EB0E0051F1FF31CCF11E0ED5D518
:105080000EF1010E12FA0EFE404141EB010101EB5F
:10509000445C5FEA5C5C10D910EBDE7001EB0451FC
:1050A00038BFBEF1004FBDE8104018BF7047002860
:1050B0000CBF491C20F00100704730D24FEAD42CBD
:1050C00011F5001124F400641BD0B1FA81F20B3AFF
:1050D000A41AA41ED2F12003914030FA03F319431D
:1050E000904001EBCC71002C01EB0451BDE8104065
:1050F000A8BF704701F1C0414FF0000001F000412E
:105100007047B0FA80F310FA03F100D110BDE41A31
:10511000173C4805C90AE4E701EB045110BD4910EA
:1051200001EB0451BDE810404FEA300002E04FF0BF
:10513000000170474A0008BF0042F8D0B2F5001FD6
:1051400028BF704701F000414FF0000070479EEA11
:10515000445F07D011EA5E0FBDE8104004BF002194
:1051600000207047BDE8104070B5FFF749FD00BF53
:1051700040DFF63E83F00041104670470000E0FF3C
:105180000CF00F03092B08BF082000F059800A2BF0
:105190000BD0082B18BF704708BF1CF0400F0AD077
:1051A0004FF000004FF0000170471CF0400F18BF97
:1051B0004FF0004070471CF0100F08D020F07043F3
:1051C00000F07F4242EAD3014FEA4370704700F09B
:1051D000604021F07F4242EA000201F07F4040EA55
:1051E000727070474FF0FF0C4CF4E06C1CEA1153E6
:1051F0001CBF9CEA030C9445C2BFDA4201EB02518A
:105200007047002B0DD0BCF1000F0FD0002A01F029
:105210000041A4BF41F0E04141F07F614FF0000048
:10522000704701F000414FF00000704750EA013331
:105230004FF09B0C18BF4CF0806C7FF407AA7047AE
:105240001CF4801F11D01CF4E02F03D06FEACC3186
:10525000490070474FF04050EFF3008222F0704257
:1052600042EA000282F3008870474FF00000704766
:1052700020AEA036E07D0B37A017083660F0AF36C1
:1052800060F0AF36403D2E36C0AFD235000D9936B6
:1052900020A5633680A331374061223760DE353682
:1052A00040466B36A032BF36A032BF36A00ECB359B
:1052B000E0625436A0443937A00ECB35809AF436DC
:1052C000001F1337E050DA3540466B36809AF436CB
:1052D00080A33137807F3D360016D636A03BFC36A2
:1052E000C0C14C36809AF43660DE353680A3313743
:1052F000809AF4368091B73660022A3700FB1E365A
:1053000060F0AF36A0443937209C2636000D993620
:1053100060D5F835000D9936C0AFD2354034F1353F
:10532000C0CA893640466B36C0B80F36807F3D36DE
:10533000A044393760022A37C0C14C3600018000D2
:10534000010000000100000050494E4700504F4E40
:105350004700000000000000000000000000F03FD7
:10536000000000000000F83F000000000000000006
:105370000000004003B8E23F000000000000000011
:1053800006D0CF43EBFD4C3E033333333333E33F9F
:10539000FFAB6FDBB66DDB3F4D268F515555D53FCB
:1053A00001411DA96074D13F65DBC9934A86CD3F99
:1053B000EF4E454A287ECA3F3E5555555555C53F87
:1053C00093BDBE166CC166BF2CDE25AF6A56113F79
:1053D000F16BD2C541BDBBBED0A4BE726937663E7B
:1053E00000000000000000003A7474003A74740079
:1053F0003A7474001454000800000020F400000007
:105400006001000808550008F4000020F4250000A1
:105410007C010008030406080C101820300000006E
:10542000000102030401020304060708090000004A
:105430000000000020000000000000010101000049
:10544000000000000000000000000000000000005C
:10545000000000000000000000000000000000004C
:105460000000000000000000000000008025DB3389
:105470008025000050C3000014000000A086010039
:10548000F04902000101FF000000000000010101DD
:10549000000000000000000000000000000000000C
:1054A00000000000000000000000000000000240BA
:1054B00000000240000000000048E8010304060864
:1054C0000C10182030000000000000000001020352
:1054D00004060708090000000100090000000000A0
:1054E0008025DB3314000C040100010004000000DF
:1054F000F4010000E803000080000000000000004C
:085500000000000000000000A3
:0400000508000125C9
:00000001FF
